202212270010000300000000000000178207                8000000000030614476660Acima R S.A.                  000000002824300000000000000000000000000000000000000000000000000000000000000000000000000000000000000000000000000000000000PES00010000001 00000000000000000000000000000000000000000                              000000000000000
202401300010000300000000000000003214                8000000000020059453409Atencio Carlos Alberto        000000002100000000000000000000000000000000000000000000000000000000000000000000000000000000000000000000000000000000000000PES00010000001 00000000000000000000000000000000000000000                              000000000000000
202401300010000600000000000000038970                8000000000030667076516Electro Integral S.A          000000011137400000000000000000000000000000000000000000000000000000000000000000000000000000000000000000000000000000000000PES00010000002 00000000000000000000000000000000000000000                              000000000000000
202401110010000200000000000000130289                8000000000030502309893Licari S.A.                   000000003414800000000000000000000000000000000000000000000000000000000000000000000000000000000000000000000000000000000000PES00010000001 00000000000000000000000000000000000000000                              000000000000000
202401110010000200000000000000130288                8000000000030502309893Licari S.A.                   000000003414800000000000000000000000000000000000000000000000000000000000000000000000000000000000000000000000000000000000PES00010000001 00000000000000000000000000000000000000000                              000000000000000
202401110010000200000000000000130287                8000000000030502309893Licari S.A.                   000000003414800000000000000000000000000000000000000000000000000000000000000000000000000000000000000000000000000000000000PES00010000001 00000000000000000000000000000000000000000                              000000000000000
202401110010000200000000000000130286                8000000000030502309893Licari S.A.                   000000003414800000000000000000000000000000000000000000000000000000000000000000000000000000000000000000000000000000000000PES00010000001 00000000000000000000000000000000000000000                              000000000000000
202401110010000200000000000000130285                8000000000030502309893Licari S.A.                   000000003414800000000000000000000000000000000000000000000000000000000000000000000000000000000000000000000000000000000000PES00010000001 00000000000000000000000000000000000000000                              000000000000000
202401110010000200000000000000130284                8000000000030502309893Licari S.A.                   000000003414800000000000000000000000000000000000000000000000000000000000000000000000000000000000000000000000000000000000PES00010000001 00000000000000000000000000000000000000000                              000000000000000
202401110010000200000000000000130283                8000000000030502309893Licari S.A.                   000000003414800000000000000000000000000000000000000000000000000000000000000000000000000000000000000000000000000000000000PES00010000001 00000000000000000000000000000000000000000                              000000000000000
202401110010000200000000000000130282                8000000000030502309893Licari S.A.                   000000003414800000000000000000000000000000000000000000000000000000000000000000000000000000000000000000000000000000000000PES00010000001 00000000000000000000000000000000000000000                              000000000000000
202401110010000200000000000000130281                8000000000030502309893Licari S.A.                   000000003414800000000000000000000000000000000000000000000000000000000000000000000000000000000000000000000000000000000000PES00010000001 00000000000000000000000000000000000000000                              000000000000000
202401110010000200000000000000130280                8000000000030502309893Licari S.A.                   000000003414800000000000000000000000000000000000000000000000000000000000000000000000000000000000000000000000000000000000PES00010000001 00000000000000000000000000000000000000000                              000000000000000
202401110010000200000000000000130279                8000000000030502309893Licari S.A.                   000000003414800000000000000000000000000000000000000000000000000000000000000000000000000000000000000000000000000000000000PES00010000001 00000000000000000000000000000000000000000                              000000000000000
202401110010000200000000000000130278                8000000000030502309893Licari S.A.                   000000003414800000000000000000000000000000000000000000000000000000000000000000000000000000000000000000000000000000000000PES00010000001 00000000000000000000000000000000000000000                              000000000000000
202401110010000200000000000000130277                8000000000030502309893Licari S.A.                   000000003414800000000000000000000000000000000000000000000000000000000000000000000000000000000000000000000000000000000000PES00010000001 00000000000000000000000000000000000000000                              000000000000000
202401110010000200000000000000130276                8000000000030502309893Licari S.A.                   000000003414800000000000000000000000000000000000000000000000000000000000000000000000000000000000000000000000000000000000PES00010000001 00000000000000000000000000000000000000000                              000000000000000
202401110010000200000000000000130275                8000000000030502309893Licari S.A.                   000000003414800000000000000000000000000000000000000000000000000000000000000000000000000000000000000000000000000000000000PES00010000001 00000000000000000000000000000000000000000                              000000000000000
202401110010000200000000000000130274                8000000000030502309893Licari S.A.                   000000003414800000000000000000000000000000000000000000000000000000000000000000000000000000000000000000000000000000000000PES00010000001 00000000000000000000000000000000000000000                              000000000000000
202401110010000200000000000000130273                8000000000030502309893Licari S.A.                   000000003414800000000000000000000000000000000000000000000000000000000000000000000000000000000000000000000000000000000000PES00010000001 00000000000000000000000000000000000000000                              000000000000000
202401110010000200000000000000130272                8000000000030502309893Licari S.A.                   000000003414800000000000000000000000000000000000000000000000000000000000000000000000000000000000000000000000000000000000PES00010000001 00000000000000000000000000000000000000000                              000000000000000
202401110010000200000000000000130271                8000000000030502309893Licari S.A.                   000000003414800000000000000000000000000000000000000000000000000000000000000000000000000000000000000000000000000000000000PES00010000001 00000000000000000000000000000000000000000                              000000000000000
202401110010000200000000000000130270                8000000000030502309893Licari S.A.                   000000003414800000000000000000000000000000000000000000000000000000000000000000000000000000000000000000000000000000000000PES00010000001 00000000000000000000000000000000000000000                              000000000000000
202401110010000200000000000000130269                8000000000030502309893Licari S.A.                   000000003414800000000000000000000000000000000000000000000000000000000000000000000000000000000000000000000000000000000000PES00010000001 00000000000000000000000000000000000000000                              000000000000000
202401040010000900000000000000123329                8000000000033682571239Triber S.A.                   000000003334400000000000000000000000000000000000000000000000000000000000000000000000000000000000000000000000000000000000PES00010000001 00000000000000000000000000000000000000000                              000000000000000
202401040010000900000000000000123328                8000000000033682571239Triber S.A.                   000000003311000000000000000000000000000000000000000000000000000000000000000000000000000000000000000000000000000000000000PES00010000001 00000000000000000000000000000000000000000                              000000000000000
202401040010000900000000000000123327                8000000000033682571239Triber S.A.                   000000003332300000000000000000000000000000000000000000000000000000000000000000000000000000000000000000000000000000000000PES00010000001 00000000000000000000000000000000000000000                              000000000000000
202401040010000900000000000000123326                8000000000033682571239Triber S.A.                   000000003266900000000000000000000000000000000000000000000000000000000000000000000000000000000000000000000000000000000000PES00010000001 00000000000000000000000000000000000000000                              000000000000000
202401040010000900000000000000123325                8000000000033682571239Triber S.A.                   000000003314300000000000000000000000000000000000000000000000000000000000000000000000000000000000000000000000000000000000PES00010000001 00000000000000000000000000000000000000000                              000000000000000
202401040010000900000000000000123324                8000000000033682571239Triber S.A.                   000000003380400000000000000000000000000000000000000000000000000000000000000000000000000000000000000000000000000000000000PES00010000001 00000000000000000000000000000000000000000                              000000000000000
202401040010000900000000000000123323                8000000000033682571239Triber S.A.                   000000003273200000000000000000000000000000000000000000000000000000000000000000000000000000000000000000000000000000000000PES00010000001 00000000000000000000000000000000000000000                              000000000000000
202401040010000900000000000000123322                8000000000033682571239Triber S.A.                   000000003319900000000000000000000000000000000000000000000000000000000000000000000000000000000000000000000000000000000000PES00010000001 00000000000000000000000000000000000000000                              000000000000000
202401040010000900000000000000123321                8000000000033682571239Triber S.A.                   000000003327900000000000000000000000000000000000000000000000000000000000000000000000000000000000000000000000000000000000PES00010000001 00000000000000000000000000000000000000000                              000000000000000
202401040010000900000000000000123320                8000000000033682571239Triber S.A.                   000000003312300000000000000000000000000000000000000000000000000000000000000000000000000000000000000000000000000000000000PES00010000001 00000000000000000000000000000000000000000                              000000000000000
202401040010000900000000000000123319                8000000000033682571239Triber S.A.                   000000003307700000000000000000000000000000000000000000000000000000000000000000000000000000000000000000000000000000000000PES00010000001 00000000000000000000000000000000000000000                              000000000000000
202401040010000900000000000000123318                8000000000033682571239Triber S.A.                   000000003330000000000000000000000000000000000000000000000000000000000000000000000000000000000000000000000000000000000000PES00010000001 00000000000000000000000000000000000000000                              000000000000000
202401040010000900000000000000123317                8000000000033682571239Triber S.A.                   000000003362800000000000000000000000000000000000000000000000000000000000000000000000000000000000000000000000000000000000PES00010000001 00000000000000000000000000000000000000000                              000000000000000
202401040010000900000000000000123316                8000000000033682571239Triber S.A.                   000000003313600000000000000000000000000000000000000000000000000000000000000000000000000000000000000000000000000000000000PES00010000001 00000000000000000000000000000000000000000                              000000000000000
202401040010000900000000000000123315                8000000000033682571239Triber S.A.                   000000003320400000000000000000000000000000000000000000000000000000000000000000000000000000000000000000000000000000000000PES00010000001 00000000000000000000000000000000000000000                              000000000000000
202401040010000900000000000000123314                8000000000033682571239Triber S.A.                   000000003273300000000000000000000000000000000000000000000000000000000000000000000000000000000000000000000000000000000000PES00010000001 00000000000000000000000000000000000000000                              000000000000000
202401040010000900000000000000123313                8000000000033682571239Triber S.A.                   000000003344200000000000000000000000000000000000000000000000000000000000000000000000000000000000000000000000000000000000PES00010000001 00000000000000000000000000000000000000000                              000000000000000
202401040010000900000000000000123312                8000000000033682571239Triber S.A.                   000000003149000000000000000000000000000000000000000000000000000000000000000000000000000000000000000000000000000000000000PES00010000001 00000000000000000000000000000000000000000                              000000000000000
202401040010000900000000000000123311                8000000000033682571239Triber S.A.                   000000003361200000000000000000000000000000000000000000000000000000000000000000000000000000000000000000000000000000000000PES00010000001 00000000000000000000000000000000000000000                              000000000000000
202401040010000900000000000000123310                8000000000033682571239Triber S.A.                   000000003247000000000000000000000000000000000000000000000000000000000000000000000000000000000000000000000000000000000000PES00010000001 00000000000000000000000000000000000000000                              000000000000000
202401040010000900000000000000123309                8000000000033682571239Triber S.A.                   000000003400700000000000000000000000000000000000000000000000000000000000000000000000000000000000000000000000000000000000PES00010000001 00000000000000000000000000000000000000000                              000000000000000
202401040010000900000000000000123308                8000000000033682571239Triber S.A.                   000000003330000000000000000000000000000000000000000000000000000000000000000000000000000000000000000000000000000000000000PES00010000001 00000000000000000000000000000000000000000                              000000000000000
202401040010000900000000000000123307                8000000000033682571239Triber S.A.                   000000003306800000000000000000000000000000000000000000000000000000000000000000000000000000000000000000000000000000000000PES00010000001 00000000000000000000000000000000000000000                              000000000000000
202401110010000400000000000000138233                8000000000030618141434Girgenti S.R.L.               000000003389900000000000000000000000000000000000000000000000000000000000000000000000000000000000000000000000000000000000PES00010000001 00000000000000000000000000000000000000000                              000000000000000
202401110010000400000000000000138232                8000000000030618141434Girgenti S.R.L.               000000003488900000000000000000000000000000000000000000000000000000000000000000000000000000000000000000000000000000000000PES00010000001 00000000000000000000000000000000000000000                              000000000000000
202401110010000400000000000000138231                8000000000030618141434Girgenti S.R.L.               000000003444500000000000000000000000000000000000000000000000000000000000000000000000000000000000000000000000000000000000PES00010000001 00000000000000000000000000000000000000000                              000000000000000
202401110010000400000000000000138230                8000000000030618141434Girgenti S.R.L.               000000003395900000000000000000000000000000000000000000000000000000000000000000000000000000000000000000000000000000000000PES00010000001 00000000000000000000000000000000000000000                              000000000000000
202401110010000400000000000000138229                8000000000030618141434Girgenti S.R.L.               000000003402200000000000000000000000000000000000000000000000000000000000000000000000000000000000000000000000000000000000PES00010000001 00000000000000000000000000000000000000000                              000000000000000
202401110010000400000000000000138228                8000000000030618141434Girgenti S.R.L.               000000003431100000000000000000000000000000000000000000000000000000000000000000000000000000000000000000000000000000000000PES00010000001 00000000000000000000000000000000000000000                              000000000000000
202401110010000400000000000000138227                8000000000030618141434Girgenti S.R.L.               000000003515000000000000000000000000000000000000000000000000000000000000000000000000000000000000000000000000000000000000PES00010000001 00000000000000000000000000000000000000000                              000000000000000
202401110010000400000000000000138226                8000000000030618141434Girgenti S.R.L.               000000003444300000000000000000000000000000000000000000000000000000000000000000000000000000000000000000000000000000000000PES00010000001 00000000000000000000000000000000000000000                              000000000000000
202401110010000400000000000000138225                8000000000030618141434Girgenti S.R.L.               000000003500000000000000000000000000000000000000000000000000000000000000000000000000000000000000000000000000000000000000PES00010000001 00000000000000000000000000000000000000000                              000000000000000
202401190010000100000000000000132707                8000000000033709095949Hierro Total S.R.L.           000000003365100000000000000000000000000000000000000000000000000000000000000000000000000000000000000000000000000000000000PES00010000001 00000000000000000000000000000000000000000                              000000000000000
202401190010000100000000000000132706                8000000000033709095949Hierro Total S.R.L.           000000003436500000000000000000000000000000000000000000000000000000000000000000000000000000000000000000000000000000000000PES00010000001 00000000000000000000000000000000000000000                              000000000000000
202401190010000100000000000000132705                8000000000033709095949Hierro Total S.R.L.           000000003390900000000000000000000000000000000000000000000000000000000000000000000000000000000000000000000000000000000000PES00010000001 00000000000000000000000000000000000000000                              000000000000000
202401190010000100000000000000132704                8000000000033709095949Hierro Total S.R.L.           000000003459800000000000000000000000000000000000000000000000000000000000000000000000000000000000000000000000000000000000PES00010000001 00000000000000000000000000000000000000000                              000000000000000
202401190010000100000000000000132703                8000000000033709095949Hierro Total S.R.L.           000000003494200000000000000000000000000000000000000000000000000000000000000000000000000000000000000000000000000000000000PES00010000001 00000000000000000000000000000000000000000                              000000000000000
202401190010000100000000000000132702                8000000000033709095949Hierro Total S.R.L.           000000003503200000000000000000000000000000000000000000000000000000000000000000000000000000000000000000000000000000000000PES00010000001 00000000000000000000000000000000000000000                              000000000000000
202401190010000100000000000000132701                8000000000033709095949Hierro Total S.R.L.           000000003396700000000000000000000000000000000000000000000000000000000000000000000000000000000000000000000000000000000000PES00010000001 00000000000000000000000000000000000000000                              000000000000000
202401190010000100000000000000132700                8000000000033709095949Hierro Total S.R.L.           000000003459800000000000000000000000000000000000000000000000000000000000000000000000000000000000000000000000000000000000PES00010000001 00000000000000000000000000000000000000000                              000000000000000
202401190010000100000000000000132699                8000000000033709095949Hierro Total S.R.L.           000000003494200000000000000000000000000000000000000000000000000000000000000000000000000000000000000000000000000000000000PES00010000001 00000000000000000000000000000000000000000                              000000000000000
202401190010000100000000000000132698                8000000000033709095949Hierro Total S.R.L.           000000003354300000000000000000000000000000000000000000000000000000000000000000000000000000000000000000000000000000000000PES00010000001 00000000000000000000000000000000000000000                              000000000000000
202401190010000100000000000000132697                8000000000033709095949Hierro Total S.R.L.           000000003399500000000000000000000000000000000000000000000000000000000000000000000000000000000000000000000000000000000000PES00010000001 00000000000000000000000000000000000000000                              000000000000000
202401190010000100000000000000132696                8000000000033709095949Hierro Total S.R.L.           000000003278400000000000000000000000000000000000000000000000000000000000000000000000000000000000000000000000000000000000PES00010000001 00000000000000000000000000000000000000000                              000000000000000
202401190010000100000000000000132695                8000000000033709095949Hierro Total S.R.L.           000000003405800000000000000000000000000000000000000000000000000000000000000000000000000000000000000000000000000000000000PES00010000001 00000000000000000000000000000000000000000                              000000000000000
202401040010000900000000000000123306                8000000000033682571239Triber S.A.                   000000003290000000000000000000000000000000000000000000000000000000000000000000000000000000000000000000000000000000000000PES00010000001 00000000000000000000000000000000000000000                              000000000000000
202401040010000900000000000000123305                8000000000033682571239Triber S.A.                   000000003364400000000000000000000000000000000000000000000000000000000000000000000000000000000000000000000000000000000000PES00010000001 00000000000000000000000000000000000000000                              000000000000000
202401040010000900000000000000123304                8000000000033682571239Triber S.A.                   000000003291200000000000000000000000000000000000000000000000000000000000000000000000000000000000000000000000000000000000PES00010000001 00000000000000000000000000000000000000000                              000000000000000
202401040010000900000000000000123303                8000000000033682571239Triber S.A.                   000000003275400000000000000000000000000000000000000000000000000000000000000000000000000000000000000000000000000000000000PES00010000001 00000000000000000000000000000000000000000                              000000000000000
202401040010000900000000000000123302                8000000000033682571239Triber S.A.                   000000003350000000000000000000000000000000000000000000000000000000000000000000000000000000000000000000000000000000000000PES00010000001 00000000000000000000000000000000000000000                              000000000000000
202401040010000900000000000000123301                8000000000033682571239Triber S.A.                   000000003377300000000000000000000000000000000000000000000000000000000000000000000000000000000000000000000000000000000000PES00010000001 00000000000000000000000000000000000000000                              000000000000000
202401040010000900000000000000123300                8000000000033682571239Triber S.A.                   000000003433200000000000000000000000000000000000000000000000000000000000000000000000000000000000000000000000000000000000PES00010000001 00000000000000000000000000000000000000000                              000000000000000
202401040010000900000000000000123299                8000000000033682571239Triber S.A.                   000000003255800000000000000000000000000000000000000000000000000000000000000000000000000000000000000000000000000000000000PES00010000001 00000000000000000000000000000000000000000                              000000000000000
202401040010000900000000000000123298                8000000000033682571239Triber S.A.                   000000003218100000000000000000000000000000000000000000000000000000000000000000000000000000000000000000000000000000000000PES00010000001 00000000000000000000000000000000000000000                              000000000000000
202401040010000900000000000000123297                8000000000033682571239Triber S.A.                   000000003277800000000000000000000000000000000000000000000000000000000000000000000000000000000000000000000000000000000000PES00010000001 00000000000000000000000000000000000000000                              000000000000000
202401040010000900000000000000123296                8000000000033682571239Triber S.A.                   000000003412500000000000000000000000000000000000000000000000000000000000000000000000000000000000000000000000000000000000PES00010000001 00000000000000000000000000000000000000000                              000000000000000
202401040010000900000000000000123295                8000000000033682571239Triber S.A.                   000000003338100000000000000000000000000000000000000000000000000000000000000000000000000000000000000000000000000000000000PES00010000001 00000000000000000000000000000000000000000                              000000000000000
202401040010000900000000000000123294                8000000000033682571239Triber S.A.                   000000001671800000000000000000000000000000000000000000000000000000000000000000000000000000000000000000000000000000000000PES00010000001 00000000000000000000000000000000000000000                              000000000000000
202401040010000900000000000000123293                8000000000033682571239Triber S.A.                   000000003298700000000000000000000000000000000000000000000000000000000000000000000000000000000000000000000000000000000000PES00010000001 00000000000000000000000000000000000000000                              000000000000000
202401040010000900000000000000123292                8000000000033682571239Triber S.A.                   000000003230400000000000000000000000000000000000000000000000000000000000000000000000000000000000000000000000000000000000PES00010000001 00000000000000000000000000000000000000000                              000000000000000
202401040010000900000000000000123291                8000000000033682571239Triber S.A.                   000000003310700000000000000000000000000000000000000000000000000000000000000000000000000000000000000000000000000000000000PES00010000001 00000000000000000000000000000000000000000                              000000000000000
202401040010000900000000000000123290                8000000000033682571239Triber S.A.                   000000003289600000000000000000000000000000000000000000000000000000000000000000000000000000000000000000000000000000000000PES00010000001 00000000000000000000000000000000000000000                              000000000000000
202401040010000900000000000000123289                8000000000033682571239Triber S.A.                   000000003311300000000000000000000000000000000000000000000000000000000000000000000000000000000000000000000000000000000000PES00010000001 00000000000000000000000000000000000000000                              000000000000000
202401040010000900000000000000123288                8000000000033682571239Triber S.A.                   000000003303000000000000000000000000000000000000000000000000000000000000000000000000000000000000000000000000000000000000PES00010000001 00000000000000000000000000000000000000000                              000000000000000
202401040010000100000000000000133292                8000000000030686489325Electricidad Arev S.R.L.      000000003492900000000000000000000000000000000000000000000000000000000000000000000000000000000000000000000000000000000000PES00010000001 00000000000000000000000000000000000000000                              000000000000000
202401040010000100000000000000133291                8000000000030686489325Electricidad Arev S.R.L.      000000003491000000000000000000000000000000000000000000000000000000000000000000000000000000000000000000000000000000000000PES00010000001 00000000000000000000000000000000000000000                              000000000000000
202401040010000100000000000000133290                8000000000030686489325Electricidad Arev S.R.L.      000000003491000000000000000000000000000000000000000000000000000000000000000000000000000000000000000000000000000000000000PES00010000001 00000000000000000000000000000000000000000                              000000000000000
202401190010000100000000000000132694                8000000000033709095949Hierro Total S.R.L.           000000003352800000000000000000000000000000000000000000000000000000000000000000000000000000000000000000000000000000000000PES00010000001 00000000000000000000000000000000000000000                              000000000000000
202401190010000100000000000000132693                8000000000033709095949Hierro Total S.R.L.           000000003404200000000000000000000000000000000000000000000000000000000000000000000000000000000000000000000000000000000000PES00010000001 00000000000000000000000000000000000000000                              000000000000000
202401190010000100000000000000132692                8000000000033709095949Hierro Total S.R.L.           000000003271600000000000000000000000000000000000000000000000000000000000000000000000000000000000000000000000000000000000PES00010000001 00000000000000000000000000000000000000000                              000000000000000
202401190010000100000000000000132691                8000000000033709095949Hierro Total S.R.L.           000000003458000000000000000000000000000000000000000000000000000000000000000000000000000000000000000000000000000000000000PES00010000001 00000000000000000000000000000000000000000                              000000000000000
202401190010000100000000000000132690                8000000000033709095949Hierro Total S.R.L.           000000003350400000000000000000000000000000000000000000000000000000000000000000000000000000000000000000000000000000000000PES00010000001 00000000000000000000000000000000000000000                              000000000000000
202401190010000100000000000000132689                8000000000033709095949Hierro Total S.R.L.           000000003366800000000000000000000000000000000000000000000000000000000000000000000000000000000000000000000000000000000000PES00010000001 00000000000000000000000000000000000000000                              000000000000000
202401190010000100000000000000132688                8000000000033709095949Hierro Total S.R.L.           000000003438200000000000000000000000000000000000000000000000000000000000000000000000000000000000000000000000000000000000PES00010000001 00000000000000000000000000000000000000000                              000000000000000
202401190010000100000000000000132687                8000000000033709095949Hierro Total S.R.L.           000000003418300000000000000000000000000000000000000000000000000000000000000000000000000000000000000000000000000000000000PES00010000001 00000000000000000000000000000000000000000                              000000000000000
202401190010000100000000000000132686                8000000000033709095949Hierro Total S.R.L.           000000003346700000000000000000000000000000000000000000000000000000000000000000000000000000000000000000000000000000000000PES00010000001 00000000000000000000000000000000000000000                              000000000000000
202401190010000100000000000000132685                8000000000033709095949Hierro Total S.R.L.           000000003352100000000000000000000000000000000000000000000000000000000000000000000000000000000000000000000000000000000000PES00010000001 00000000000000000000000000000000000000000                              000000000000000
202401190010000100000000000000132684                8000000000033709095949Hierro Total S.R.L.           000000003437000000000000000000000000000000000000000000000000000000000000000000000000000000000000000000000000000000000000PES00010000001 00000000000000000000000000000000000000000                              000000000000000
202401190010000100000000000000132683                8000000000033709095949Hierro Total S.R.L.           000000003462500000000000000000000000000000000000000000000000000000000000000000000000000000000000000000000000000000000000PES00010000001 00000000000000000000000000000000000000000                              000000000000000
202401190010000100000000000000132682                8000000000033709095949Hierro Total S.R.L.           000000003361300000000000000000000000000000000000000000000000000000000000000000000000000000000000000000000000000000000000PES00010000001 00000000000000000000000000000000000000000                              000000000000000
202401190010000100000000000000132681                8000000000033709095949Hierro Total S.R.L.           000000003470300000000000000000000000000000000000000000000000000000000000000000000000000000000000000000000000000000000000PES00010000001 00000000000000000000000000000000000000000                              000000000000000
202401190010000100000000000000132680                8000000000033709095949Hierro Total S.R.L.           000000003451000000000000000000000000000000000000000000000000000000000000000000000000000000000000000000000000000000000000PES00010000001 00000000000000000000000000000000000000000                              000000000000000
202401190010000100000000000000132679                8000000000033709095949Hierro Total S.R.L.           000000003384400000000000000000000000000000000000000000000000000000000000000000000000000000000000000000000000000000000000PES00010000001 00000000000000000000000000000000000000000                              000000000000000
202401190010000100000000000000132678                8000000000033709095949Hierro Total S.R.L.           000000003442800000000000000000000000000000000000000000000000000000000000000000000000000000000000000000000000000000000000PES00010000001 00000000000000000000000000000000000000000                              000000000000000
202401190010000100000000000000132677                8000000000033709095949Hierro Total S.R.L.           000000003453100000000000000000000000000000000000000000000000000000000000000000000000000000000000000000000000000000000000PES00010000001 00000000000000000000000000000000000000000                              000000000000000
202401190010000100000000000000132676                8000000000033709095949Hierro Total S.R.L.           000000003356700000000000000000000000000000000000000000000000000000000000000000000000000000000000000000000000000000000000PES00010000001 00000000000000000000000000000000000000000                              000000000000000
202401190010000100000000000000132675                8000000000033709095949Hierro Total S.R.L.           000000003349000000000000000000000000000000000000000000000000000000000000000000000000000000000000000000000000000000000000PES00010000001 00000000000000000000000000000000000000000                              000000000000000
202401190010000100000000000000132674                8000000000033709095949Hierro Total S.R.L.           000000003326800000000000000000000000000000000000000000000000000000000000000000000000000000000000000000000000000000000000PES00010000001 00000000000000000000000000000000000000000                              000000000000000
202401190010000100000000000000132673                8000000000033709095949Hierro Total S.R.L.           000000003146800000000000000000000000000000000000000000000000000000000000000000000000000000000000000000000000000000000000PES00010000001 00000000000000000000000000000000000000000                              000000000000000
202401040010000100000000000000133289                8000000000030686489325Electricidad Arev S.R.L.      000000003491000000000000000000000000000000000000000000000000000000000000000000000000000000000000000000000000000000000000PES00010000001 00000000000000000000000000000000000000000                              000000000000000
202401040010000100000000000000133288                8000000000030686489325Electricidad Arev S.R.L.      000000003491000000000000000000000000000000000000000000000000000000000000000000000000000000000000000000000000000000000000PES00010000001 00000000000000000000000000000000000000000                              000000000000000
202401040010000100000000000000133287                8000000000030686489325Electricidad Arev S.R.L.      000000003491000000000000000000000000000000000000000000000000000000000000000000000000000000000000000000000000000000000000PES00010000001 00000000000000000000000000000000000000000                              000000000000000
202401040010000100000000000000133286                8000000000030686489325Electricidad Arev S.R.L.      000000003491000000000000000000000000000000000000000000000000000000000000000000000000000000000000000000000000000000000000PES00010000001 00000000000000000000000000000000000000000                              000000000000000
202401040010000100000000000000133285                8000000000030686489325Electricidad Arev S.R.L.      000000003491000000000000000000000000000000000000000000000000000000000000000000000000000000000000000000000000000000000000PES00010000001 00000000000000000000000000000000000000000                              000000000000000
202401040010000100000000000000133284                8000000000030686489325Electricidad Arev S.R.L.      000000003491000000000000000000000000000000000000000000000000000000000000000000000000000000000000000000000000000000000000PES00010000001 00000000000000000000000000000000000000000                              000000000000000
202401040010000100000000000000133283                8000000000030686489325Electricidad Arev S.R.L.      000000003491000000000000000000000000000000000000000000000000000000000000000000000000000000000000000000000000000000000000PES00010000001 00000000000000000000000000000000000000000                              000000000000000
202401040010000100000000000000133282                8000000000030686489325Electricidad Arev S.R.L.      000000003491000000000000000000000000000000000000000000000000000000000000000000000000000000000000000000000000000000000000PES00010000001 00000000000000000000000000000000000000000                              000000000000000
202401040010000100000000000000133281                8000000000030686489325Electricidad Arev S.R.L.      000000003491000000000000000000000000000000000000000000000000000000000000000000000000000000000000000000000000000000000000PES00010000001 00000000000000000000000000000000000000000                              000000000000000
202401040010000100000000000000133280                8000000000030686489325Electricidad Arev S.R.L.      000000003491000000000000000000000000000000000000000000000000000000000000000000000000000000000000000000000000000000000000PES00010000001 00000000000000000000000000000000000000000                              000000000000000
202401040010000100000000000000133279                8000000000030686489325Electricidad Arev S.R.L.      000000003491000000000000000000000000000000000000000000000000000000000000000000000000000000000000000000000000000000000000PES00010000001 00000000000000000000000000000000000000000                              000000000000000
202401040010000100000000000000133278                8000000000030686489325Electricidad Arev S.R.L.      000000003491000000000000000000000000000000000000000000000000000000000000000000000000000000000000000000000000000000000000PES00010000001 00000000000000000000000000000000000000000                              000000000000000
202401040010000100000000000000133277                8000000000030686489325Electricidad Arev S.R.L.      000000003491000000000000000000000000000000000000000000000000000000000000000000000000000000000000000000000000000000000000PES00010000001 00000000000000000000000000000000000000000                              000000000000000
202401040010000100000000000000133276                8000000000030686489325Electricidad Arev S.R.L.      000000003491000000000000000000000000000000000000000000000000000000000000000000000000000000000000000000000000000000000000PES00010000001 00000000000000000000000000000000000000000                              000000000000000
202401040010000100000000000000133275                8000000000030686489325Electricidad Arev S.R.L.      000000003491000000000000000000000000000000000000000000000000000000000000000000000000000000000000000000000000000000000000PES00010000001 00000000000000000000000000000000000000000                              000000000000000
202401040010000100000000000000133274                8000000000030686489325Electricidad Arev S.R.L.      000000003491000000000000000000000000000000000000000000000000000000000000000000000000000000000000000000000000000000000000PES00010000001 00000000000000000000000000000000000000000                              000000000000000
202401040010000100000000000000133273                8000000000030686489325Electricidad Arev S.R.L.      000000003491000000000000000000000000000000000000000000000000000000000000000000000000000000000000000000000000000000000000PES00010000001 00000000000000000000000000000000000000000                              000000000000000
202401040010000100000000000000133272                8000000000030686489325Electricidad Arev S.R.L.      000000003491000000000000000000000000000000000000000000000000000000000000000000000000000000000000000000000000000000000000PES00010000001 00000000000000000000000000000000000000000                              000000000000000
202401040010000100000000000000133271                8000000000030686489325Electricidad Arev S.R.L.      000000003491000000000000000000000000000000000000000000000000000000000000000000000000000000000000000000000000000000000000PES00010000001 00000000000000000000000000000000000000000                              000000000000000
202401040010000100000000000000133270                8000000000030686489325Electricidad Arev S.R.L.      000000003491000000000000000000000000000000000000000000000000000000000000000000000000000000000000000000000000000000000000PES00010000001 00000000000000000000000000000000000000000                              000000000000000
202401040010000100000000000000133269                8000000000030686489325Electricidad Arev S.R.L.      000000003491000000000000000000000000000000000000000000000000000000000000000000000000000000000000000000000000000000000000PES00010000001 00000000000000000000000000000000000000000                              000000000000000
202401040010000100000000000000133268                8000000000030686489325Electricidad Arev S.R.L.      000000003491000000000000000000000000000000000000000000000000000000000000000000000000000000000000000000000000000000000000PES00010000001 00000000000000000000000000000000000000000                              000000000000000
202401190010000100000000000000132672                8000000000033709095949Hierro Total S.R.L.           000000003486400000000000000000000000000000000000000000000000000000000000000000000000000000000000000000000000000000000000PES00010000001 00000000000000000000000000000000000000000                              000000000000000
202401190010000100000000000000132671                8000000000033709095949Hierro Total S.R.L.           000000003421200000000000000000000000000000000000000000000000000000000000000000000000000000000000000000000000000000000000PES00010000001 00000000000000000000000000000000000000000                              000000000000000
202401190010000100000000000000132670                8000000000033709095949Hierro Total S.R.L.           000000003390900000000000000000000000000000000000000000000000000000000000000000000000000000000000000000000000000000000000PES00010000001 00000000000000000000000000000000000000000                              000000000000000
202401190010000100000000000000132669                8000000000033709095949Hierro Total S.R.L.           000000003486800000000000000000000000000000000000000000000000000000000000000000000000000000000000000000000000000000000000PES00010000001 00000000000000000000000000000000000000000                              000000000000000
202401190010000100000000000000132668                8000000000033709095949Hierro Total S.R.L.           000000003489000000000000000000000000000000000000000000000000000000000000000000000000000000000000000000000000000000000000PES00010000001 00000000000000000000000000000000000000000                              000000000000000
202401190010000100000000000000132667                8000000000033709095949Hierro Total S.R.L.           000000003374500000000000000000000000000000000000000000000000000000000000000000000000000000000000000000000000000000000000PES00010000001 00000000000000000000000000000000000000000                              000000000000000
202401190010000300000000000000189829                8000000000030614476660Acima R S.A.                  000000003343400000000000000000000000000000000000000000000000000000000000000000000000000000000000000000000000000000000000PES00010000001 00000000000000000000000000000000000000000                              000000000000000
202401190010000300000000000000189828                8000000000030614476660Acima R S.A.                  000000003452400000000000000000000000000000000000000000000000000000000000000000000000000000000000000000000000000000000000PES00010000001 00000000000000000000000000000000000000000                              000000000000000
202401190010000300000000000000189827                8000000000030614476660Acima R S.A.                  000000003414900000000000000000000000000000000000000000000000000000000000000000000000000000000000000000000000000000000000PES00010000001 00000000000000000000000000000000000000000                              000000000000000
202401190010000300000000000000189826                8000000000030614476660Acima R S.A.                  000000003456000000000000000000000000000000000000000000000000000000000000000000000000000000000000000000000000000000000000PES00010000001 00000000000000000000000000000000000000000                              000000000000000
202401190010000300000000000000189825                8000000000030614476660Acima R S.A.                  000000003436300000000000000000000000000000000000000000000000000000000000000000000000000000000000000000000000000000000000PES00010000001 00000000000000000000000000000000000000000                              000000000000000
202401190010000300000000000000189824                8000000000030614476660Acima R S.A.                  000000003330500000000000000000000000000000000000000000000000000000000000000000000000000000000000000000000000000000000000PES00010000001 00000000000000000000000000000000000000000                              000000000000000
202401190010000300000000000000189823                8000000000030614476660Acima R S.A.                  000000003327700000000000000000000000000000000000000000000000000000000000000000000000000000000000000000000000000000000000PES00010000001 00000000000000000000000000000000000000000                              000000000000000
202401190010000300000000000000189822                8000000000030614476660Acima R S.A.                  000000003402000000000000000000000000000000000000000000000000000000000000000000000000000000000000000000000000000000000000PES00010000001 00000000000000000000000000000000000000000                              000000000000000
202401190010000300000000000000189821                8000000000030614476660Acima R S.A.                  000000003454300000000000000000000000000000000000000000000000000000000000000000000000000000000000000000000000000000000000PES00010000001 00000000000000000000000000000000000000000                              000000000000000
202401190010000300000000000000189820                8000000000030614476660Acima R S.A.                  000000003354800000000000000000000000000000000000000000000000000000000000000000000000000000000000000000000000000000000000PES00010000001 00000000000000000000000000000000000000000                              000000000000000
202401190010000300000000000000189819                8000000000030614476660Acima R S.A.                  000000003421100000000000000000000000000000000000000000000000000000000000000000000000000000000000000000000000000000000000PES00010000001 00000000000000000000000000000000000000000                              000000000000000
202401190010000300000000000000189818                8000000000030614476660Acima R S.A.                  000000003405400000000000000000000000000000000000000000000000000000000000000000000000000000000000000000000000000000000000PES00010000001 00000000000000000000000000000000000000000                              000000000000000
202401190010000300000000000000189817                8000000000030614476660Acima R S.A.                  000000003419400000000000000000000000000000000000000000000000000000000000000000000000000000000000000000000000000000000000PES00010000001 00000000000000000000000000000000000000000                              000000000000000
202401190010000300000000000000189816                8000000000030614476660Acima R S.A.                  000000003274400000000000000000000000000000000000000000000000000000000000000000000000000000000000000000000000000000000000PES00010000001 00000000000000000000000000000000000000000                              000000000000000
202401190010000300000000000000189815                8000000000030614476660Acima R S.A.                  000000003281600000000000000000000000000000000000000000000000000000000000000000000000000000000000000000000000000000000000PES00010000001 00000000000000000000000000000000000000000                              000000000000000
202401040010000100000000000000133267                8000000000030686489325Electricidad Arev S.R.L.      000000003491000000000000000000000000000000000000000000000000000000000000000000000000000000000000000000000000000000000000PES00010000001 00000000000000000000000000000000000000000                              000000000000000
202401040010000100000000000000133266                8000000000030686489325Electricidad Arev S.R.L.      000000003491000000000000000000000000000000000000000000000000000000000000000000000000000000000000000000000000000000000000PES00010000001 00000000000000000000000000000000000000000                              000000000000000
202401040010000100000000000000133265                8000000000030686489325Electricidad Arev S.R.L.      000000003491000000000000000000000000000000000000000000000000000000000000000000000000000000000000000000000000000000000000PES00010000001 00000000000000000000000000000000000000000                              000000000000000
202401040010000100000000000000133264                8000000000030686489325Electricidad Arev S.R.L.      000000003491000000000000000000000000000000000000000000000000000000000000000000000000000000000000000000000000000000000000PES00010000001 00000000000000000000000000000000000000000                              000000000000000
202401040010000100000000000000133263                8000000000030686489325Electricidad Arev S.R.L.      000000003491000000000000000000000000000000000000000000000000000000000000000000000000000000000000000000000000000000000000PES00010000001 00000000000000000000000000000000000000000                              000000000000000
202401040010000100000000000000133262                8000000000030686489325Electricidad Arev S.R.L.      000000003491000000000000000000000000000000000000000000000000000000000000000000000000000000000000000000000000000000000000PES00010000001 00000000000000000000000000000000000000000                              000000000000000
202401040010000100000000000000133261                8000000000030686489325Electricidad Arev S.R.L.      000000003491000000000000000000000000000000000000000000000000000000000000000000000000000000000000000000000000000000000000PES00010000001 00000000000000000000000000000000000000000                              000000000000000
202401040010000100000000000000133260                8000000000030686489325Electricidad Arev S.R.L.      000000003491000000000000000000000000000000000000000000000000000000000000000000000000000000000000000000000000000000000000PES00010000001 00000000000000000000000000000000000000000                              000000000000000
202401040010000100000000000000133259                8000000000030686489325Electricidad Arev S.R.L.      000000003491000000000000000000000000000000000000000000000000000000000000000000000000000000000000000000000000000000000000PES00010000001 00000000000000000000000000000000000000000                              000000000000000
202401040010000100000000000000133258                8000000000030686489325Electricidad Arev S.R.L.      000000003491000000000000000000000000000000000000000000000000000000000000000000000000000000000000000000000000000000000000PES00010000001 00000000000000000000000000000000000000000                              000000000000000
202401040010000100000000000000133257                8000000000030686489325Electricidad Arev S.R.L.      000000003491000000000000000000000000000000000000000000000000000000000000000000000000000000000000000000000000000000000000PES00010000001 00000000000000000000000000000000000000000                              000000000000000
202401040010000100000000000000133256                8000000000030686489325Electricidad Arev S.R.L.      000000003491000000000000000000000000000000000000000000000000000000000000000000000000000000000000000000000000000000000000PES00010000001 00000000000000000000000000000000000000000                              000000000000000
202401040010000100000000000000133255                8000000000030686489325Electricidad Arev S.R.L.      000000003491000000000000000000000000000000000000000000000000000000000000000000000000000000000000000000000000000000000000PES00010000001 00000000000000000000000000000000000000000                              000000000000000
202401040010000100000000000000156273                8000000000030663116874Celentano Jorge y Delatorre P.000000003334800000000000000000000000000000000000000000000000000000000000000000000000000000000000000000000000000000000000PES00010000001 00000000000000000000000000000000000000000                              000000000000000
202401040010000100000000000000156272                8000000000030663116874Celentano Jorge y Delatorre P.000000003253500000000000000000000000000000000000000000000000000000000000000000000000000000000000000000000000000000000000PES00010000001 00000000000000000000000000000000000000000                              000000000000000
202401040010000100000000000000156271                8000000000030663116874Celentano Jorge y Delatorre P.000000003319200000000000000000000000000000000000000000000000000000000000000000000000000000000000000000000000000000000000PES00010000001 00000000000000000000000000000000000000000                              000000000000000
202401040010000100000000000000156270                8000000000030663116874Celentano Jorge y Delatorre P.000000003346700000000000000000000000000000000000000000000000000000000000000000000000000000000000000000000000000000000000PES00010000001 00000000000000000000000000000000000000000                              000000000000000
202401040010000100000000000000156269                8000000000030663116874Celentano Jorge y Delatorre P.000000003474100000000000000000000000000000000000000000000000000000000000000000000000000000000000000000000000000000000000PES00010000001 00000000000000000000000000000000000000000                              000000000000000
202401040010000100000000000000156268                8000000000030663116874Celentano Jorge y Delatorre P.000000003474800000000000000000000000000000000000000000000000000000000000000000000000000000000000000000000000000000000000PES00010000001 00000000000000000000000000000000000000000                              000000000000000
202401040010000100000000000000156267                8000000000030663116874Celentano Jorge y Delatorre P.000000003325600000000000000000000000000000000000000000000000000000000000000000000000000000000000000000000000000000000000PES00010000001 00000000000000000000000000000000000000000                              000000000000000
202401040010000100000000000000156266                8000000000030663116874Celentano Jorge y Delatorre P.000000003341000000000000000000000000000000000000000000000000000000000000000000000000000000000000000000000000000000000000PES00010000001 00000000000000000000000000000000000000000                              000000000000000
202401040010000100000000000000156265                8000000000030663116874Celentano Jorge y Delatorre P.000000003152500000000000000000000000000000000000000000000000000000000000000000000000000000000000000000000000000000000000PES00010000001 00000000000000000000000000000000000000000                              000000000000000
202401190010000300000000000000189814                8000000000030614476660Acima R S.A.                  000000003423700000000000000000000000000000000000000000000000000000000000000000000000000000000000000000000000000000000000PES00010000001 00000000000000000000000000000000000000000                              000000000000000
202401190010000300000000000000189813                8000000000030614476660Acima R S.A.                  000000003321100000000000000000000000000000000000000000000000000000000000000000000000000000000000000000000000000000000000PES00010000001 00000000000000000000000000000000000000000                              000000000000000
202401190010000300000000000000189812                8000000000030614476660Acima R S.A.                  000000003468600000000000000000000000000000000000000000000000000000000000000000000000000000000000000000000000000000000000PES00010000001 00000000000000000000000000000000000000000                              000000000000000
202401190010000300000000000000189811                8000000000030614476660Acima R S.A.                  000000002899300000000000000000000000000000000000000000000000000000000000000000000000000000000000000000000000000000000000PES00010000001 00000000000000000000000000000000000000000                              000000000000000
202401190010000300000000000000189810                8000000000030614476660Acima R S.A.                  000000003466400000000000000000000000000000000000000000000000000000000000000000000000000000000000000000000000000000000000PES00010000001 00000000000000000000000000000000000000000                              000000000000000
202401190010000300000000000000189809                8000000000030614476660Acima R S.A.                  000000003508000000000000000000000000000000000000000000000000000000000000000000000000000000000000000000000000000000000000PES00010000001 00000000000000000000000000000000000000000                              000000000000000
202401190010000300000000000000189808                8000000000030614476660Acima R S.A.                  000000003475300000000000000000000000000000000000000000000000000000000000000000000000000000000000000000000000000000000000PES00010000001 00000000000000000000000000000000000000000                              000000000000000
202401190010000300000000000000189807                8000000000030614476660Acima R S.A.                  000000003384400000000000000000000000000000000000000000000000000000000000000000000000000000000000000000000000000000000000PES00010000001 00000000000000000000000000000000000000000                              000000000000000
202401190010000300000000000000189806                8000000000030614476660Acima R S.A.                  000000003417700000000000000000000000000000000000000000000000000000000000000000000000000000000000000000000000000000000000PES00010000001 00000000000000000000000000000000000000000                              000000000000000
202401190010000300000000000000189805                8000000000030614476660Acima R S.A.                  000000003290800000000000000000000000000000000000000000000000000000000000000000000000000000000000000000000000000000000000PES00010000001 00000000000000000000000000000000000000000                              000000000000000
202401190010000300000000000000189804                8000000000030614476660Acima R S.A.                  000000003475300000000000000000000000000000000000000000000000000000000000000000000000000000000000000000000000000000000000PES00010000001 00000000000000000000000000000000000000000                              000000000000000
202401190010000300000000000000189803                8000000000030614476660Acima R S.A.                  000000003312300000000000000000000000000000000000000000000000000000000000000000000000000000000000000000000000000000000000PES00010000001 00000000000000000000000000000000000000000                              000000000000000
202401190010000300000000000000189802                8000000000030614476660Acima R S.A.                  000000003495600000000000000000000000000000000000000000000000000000000000000000000000000000000000000000000000000000000000PES00010000001 00000000000000000000000000000000000000000                              000000000000000
202401190010000300000000000000189801                8000000000030614476660Acima R S.A.                  000000003282700000000000000000000000000000000000000000000000000000000000000000000000000000000000000000000000000000000000PES00010000001 00000000000000000000000000000000000000000                              000000000000000
202401190010000300000000000000189800                8000000000030614476660Acima R S.A.                  000000003500600000000000000000000000000000000000000000000000000000000000000000000000000000000000000000000000000000000000PES00010000001 00000000000000000000000000000000000000000                              000000000000000
202401190010000300000000000000189799                8000000000030614476660Acima R S.A.                  000000003484000000000000000000000000000000000000000000000000000000000000000000000000000000000000000000000000000000000000PES00010000001 00000000000000000000000000000000000000000                              000000000000000
202401190010000300000000000000189798                8000000000030614476660Acima R S.A.                  000000003368200000000000000000000000000000000000000000000000000000000000000000000000000000000000000000000000000000000000PES00010000001 00000000000000000000000000000000000000000                              000000000000000
202401190010000300000000000000189797                8000000000030614476660Acima R S.A.                  000000003353000000000000000000000000000000000000000000000000000000000000000000000000000000000000000000000000000000000000PES00010000001 00000000000000000000000000000000000000000                              000000000000000
202401190010000300000000000000189796                8000000000030614476660Acima R S.A.                  000000003469500000000000000000000000000000000000000000000000000000000000000000000000000000000000000000000000000000000000PES00010000001 00000000000000000000000000000000000000000                              000000000000000
202401190010000300000000000000189795                8000000000030614476660Acima R S.A.                  000000003424900000000000000000000000000000000000000000000000000000000000000000000000000000000000000000000000000000000000PES00010000001 00000000000000000000000000000000000000000                              000000000000000
202401190010000300000000000000189794                8000000000030614476660Acima R S.A.                  000000003448400000000000000000000000000000000000000000000000000000000000000000000000000000000000000000000000000000000000PES00010000001 00000000000000000000000000000000000000000                              000000000000000
202401190010000300000000000000189793                8000000000030614476660Acima R S.A.                  000000003475600000000000000000000000000000000000000000000000000000000000000000000000000000000000000000000000000000000000PES00010000001 00000000000000000000000000000000000000000                              000000000000000
202401240010001500000000000000002830                8000000000033714355789Mateo Torres Maderas SA       000000005940000000000000000000000000000000000000000000000000000000000000000000000000000000000000000000000000000000000000PES00010000001 00000000000000000000000000000000000000000                              000000000000000
202401020010000300000000000000067896                8000000000030586753912Ing Oscar A Bonelli SA        000000001073100000000000000000000000000000000000000000000000000000000000000000000000000000000000000000000000000000000000PES00010000001 00000000000000000000000000000000000000000                              000000000000000
202401020110000100000000000000000154                8000000000027335084549Garcia Daiana Lujan           000000001550000000000000000000000000000000000000000000000000000000000000000000000000000000000000000000000000000000000000PES00010000000 00000000000000000000000000000000000000000                              000000000000000
202312210010000900000000000000002268                8000000000030562033161Julio S Gatti y Cia SRL       000000005044300000000000176645000000000000000000000000000000000000000000000000000000000000000000000000000000000000000000PES00010000001 00000000000000000000000000000000000000000                              000000000000000
202401080010000300000000000000000363                8000000000030711952132La Martina                    000000009900000000000000000000000000000000000000000000000000000000000000000000000000000000000000000000000000000000000000PES00010000001 00000000000000000000000000000000000000000                              000000000000000
202401100010000900000000000000002387                8000000000030562033161Julio S Gatti y Cia SRL       000000015795800000000000402574000000000000000000000000000000000000000000000000000000000000000000000000000000000000000000PES00010000001 00000000000000000000000000000000000000000                              000000000000000
202311270010000600000000000000001767                8000000000030711952132La Martina                    000000018700000000000000000000000000000000000000000000000000000000000000000000000000000000000000000000000000000000000000PES00010000001 00000000000000000000000000000000000000000                              000000000000000
202401200010000900000000000000002406                8000000000030562033161Julio S Gatti y Cia SRL       000000010283800000000000262670000000000000000000000000000000000000000000000000000000000000000000000000000000000000000000PES00010000001 00000000000000000000000000000000000000000                              000000000000000
202305050010000600000000000000005758                8000000000020257159591Ere.o Nicolas Dario           000000020503800000000000000000000000000000000000000000000000000000000000000000000000000000000000000000000000000000000000PES00010000001 00000000000000000000000000000000000000000                              000000000000000
202401090010004300000000000000001101                8000000000030527847741Hermitage S.A.                000000046568600000000000000000000000000000000000000000000000000000000000000000000000000000000000000000000000000000000000PES00010000001 00000000000000000000000000000000000000000                              000000000000000
202401140010016700000000000000037099                8000000000030665074354Barbero Hermanos sa           000000003300100000000000060986000000000000000000000000000000000000000000000000000000000000000000000000000000000000000000PES00010000001 00000000000000000000000000000000000000000                              000000000000000
202312290010016100000000000000012620                8000000000030665074354Barbero Hermanos sa           000000002807100000000000062399000000000000000000000000000000000000000000000000000000057000000000000000000000000000000000PES00010000001 00000000000000000000000000000000000000000                              000000000000000
202401300110000200000000000000000200                8000000000023247147519Tizzano Nicolas Eduardo       000000035000000000000000000000000000000000000000000000000000000000000000000000000000000000000000000000000000000000000000PES00010000000 00000000000000000000000000000000000000000                              000000000000000
202401110010001300000000000000002171                8000000000020120281357Ferreri Antonio H.            000000002160000000000000000000000000000000000000000000000000000000000000000000000000000000000000000000000000000000000000PES00010000001 00000000000000000000000000000000000000000                              000000000000000
202401080010001200000000000000004746                8000000000020120281357Ferreri Antonio H.            000000001600000000000000000000000000000000000000000000000000000000000000000000000000000000000000000000000000000000000000PES00010000001 00000000000000000000000000000000000000000                              000000000000000
202401050010000100000000000000003728                8000000000033712389929Landoni W., Landoni A., y Land000000007450000000000000000000000000000000000000000000000000000000000000000000000000000000000000000000000000000000000000PES00010000001 00000000000000000000000000000000000000000                              000000000000000
202401170010000700000000000000016180                8000000000030667076516Electro Integral S.A          000000001247600000000000000000000000000000000000000000000000000000000000000000000000000000000000000000000000000000000000PES00010000001 00000000000000000000000000000000000000000                              000000000000000
202401220010000500000000000000002629                8000000000020284502273de Hern.n Alberto Colacilli   000000000150000000000000000000000000000000000000000000000000000000000000000000000000000000000000000000000000000000000000PES00010000001 00000000000000000000000000000000000000000                              000000000000000
202401110010000300000000000000000953                8000000000027277418768Sanchez Soledad               000000016090000000000000000000000000000000000000000000000000000000000000000000000000000000000000000000000000000000000000PES00010000001 00000000000000000000000000000000000000000                              000000000000000
202401110010246600000000000000606500                8000000000030678814357Telefonica Moviles Argentina S000000002079300000000000070973000000000000000000000000046600000000000000000000000000000000000000000000000000000000000000PES00010000002 00000000000000000000000000000000000000000                              000000000000000
202401110010246600000000000000606603                8000000000030678814357Telefonica Moviles Argentina S000000004256000000000000165603000000000000000000000000094300000000000000000000000000000000000000000000000000000000000000PES00010000001 00000000000000000000000000000000000000000                              000000000000000
202401040010000100000000000000156264                8000000000030663116874Celentano Jorge y Delatorre P.000000003489200000000000000000000000000000000000000000000000000000000000000000000000000000000000000000000000000000000000PES00010000001 00000000000000000000000000000000000000000                              000000000000000
202401040010000100000000000000156263                8000000000030663116874Celentano Jorge y Delatorre P.000000003345400000000000000000000000000000000000000000000000000000000000000000000000000000000000000000000000000000000000PES00010000001 00000000000000000000000000000000000000000                              000000000000000
202401040010000100000000000000156262                8000000000030663116874Celentano Jorge y Delatorre P.000000003377500000000000000000000000000000000000000000000000000000000000000000000000000000000000000000000000000000000000PES00010000001 00000000000000000000000000000000000000000                              000000000000000
202401040010000100000000000000156261                8000000000030663116874Celentano Jorge y Delatorre P.000000003424400000000000000000000000000000000000000000000000000000000000000000000000000000000000000000000000000000000000PES00010000001 00000000000000000000000000000000000000000                              000000000000000
202401040010000100000000000000156260                8000000000030663116874Celentano Jorge y Delatorre P.000000003482300000000000000000000000000000000000000000000000000000000000000000000000000000000000000000000000000000000000PES00010000001 00000000000000000000000000000000000000000                              000000000000000
202401040010000100000000000000156259                8000000000030663116874Celentano Jorge y Delatorre P.000000003375800000000000000000000000000000000000000000000000000000000000000000000000000000000000000000000000000000000000PES00010000001 00000000000000000000000000000000000000000                              000000000000000
202401040010000100000000000000156258                8000000000030663116874Celentano Jorge y Delatorre P.000000003280900000000000000000000000000000000000000000000000000000000000000000000000000000000000000000000000000000000000PES00010000001 00000000000000000000000000000000000000000                              000000000000000
202401040010000100000000000000156257                8000000000030663116874Celentano Jorge y Delatorre P.000000003469200000000000000000000000000000000000000000000000000000000000000000000000000000000000000000000000000000000000PES00010000001 00000000000000000000000000000000000000000                              000000000000000
202401040010000100000000000000156256                8000000000030663116874Celentano Jorge y Delatorre P.000000003391600000000000000000000000000000000000000000000000000000000000000000000000000000000000000000000000000000000000PES00010000001 00000000000000000000000000000000000000000                              000000000000000
202401040010000100000000000000156255                8000000000030663116874Celentano Jorge y Delatorre P.000000003356700000000000000000000000000000000000000000000000000000000000000000000000000000000000000000000000000000000000PES00010000001 00000000000000000000000000000000000000000                              000000000000000
202401040010000100000000000000156254                8000000000030663116874Celentano Jorge y Delatorre P.000000003306900000000000000000000000000000000000000000000000000000000000000000000000000000000000000000000000000000000000PES00010000001 00000000000000000000000000000000000000000                              000000000000000
202401040010000100000000000000156253                8000000000030663116874Celentano Jorge y Delatorre P.000000003320600000000000000000000000000000000000000000000000000000000000000000000000000000000000000000000000000000000000PES00010000001 00000000000000000000000000000000000000000                              000000000000000
202401040010000100000000000000156252                8000000000030663116874Celentano Jorge y Delatorre P.000000003483800000000000000000000000000000000000000000000000000000000000000000000000000000000000000000000000000000000000PES00010000001 00000000000000000000000000000000000000000                              000000000000000
202401040010000100000000000000156251                8000000000030663116874Celentano Jorge y Delatorre P.000000003489100000000000000000000000000000000000000000000000000000000000000000000000000000000000000000000000000000000000PES00010000001 00000000000000000000000000000000000000000                              000000000000000
202401040010000100000000000000156250                8000000000030663116874Celentano Jorge y Delatorre P.000000003347600000000000000000000000000000000000000000000000000000000000000000000000000000000000000000000000000000000000PES00010000001 00000000000000000000000000000000000000000                              000000000000000
202401040010000100000000000000156249                8000000000030663116874Celentano Jorge y Delatorre P.000000003413900000000000000000000000000000000000000000000000000000000000000000000000000000000000000000000000000000000000PES00010000001 00000000000000000000000000000000000000000                              000000000000000
202401040010000100000000000000156248                8000000000030663116874Celentano Jorge y Delatorre P.000000003460400000000000000000000000000000000000000000000000000000000000000000000000000000000000000000000000000000000000PES00010000001 00000000000000000000000000000000000000000                              000000000000000
202401040010000100000000000000156247                8000000000030663116874Celentano Jorge y Delatorre P.000000003332200000000000000000000000000000000000000000000000000000000000000000000000000000000000000000000000000000000000PES00010000001 00000000000000000000000000000000000000000                              000000000000000
202401040010000100000000000000156246                8000000000030663116874Celentano Jorge y Delatorre P.000000003330400000000000000000000000000000000000000000000000000000000000000000000000000000000000000000000000000000000000PES00010000001 00000000000000000000000000000000000000000                              000000000000000
202401040010000100000000000000156245                8000000000030663116874Celentano Jorge y Delatorre P.000000003368500000000000000000000000000000000000000000000000000000000000000000000000000000000000000000000000000000000000PES00010000001 00000000000000000000000000000000000000000                              000000000000000
202401040010000100000000000000156244                8000000000030663116874Celentano Jorge y Delatorre P.000000003379000000000000000000000000000000000000000000000000000000000000000000000000000000000000000000000000000000000000PES00010000001 00000000000000000000000000000000000000000                              000000000000000
202401040010000100000000000000156243                8000000000030663116874Celentano Jorge y Delatorre P.000000003319200000000000000000000000000000000000000000000000000000000000000000000000000000000000000000000000000000000000PES00010000001 00000000000000000000000000000000000000000                              000000000000000
202401190010000300000000000000189792                8000000000030614476660Acima R S.A.                  000000003435500000000000000000000000000000000000000000000000000000000000000000000000000000000000000000000000000000000000PES00010000001 00000000000000000000000000000000000000000                              000000000000000
202401190010000300000000000000189791                8000000000030614476660Acima R S.A.                  000000003314600000000000000000000000000000000000000000000000000000000000000000000000000000000000000000000000000000000000PES00010000001 00000000000000000000000000000000000000000                              000000000000000
202401190010000300000000000000189790                8000000000030614476660Acima R S.A.                  000000003407000000000000000000000000000000000000000000000000000000000000000000000000000000000000000000000000000000000000PES00010000001 00000000000000000000000000000000000000000                              000000000000000
202401190010000300000000000000189789                8000000000030614476660Acima R S.A.                  000000003278400000000000000000000000000000000000000000000000000000000000000000000000000000000000000000000000000000000000PES00010000001 00000000000000000000000000000000000000000                              000000000000000
202401190010000300000000000000189788                8000000000030614476660Acima R S.A.                  000000003462400000000000000000000000000000000000000000000000000000000000000000000000000000000000000000000000000000000000PES00010000001 00000000000000000000000000000000000000000                              000000000000000
202401190010000300000000000000189787                8000000000030614476660Acima R S.A.                  000000003280400000000000000000000000000000000000000000000000000000000000000000000000000000000000000000000000000000000000PES00010000001 00000000000000000000000000000000000000000                              000000000000000
202401190010000100000000000000124341                8000000000027138430702Bernardi Susana Ines          000000003505700000000000000000000000000000000000000000000000000000000000000000000000000000000000000000000000000000000000PES00010000001 00000000000000000000000000000000000000000                              000000000000000
202401190010000100000000000000124340                8000000000027138430702Bernardi Susana Ines          000000003473900000000000000000000000000000000000000000000000000000000000000000000000000000000000000000000000000000000000PES00010000001 00000000000000000000000000000000000000000                              000000000000000
202401190010000100000000000000124339                8000000000027138430702Bernardi Susana Ines          000000003494100000000000000000000000000000000000000000000000000000000000000000000000000000000000000000000000000000000000PES00010000001 00000000000000000000000000000000000000000                              000000000000000
202401190010000100000000000000124338                8000000000027138430702Bernardi Susana Ines          000000003443400000000000000000000000000000000000000000000000000000000000000000000000000000000000000000000000000000000000PES00010000001 00000000000000000000000000000000000000000                              000000000000000
202401190010000100000000000000124337                8000000000027138430702Bernardi Susana Ines          000000003479900000000000000000000000000000000000000000000000000000000000000000000000000000000000000000000000000000000000PES00010000001 00000000000000000000000000000000000000000                              000000000000000
202401190010000100000000000000124336                8000000000027138430702Bernardi Susana Ines          000000003487200000000000000000000000000000000000000000000000000000000000000000000000000000000000000000000000000000000000PES00010000001 00000000000000000000000000000000000000000                              000000000000000
202401190010000100000000000000124335                8000000000027138430702Bernardi Susana Ines          000000003467000000000000000000000000000000000000000000000000000000000000000000000000000000000000000000000000000000000000PES00010000001 00000000000000000000000000000000000000000                              000000000000000
202401190010000100000000000000124334                8000000000027138430702Bernardi Susana Ines          000000003297900000000000000000000000000000000000000000000000000000000000000000000000000000000000000000000000000000000000PES00010000001 00000000000000000000000000000000000000000                              000000000000000
202401190010000100000000000000124333                8000000000027138430702Bernardi Susana Ines          000000003505000000000000000000000000000000000000000000000000000000000000000000000000000000000000000000000000000000000000PES00010000001 00000000000000000000000000000000000000000                              000000000000000
202401190010000100000000000000124332                8000000000027138430702Bernardi Susana Ines          000000003493400000000000000000000000000000000000000000000000000000000000000000000000000000000000000000000000000000000000PES00010000001 00000000000000000000000000000000000000000                              000000000000000
202401190010000100000000000000124331                8000000000027138430702Bernardi Susana Ines          000000003420300000000000000000000000000000000000000000000000000000000000000000000000000000000000000000000000000000000000PES00010000001 00000000000000000000000000000000000000000                              000000000000000
202401190010000100000000000000124330                8000000000027138430702Bernardi Susana Ines          000000003417700000000000000000000000000000000000000000000000000000000000000000000000000000000000000000000000000000000000PES00010000001 00000000000000000000000000000000000000000                              000000000000000
202401190010000100000000000000124329                8000000000027138430702Bernardi Susana Ines          000000003415400000000000000000000000000000000000000000000000000000000000000000000000000000000000000000000000000000000000PES00010000001 00000000000000000000000000000000000000000                              000000000000000
202401190010000100000000000000124328                8000000000027138430702Bernardi Susana Ines          000000003497400000000000000000000000000000000000000000000000000000000000000000000000000000000000000000000000000000000000PES00010000001 00000000000000000000000000000000000000000                              000000000000000
202401190010000100000000000000124327                8000000000027138430702Bernardi Susana Ines          000000003472200000000000000000000000000000000000000000000000000000000000000000000000000000000000000000000000000000000000PES00010000001 00000000000000000000000000000000000000000                              000000000000000
202401190010000100000000000000124326                8000000000027138430702Bernardi Susana Ines          000000003496900000000000000000000000000000000000000000000000000000000000000000000000000000000000000000000000000000000000PES00010000001 00000000000000000000000000000000000000000                              000000000000000
202401200010323200000000000000208574                8000000000030663005843Maxiconsumo S                 000000042510800000000000000000000000000000000000000001022700000000000000000000000000000000000000000000000000000000000000PES00010000002 00000000000000000000000000000000000000000                              000000000000000
202401260110000100000000000000000061                8000000000020245059729Zapata Fernando Paul          000000040000000000000000000000000000000000000000000000000000000000000000000000000000000000000000000000000000000000000000PES00010000000 00000000000000000000000000000000000000000                              000000000000000
202401260110000200000000000000000063                8000000000020218901949Zapata Nestor Javier          000000040000000000000000000000000000000000000000000000000000000000000000000000000000000000000000000000000000000000000000PES00010000000 00000000000000000000000000000000000000000                              000000000000000
202401040010000100000000000000156242                8000000000030663116874Celentano Jorge y Delatorre P.000000003384900000000000000000000000000000000000000000000000000000000000000000000000000000000000000000000000000000000000PES00010000001 00000000000000000000000000000000000000000                              000000000000000
202401040010000100000000000000156241                8000000000030663116874Celentano Jorge y Delatorre P.000000003419500000000000000000000000000000000000000000000000000000000000000000000000000000000000000000000000000000000000PES00010000001 00000000000000000000000000000000000000000                              000000000000000
202401040010000100000000000000156240                8000000000030663116874Celentano Jorge y Delatorre P.000000003402700000000000000000000000000000000000000000000000000000000000000000000000000000000000000000000000000000000000PES00010000001 00000000000000000000000000000000000000000                              000000000000000
202401040010000100000000000000156239                8000000000030663116874Celentano Jorge y Delatorre P.000000003300000000000000000000000000000000000000000000000000000000000000000000000000000000000000000000000000000000000000PES00010000001 00000000000000000000000000000000000000000                              000000000000000
202401040010000100000000000000156238                8000000000030663116874Celentano Jorge y Delatorre P.000000003492300000000000000000000000000000000000000000000000000000000000000000000000000000000000000000000000000000000000PES00010000001 00000000000000000000000000000000000000000                              000000000000000
202401040010000100000000000000156237                8000000000030663116874Celentano Jorge y Delatorre P.000000003443600000000000000000000000000000000000000000000000000000000000000000000000000000000000000000000000000000000000PES00010000001 00000000000000000000000000000000000000000                              000000000000000
202401040010000100000000000000156236                8000000000030663116874Celentano Jorge y Delatorre P.000000003402700000000000000000000000000000000000000000000000000000000000000000000000000000000000000000000000000000000000PES00010000001 00000000000000000000000000000000000000000                              000000000000000
202401040010000100000000000000156235                8000000000030663116874Celentano Jorge y Delatorre P.000000003318900000000000000000000000000000000000000000000000000000000000000000000000000000000000000000000000000000000000PES00010000001 00000000000000000000000000000000000000000                              000000000000000
202401040010000100000000000000156234                8000000000030663116874Celentano Jorge y Delatorre P.000000003312800000000000000000000000000000000000000000000000000000000000000000000000000000000000000000000000000000000000PES00010000001 00000000000000000000000000000000000000000                              000000000000000
202401040010000100000000000000156233                8000000000030663116874Celentano Jorge y Delatorre P.000000003338500000000000000000000000000000000000000000000000000000000000000000000000000000000000000000000000000000000000PES00010000001 00000000000000000000000000000000000000000                              000000000000000
202401040010000100000000000000156232                8000000000030663116874Celentano Jorge y Delatorre P.000000003315500000000000000000000000000000000000000000000000000000000000000000000000000000000000000000000000000000000000PES00010000001 00000000000000000000000000000000000000000                              000000000000000
202401190010000100000000000000124325                8000000000027138430702Bernardi Susana Ines          000000003496500000000000000000000000000000000000000000000000000000000000000000000000000000000000000000000000000000000000PES00010000001 00000000000000000000000000000000000000000                              000000000000000
202401190010000100000000000000124324                8000000000027138430702Bernardi Susana Ines          000000003414400000000000000000000000000000000000000000000000000000000000000000000000000000000000000000000000000000000000PES00010000001 00000000000000000000000000000000000000000                              000000000000000
202401190010000100000000000000124323                8000000000027138430702Bernardi Susana Ines          000000003494600000000000000000000000000000000000000000000000000000000000000000000000000000000000000000000000000000000000PES00010000001 00000000000000000000000000000000000000000                              000000000000000
202401190010000100000000000000124322                8000000000027138430702Bernardi Susana Ines          000000003500000000000000000000000000000000000000000000000000000000000000000000000000000000000000000000000000000000000000PES00010000001 00000000000000000000000000000000000000000                              000000000000000
202401190010000100000000000000124321                8000000000027138430702Bernardi Susana Ines          000000003444900000000000000000000000000000000000000000000000000000000000000000000000000000000000000000000000000000000000PES00010000001 00000000000000000000000000000000000000000                              000000000000000
202401190010000100000000000000124320                8000000000027138430702Bernardi Susana Ines          000000003490800000000000000000000000000000000000000000000000000000000000000000000000000000000000000000000000000000000000PES00010000001 00000000000000000000000000000000000000000                              000000000000000
202401190010000100000000000000124319                8000000000027138430702Bernardi Susana Ines          000000003471900000000000000000000000000000000000000000000000000000000000000000000000000000000000000000000000000000000000PES00010000001 00000000000000000000000000000000000000000                              000000000000000
202401190010000100000000000000124318                8000000000027138430702Bernardi Susana Ines          000000003393700000000000000000000000000000000000000000000000000000000000000000000000000000000000000000000000000000000000PES00010000001 00000000000000000000000000000000000000000                              000000000000000
202401190010000100000000000000124317                8000000000027138430702Bernardi Susana Ines          000000003437900000000000000000000000000000000000000000000000000000000000000000000000000000000000000000000000000000000000PES00010000001 00000000000000000000000000000000000000000                              000000000000000
202401190010000100000000000000124316                8000000000027138430702Bernardi Susana Ines          000000003473500000000000000000000000000000000000000000000000000000000000000000000000000000000000000000000000000000000000PES00010000001 00000000000000000000000000000000000000000                              000000000000000
202401190010000100000000000000124315                8000000000027138430702Bernardi Susana Ines          000000003498800000000000000000000000000000000000000000000000000000000000000000000000000000000000000000000000000000000000PES00010000001 00000000000000000000000000000000000000000                              000000000000000
202401190010000100000000000000124314                8000000000027138430702Bernardi Susana Ines          000000003482200000000000000000000000000000000000000000000000000000000000000000000000000000000000000000000000000000000000PES00010000001 00000000000000000000000000000000000000000                              000000000000000
202401190010000100000000000000124313                8000000000027138430702Bernardi Susana Ines          000000003501300000000000000000000000000000000000000000000000000000000000000000000000000000000000000000000000000000000000PES00010000001 00000000000000000000000000000000000000000                              000000000000000
202401190010000100000000000000124312                8000000000027138430702Bernardi Susana Ines          000000003486700000000000000000000000000000000000000000000000000000000000000000000000000000000000000000000000000000000000PES00010000001 00000000000000000000000000000000000000000                              000000000000000
202401190010000100000000000000124311                8000000000027138430702Bernardi Susana Ines          000000003492500000000000000000000000000000000000000000000000000000000000000000000000000000000000000000000000000000000000PES00010000001 00000000000000000000000000000000000000000                              000000000000000
202401190010000100000000000000124310                8000000000027138430702Bernardi Susana Ines          000000003492300000000000000000000000000000000000000000000000000000000000000000000000000000000000000000000000000000000000PES00010000001 00000000000000000000000000000000000000000                              000000000000000
202401190010000100000000000000124309                8000000000027138430702Bernardi Susana Ines          000000003494600000000000000000000000000000000000000000000000000000000000000000000000000000000000000000000000000000000000PES00010000001 00000000000000000000000000000000000000000                              000000000000000
202401190010000100000000000000124308                8000000000027138430702Bernardi Susana Ines          000000003476800000000000000000000000000000000000000000000000000000000000000000000000000000000000000000000000000000000000PES00010000001 00000000000000000000000000000000000000000                              000000000000000
202401190010000100000000000000124307                8000000000027138430702Bernardi Susana Ines          000000003496300000000000000000000000000000000000000000000000000000000000000000000000000000000000000000000000000000000000PES00010000001 00000000000000000000000000000000000000000                              000000000000000
202401190010000100000000000000124306                8000000000027138430702Bernardi Susana Ines          000000003403200000000000000000000000000000000000000000000000000000000000000000000000000000000000000000000000000000000000PES00010000001 00000000000000000000000000000000000000000                              000000000000000
202401190010000100000000000000124305                8000000000027138430702Bernardi Susana Ines          000000003458200000000000000000000000000000000000000000000000000000000000000000000000000000000000000000000000000000000000PES00010000001 00000000000000000000000000000000000000000                              000000000000000
202401190010000100000000000000124304                8000000000027138430702Bernardi Susana Ines          000000003458500000000000000000000000000000000000000000000000000000000000000000000000000000000000000000000000000000000000PES00010000001 00000000000000000000000000000000000000000                              000000000000000
202401180010000300000000000000068080                8000000000030586753912Ing Oscar A Bonelli SA        000000000134300000000000000000000000000000000000000000000000000000000000000000000000000000000000000000000000000000000000PES00010000001 00000000000000000000000000000000000000000                              000000000000000
202401190010000100000000000000124303                8000000000027138430702Bernardi Susana Ines          000000003461800000000000000000000000000000000000000000000000000000000000000000000000000000000000000000000000000000000000PES00010000001 00000000000000000000000000000000000000000                              000000000000000
202401190010000100000000000000124302                8000000000027138430702Bernardi Susana Ines          000000003328600000000000000000000000000000000000000000000000000000000000000000000000000000000000000000000000000000000000PES00010000001 00000000000000000000000000000000000000000                              000000000000000
202401190010000100000000000000124301                8000000000027138430702Bernardi Susana Ines          000000003508000000000000000000000000000000000000000000000000000000000000000000000000000000000000000000000000000000000000PES00010000001 00000000000000000000000000000000000000000                              000000000000000
202401190010000100000000000000124300                8000000000027138430702Bernardi Susana Ines          000000003504900000000000000000000000000000000000000000000000000000000000000000000000000000000000000000000000000000000000PES00010000001 00000000000000000000000000000000000000000                              000000000000000
