202303160010003700000000000000000391                80000000000307102387623M supermercados SRL          000000000447624000000000002633000000000000000000000000000000000000000000000000000000000000000000000000000000000000000000PES00010000002 00000000007615300000000000000000000000000                              000000000000000
202312220110000100000000000000000060                8000000000020245059729Zapata Fernando Paul          000000050000000000000000000000000000000000000000000000000000000000000000000000000000000000000000000000000000000000000000PES00010000000 00000000000000000000000000000000000000000                              000000000000000
202312160010002500000000000000004064                8000000000030520231346GIORGI AUTOMOTORES SA         000000000816639000000000000000000000000000000000000000000000000000000000000000000000016531000000000000000000000000000000PES00010000001 00000000013886200000000000000000000000000                              000000000000000
202312100010000900000000000000002244                8000000000030562033161Julio S Gatti y Cia SRL       000000003840692000000000195666000000000000000000000000000000000000000000000000000000000000000000000000000000000000000000PES00010000001 00000000063260800000000000000000000000000                              000000000000000
202312160010000500000000000000003894                8000000000020287701285Herrnan Piva                  000000003430000000000000000000000000000000000000000000000000000000000000000000000000000000000000000000000000000000000000PES00010000001 00000000059528900000000000000000000000000                              000000000000000
202312280010000400000000000000000164                8000000000030717974375P 476 Soluciones S.A.         000000001636380000000000000000000000000000000000000000000000000000000000000000000000000000000000000000000000000000000000PES00010000001 00000000028400000000000000000000000000000                              000000000000000
202312070010000400000000000000001556                8000000000020286452842Vicini Carlos                 000000010077800000000000000000000000000000000000000000000000000000000000000000000000000000000000000000000000000000000000PES00010000001 00000000174904000000000000000000000000000                              000000000000000
202312170010200000000000000000001324                8000000000020275503704Vertical Wor.s C.rdoba        000000007780000000000000000000000000000000000000000000000000000000000000000000000000000000000000000000000000000000000000PES00010000001 00000000135024800000000000000000000000000                              000000000000000
202312260010323200000000000000205443                8000000000030663005843Maxiconsumo S                 000000016580845000000000000000000000000000000000000000400862000000000000000000000000000000000000000000000000000000000000PES00010000002 00000000280603500000000000000000000000000                              000000000000000
202312290010000300000000000000001211                8000000000030716887126Gadol.atanSRL                 000000001139999000000000000000000000000000000000000000000000000000000000000000000000000000000000000000000000000000000000PES00010000001 00000000019785100000000000000000000000000                              000000000000000
202312010010000500000000000000000173                8000000000023046767969Zarlenga Mario Alberto        000000001369962000000000000000000000000000000000000000000000000000000000000000000000000000000000000000000000000000000000PES00010000001 00000000023776200000000000000000000000000                              000000000000000
202312010010000200000000000000000665                8000000000030717783189DC Equipamientos Deportivos   000000013794000000000000000000000000000000000000000000000000000000000000000000000000000000000000000000000000000000000000PES00010000001 00000000239400000000000000000000000000000                              000000000000000
202312050010000400000000000000000308                8000000000027328225943Distribuidora Portopelo       000000002612300000000000000000000000000000000000000000000000000000000000000000000000000000000000000000000000000000000000PES00010000001 00000000045337400000000000000000000000000                              000000000000000
202312060010636000000000000000000016                8000000000033707675069Buspac.                       000000001489001000000000000000000000000000000000000000000000000000000000000000000000000000000000000000000000000000000000PES00010000001 00000000025842200000000000000000000000000                              000000000000000
202312080010000500000000000000000374                8000000000023046882229D Girolamo Carlos Alberto     000000004800000000000000000000000000000000000000000000000000000000000000000000000000000000000000000000000000000000000000PES00010000001 00000000083305800000000000000000000000000                              000000000000000
202312080010006400000000000000000836                8000000000030715209833Gifel SRL                     000000003647842000000000000000000000000000000000000000000000000000000000000000000000073843000000000000000000000000000000PES00010000001 00000000062028100000000000000000000000000                              000000000000000
202312190010003700000000000000000637                80000000000307102387623M supermercados SRL          000000001566678000000000000000000000000000000000000000000000000000000000000000000000031714000000000000000000000000000000PES00010000002 00000000017048000000000000000000000000000                              000000000000000
202312140010004600000000000000000745                80000000000307102387623M supermercados SRL          000000002566652000000000000000000000000000000000000000000000000000000000000000000000051957000000000000000000000000000000PES00010000002 00000000040190100000000000000000000000000                              000000000000000
202312140010004600000000000000000744                80000000000307102387623M supermercados SRL          000000002755483000000000000000000000000000000000000000000000000000000000000000000000055779000000000000000000000000000000PES00010000002 00000000038882400000000000000000000000000                              000000000000000
202312290010003800000000000000000811                80000000000307102387623M supermercados SRL          000000002304490000000000000000000000000000000000000000000000000000000000000000000000046650000000000000000000000000000000PES00010000002 00000000024232600000000000000000000000000                              000000000000000
202312290010003800000000000000000810                80000000000307102387623M supermercados SRL          000000002960380000000000000000000000000000000000000000000000000000000000000000000000059927000000000000000000000000000000PES00010000002 00000000048731000000000000000000000000000                              000000000000000
202312290010003800000000000000000809                80000000000307102387623M supermercados SRL          000000002755968000000000000000000000000000000000000000000000000000000000000000000000055790000000000000000000000000000000PES00010000002 00000000039863500000000000000000000000000                              000000000000000
202312310010003800000000000000000816                80000000000307102387623M supermercados SRL          000000000809140000000000000000000000000000000000000000000000000000000000000000000000016379000000000000000000000000000000PES00010000002 00000000011715100000000000000000000000000                              000000000000000
202312070010003700000000000000000628                80000000000307102387623M supermercados SRL          000000002373561000000000000000000000000000000000000000000000000000000000000000000000048048000000000000000000000000000000PES00010000002 00000000035039600000000000000000000000000                              000000000000000
202312190010003800000000000000000797                80000000000307102387623M supermercados SRL          000000001255283000000000000000000000000000000000000000000000000000000000000000000000025411000000000000000000000000000000PES00010000002 00000000020305200000000000000000000000000                              000000000000000
202312140010003800000000000000000793                80000000000307102387623M supermercados SRL          000000002515793000000000012520000000000000000000000000000000000000000000000000000000050926000000000000000000000000000000PES00010000002 00000000037872100000000000000000000000000                              000000000000000
202312040010004600000000000000000735                80000000000307102387623M supermercados SRL          000000000876177000000000000000000000000000000000000000000000000000000000000000000000017736000000000000000000000000000000PES00010000001 00000000008157100000000000000000000000000                              000000000000000
202312040010004600000000000000000734                80000000000307102387623M supermercados SRL          000000003540860000000000000000000000000000000000000000000000000000000000000000000000071677000000000000000000000000000000PES00010000001 00000000032965100000000000000000000000000                              000000000000000
202312040010004600000000000000000733                80000000000307102387623M supermercados SRL          000000003161865000000000000000000000000000000000000000000000000000000000000000000000064006000000000000000000000000000000PES00010000002 00000000043659700000000000000000000000000                              000000000000000
202312260010004600000000000000000757                80000000000307102387623M supermercados SRL          000000006234079000000000000000000000000000000000000000000000000000000000000000000000126196000000000000000000000000000000PES00010000002 00000000095131700000000000000000000000000                              000000000000000
202312180010004500000000000000001195                80000000000307102387623M supermercados SRL          000000002829574000000000000000000000000000000000000000000000000000000000000000000000057279000000000000000000000000000000PES00010000002 00000000037494600000000000000000000000000                              000000000000000
202312180010004500000000000000001193                80000000000307102387623M supermercados SRL          000000002987269000000000004943000000000000000000000000000000000000000000000000000000060597000000000000000000000000000000PES00010000001 00000000050707700000000000000000000000000                              000000000000000
202312180010004500000000000000001194                80000000000307102387623M supermercados SRL          000000003012592000000000000000000000000000000000000000000000000000000000000000000000060984000000000000000000000000000000PES00010000002 00000000048230800000000000000000000000000                              000000000000000
202312180010004500000000000000001196                80000000000307102387623M supermercados SRL          000000002847409000000000000000000000000000000000000000000000000000000000000000000000057640000000000000000000000000000000PES00010000001 00000000026509100000000000000000000000000                              000000000000000
202312110010000200000000000000129870                8000000000030502309893Licari S.A.                   000000003442509000000000000000000000000000000000000000000000000000000000000000000000000000000000000000000000000000000000PES00010000001 00000000059746000000000000000000000000000                              000000000000000
202312110010000200000000000000129369                8000000000030502309893Licari S.A.                   000000003442500000000000000000000000000000000000000000000000000000000000000000000000000000000000000000000000000000000000PES00010000001 00000000059745900000000000000000000000000                              000000000000000
202312110010000200000000000000129368                8000000000030502309893Licari S.A.                   000000003442500000000000000000000000000000000000000000000000000000000000000000000000000000000000000000000000000000000000PES00010000001 00000000059745900000000000000000000000000                              000000000000000
202312110010000200000000000000129367                8000000000030502309893Licari S.A.                   000000003442500000000000000000000000000000000000000000000000000000000000000000000000000000000000000000000000000000000000PES00010000001 00000000059745900000000000000000000000000                              000000000000000
202312110010000200000000000000129366                8000000000030502309893Licari S.A.                   000000003442500000000000000000000000000000000000000000000000000000000000000000000000000000000000000000000000000000000000PES00010000001 00000000059745900000000000000000000000000                              000000000000000
202312110010000200000000000000129365                8000000000030502309893Licari S.A.                   000000003442500000000000000000000000000000000000000000000000000000000000000000000000000000000000000000000000000000000000PES00010000001 00000000059745900000000000000000000000000                              000000000000000
202312110010000200000000000000129364                8000000000030502309893Licari S.A.                   000000003442500000000000000000000000000000000000000000000000000000000000000000000000000000000000000000000000000000000000PES00010000001 00000000059745900000000000000000000000000                              000000000000000
202312110010000200000000000000129363                8000000000030502309893Licari S.A.                   000000003442500000000000000000000000000000000000000000000000000000000000000000000000000000000000000000000000000000000000PES00010000001 00000000059745900000000000000000000000000                              000000000000000
202312110010000200000000000000129362                8000000000030502309893Licari S.A.                   000000003442500000000000000000000000000000000000000000000000000000000000000000000000000000000000000000000000000000000000PES00010000001 00000000059745900000000000000000000000000                              000000000000000
202312210010000900000000000000122918                8000000000033682571239Triber S.A.                   000000003332394000000000000000000000000000000000000000000000000000000000000000000000000000000000000000000000000000000000PES00010000001 00000000057834900000000000000000000000000                              000000000000000
202312210010000900000000000000122917                8000000000033682571239Triber S.A.                   000000003273262000000000000000000000000000000000000000000000000000000000000000000000000000000000000000000000000000000000PES00010000001 00000000056808700000000000000000000000000                              000000000000000
202312210010000900000000000000122916                8000000000033682571239Triber S.A.                   000000003307721000000000000000000000000000000000000000000000000000000000000000000000000000000000000000000000000000000000PES00010000001 00000000057406700000000000000000000000000                              000000000000000
202312210010000900000000000000122915                8000000000033682571239Triber S.A.                   000000003320449000000000000000000000000000000000000000000000000000000000000000000000000000000000000000000000000000000000PES00010000001 00000000057627600000000000000000000000000                              000000000000000
202312210010000900000000000000122914                8000000000033682571239Triber S.A.                   000000003361211000000000000000000000000000000000000000000000000000000000000000000000000000000000000000000000000000000000PES00010000001 00000000058335100000000000000000000000000                              000000000000000
202312210010000900000000000000122913                8000000000033682571239Triber S.A.                   000000003306809000000000000000000000000000000000000000000000000000000000000000000000000000000000000000000000000000000000PES00010000001 00000000057390900000000000000000000000000                              000000000000000
202312210010000900000000000000122912                8000000000033682571239Triber S.A.                   000000003253643000000000000000000000000000000000000000000000000000000000000000000000000000000000000000000000000000000000PES00010000001 00000000056468200000000000000000000000000                              000000000000000
202312210010000900000000000000122911                8000000000033682571239Triber S.A.                   000000003255808000000000000000000000000000000000000000000000000000000000000000000000000000000000000000000000000000000000PES00010000001 00000000056505800000000000000000000000000                              000000000000000
202312210010000900000000000000122910                8000000000033682571239Triber S.A.                   000000003338136000000000000000000000000000000000000000000000000000000000000000000000000000000000000000000000000000000000PES00010000001 00000000057934600000000000000000000000000                              000000000000000
202312210010000900000000000000122909                8000000000033682571239Triber S.A.                   000000003310767000000000000000000000000000000000000000000000000000000000000000000000000000000000000000000000000000000000PES00010000001 00000000057459600000000000000000000000000                              000000000000000
202312210010000900000000000000122908                8000000000033682571239Triber S.A.                   000000003337664000000000000000000000000000000000000000000000000000000000000000000000000000000000000000000000000000000000PES00010000001 00000000057926400000000000000000000000000                              000000000000000
202312210010000900000000000000122907                8000000000033682571239Triber S.A.                   000000003328942000000000000000000000000000000000000000000000000000000000000000000000000000000000000000000000000000000000PES00010000001 00000000057775000000000000000000000000000                              000000000000000
202312210010000900000000000000122906                8000000000033682571239Triber S.A.                   000000003338574000000000000000000000000000000000000000000000000000000000000000000000000000000000000000000000000000000000PES00010000001 00000000057942200000000000000000000000000                              000000000000000
202312210010000900000000000000122905                8000000000033682571239Triber S.A.                   000000003362832000000000000000000000000000000000000000000000000000000000000000000000000000000000000000000000000000000000PES00010000001 00000000058363200000000000000000000000000                              000000000000000
202312210010000900000000000000122904                8000000000033682571239Triber S.A.                   000000003351376000000000000000000000000000000000000000000000000000000000000000000000000000000000000000000000000000000000PES00010000001 00000000058164400000000000000000000000000                              000000000000000
202312210010000900000000000000122903                8000000000033682571239Triber S.A.                   000000003428850000000000000000000000000000000000000000000000000000000000000000000000000000000000000000000000000000000000PES00010000001 00000000059509000000000000000000000000000                              000000000000000
202312210010000900000000000000122902                8000000000033682571239Triber S.A.                   000000003391608000000000000000000000000000000000000000000000000000000000000000000000000000000000000000000000000000000000PES00010000001 00000000058862600000000000000000000000000                              000000000000000
202312210010000900000000000000122901                8000000000033682571239Triber S.A.                   000000003356788000000000000000000000000000000000000000000000000000000000000000000000000000000000000000000000000000000000PES00010000001 00000000058258300000000000000000000000000                              000000000000000
202312210010000900000000000000122900                8000000000033682571239Triber S.A.                   000000003332335000000000000000000000000000000000000000000000000000000000000000000000000000000000000000000000000000000000PES00010000001 00000000057833900000000000000000000000000                              000000000000000
202312210010000900000000000000122899                8000000000033682571239Triber S.A.                   000000003257172000000000000000000000000000000000000000000000000000000000000000000000000000000000000000000000000000000000PES00010000001 00000000056529400000000000000000000000000                              000000000000000
202312210010001800000000000000090621                8000000000020245057424Mauro Sebastian Lagostena     000000016706349000000000000000000000000000000000000000396198000000000000000000000000330165000000000000000000000000000000PES00010000001 00000000277338600000000000000000000000000                              000000000000000
202312070010000200000000000000023576                8000000000033711351839La Glacial Aguas S.A.         000000000701800000000000000000000000000000000000000000000000000000000000000000000000000000000000000000000000000000000000PES00010000001 00000000012180000000000000000000000000000                              000000000000000
202312020010000300000000000000003547                8000000000030714448311Cesar Ullua e Hijos S.R.L.    000000004436872000000000000000000000000000000000000000000000000000000000000000000000000000000000000000000000000000000000PES00010000001 00000000077003600000000000000000000000000                              000000000000000
202312010010000200000000000000001453                8000000000020392852159Heredia Marcos                000000005537444000000000000000000000000000000000000000000000000000000000000000000000000000000000000000000000000000000000PES00010000001 00000000096104400000000000000000000000000                              000000000000000
202312040010000400000000000000000455                8000000000020257153402Ruiz Martin Ariel             000000002066922000000000000000000000000000000000000000000000000000000000000000000000000000000000000000000000000000000000PES00010000001 00000000035872200000000000000000000000000                              000000000000000
202312050010000300000000000000067764                8000000000030586753912Ing Oscar A Bonelli SA        000000000462832000000000000000000000000000000000000000000000000000000000000000000000009369000000000000000000000000000000PES00010000001 00000000007870000000000000000000000000000                              000000000000000
202312260110000300000000000000000932                8000000000020282760267Claudio Martin Cardinali      000000019200000000000000000000000000000000000000000000000000000000000000000000000000000000000000000000000000000000000000PES00010000000 00000000000000000000000000000000000000000                              000000000000000
202312050010000400000000000000042496                8000000000030708710454Distribuidora Mayorista de Ala000000008019317000000000000000000000000000000000000000000000000000000000000000000000000000000000000000000000000000000000PES00010000001 00000000139178200000000000000000000000000                              000000000000000
202312280010000100000000000000011742                8000000000020101771750Ruybal Hugo Reinaldo          000000000906000000000000000000000000000000000000000000000000000000000000000000000000000000000000000000000000000000000000PES00010000001 00000000015724000000000000000000000000000                              000000000000000
202312150010001600000000000000010787                8000000000033667064819HipolitoSRL                   000000025629625000000001006699000000000000000000000000000000000000000000000000000000523098000000000000000000000000000000PES00010000001 00000000418261500000000000000000000000000                              000000000000000
202312310010001600000000000000010844                8000000000033667064819HipolitoSRL                   000000030209303000000000749132000000000000000000000000000000000000000000000000000000614709000000000000000000000000000000PES00010000001 00000000500623700000000000000000000000000                              000000000000000
202312140010000300000000000000067831                8000000000030586753912Ing Oscar A Bonelli SA        000000001600441000000000000000000000000000000000000000000000000000000000000000000000032398000000000000000000000000000000PES00010000001 00000000027214000000000000000000000000000                              000000000000000
202312200010000700000000000000002525                8000000000030562297290OXIFER S.R.L.                 000000007413895000000000000000000000000000000000000000000000000000000000000000000000000000000000000000000000000000000000PES00010000001 00000000128670900000000000000000000000000                              000000000000000
202312190010000100000000000000008488                8000000000033716025999Cooperativa de Trabajo San Nic000000005548476000000000000000000000000000000000000000000000000000000000000000000000000000000000000000000000000000000000PES00010000001 00000000096295900000000000000000000000000                              000000000000000
202312210010000700000000000000002612                8000000000030562297290OXIFER S.R.L.                 000000004820364000000000000000000000000000000000000000000000000000000000000000000000000000000000000000000000000000000000PES00010000001 00000000083659200000000000000000000000000                              000000000000000
202312200010000200000000000000000800                8000000000030717767019Maquinarias y Herramientas Min000000161459999000000000000000000000000000000000000000000000000000000000000000000000000000000000000000000000000000000000PES00010000002 00000001545700800000000000000000000000000                              000000000000000
202312110010000200000000000000129361                8000000000030502309893Licari S.A.                   000000003442500000000000000000000000000000000000000000000000000000000000000000000000000000000000000000000000000000000000PES00010000001 00000000059745900000000000000000000000000                              000000000000000
202312110010000200000000000000129360                8000000000030502309893Licari S.A.                   000000003442500000000000000000000000000000000000000000000000000000000000000000000000000000000000000000000000000000000000PES00010000001 00000000059745900000000000000000000000000                              000000000000000
202312110010000200000000000000129359                8000000000030502309893Licari S.A.                   000000003442500000000000000000000000000000000000000000000000000000000000000000000000000000000000000000000000000000000000PES00010000001 00000000059745900000000000000000000000000                              000000000000000
202312110010000200000000000000129358                8000000000030502309893Licari S.A.                   000000003442500000000000000000000000000000000000000000000000000000000000000000000000000000000000000000000000000000000000PES00010000001 00000000059745900000000000000000000000000                              000000000000000
202312110010000200000000000000129357                8000000000030502309893Licari S.A.                   000000003442500000000000000000000000000000000000000000000000000000000000000000000000000000000000000000000000000000000000PES00010000001 00000000059745900000000000000000000000000                              000000000000000
202312110010000200000000000000129356                8000000000030502309893Licari S.A.                   000000003442500000000000000000000000000000000000000000000000000000000000000000000000000000000000000000000000000000000000PES00010000001 00000000059745900000000000000000000000000                              000000000000000
202312110010000200000000000000129355                8000000000030502309893Licari S.A.                   000000003442500000000000000000000000000000000000000000000000000000000000000000000000000000000000000000000000000000000000PES00010000001 00000000059745900000000000000000000000000                              000000000000000
202312110010000200000000000000129354                8000000000030502309893Licari S.A.                   000000003442500000000000000000000000000000000000000000000000000000000000000000000000000000000000000000000000000000000000PES00010000001 00000000059745900000000000000000000000000                              000000000000000
202312110010000200000000000000129353                8000000000030502309893Licari S.A.                   000000003442500000000000000000000000000000000000000000000000000000000000000000000000000000000000000000000000000000000000PES00010000001 00000000059745900000000000000000000000000                              000000000000000
202312110010000200000000000000129352                8000000000030502309893Licari S.A.                   000000003442500000000000000000000000000000000000000000000000000000000000000000000000000000000000000000000000000000000000PES00010000001 00000000059745900000000000000000000000000                              000000000000000
202312110010000200000000000000129351                8000000000030502309893Licari S.A.                   000000003442500000000000000000000000000000000000000000000000000000000000000000000000000000000000000000000000000000000000PES00010000001 00000000059745900000000000000000000000000                              000000000000000
202312110010000200000000000000129350                8000000000030502309893Licari S.A.                   000000003442500000000000000000000000000000000000000000000000000000000000000000000000000000000000000000000000000000000000PES00010000001 00000000059745900000000000000000000000000                              000000000000000
202312110010000200000000000000129349                8000000000030502309893Licari S.A.                   000000003442500000000000000000000000000000000000000000000000000000000000000000000000000000000000000000000000000000000000PES00010000001 00000000059745900000000000000000000000000                              000000000000000
202312110010000200000000000000129348                8000000000030502309893Licari S.A.                   000000003442500000000000000000000000000000000000000000000000000000000000000000000000000000000000000000000000000000000000PES00010000001 00000000059745900000000000000000000000000                              000000000000000
202312110010000200000000000000129347                8000000000030502309893Licari S.A.                   000000003442500000000000000000000000000000000000000000000000000000000000000000000000000000000000000000000000000000000000PES00010000001 00000000059745900000000000000000000000000                              000000000000000
202312110010000100000000000000123167                8000000000027138430702Bernardi Susana Ines          000000003443401000000000000000000000000000000000000000000000000000000000000000000000000000000000000000000000000000000000PES00010000001 00000000059761500000000000000000000000000                              000000000000000
202312110010000100000000000000123166                8000000000027138430702Bernardi Susana Ines          000000003473900000000000000000000000000000000000000000000000000000000000000000000000000000000000000000000000000000000000PES00010000001 00000000060290800000000000000000000000000                              000000000000000
202312110010000100000000000000123165                8000000000027138430702Bernardi Susana Ines          000000003297989000000000000000000000000000000000000000000000000000000000000000000000000000000000000000000000000000000000PES00010000001 00000000057237800000000000000000000000000                              000000000000000
202312110010000100000000000000123164                8000000000027138430702Bernardi Susana Ines          000000003487218000000000000000000000000000000000000000000000000000000000000000000000000000000000000000000000000000000000PES00010000001 00000000060522000000000000000000000000000                              000000000000000
202312110010000100000000000000123163                8000000000027138430702Bernardi Susana Ines          000000003106990000000000000000000000000000000000000000000000000000000000000000000000000000000000000000000000000000000000PES00010000001 00000000053923000000000000000000000000000                              000000000000000
202312110010000100000000000000123162                8000000000027138430702Bernardi Susana Ines          000000003493452000000000000000000000000000000000000000000000000000000000000000000000000000000000000000000000000000000000PES00010000001 00000000060630200000000000000000000000000                              000000000000000
202312110010000100000000000000123161                8000000000027138430702Bernardi Susana Ines          000000003496953000000000000000000000000000000000000000000000000000000000000000000000000000000000000000000000000000000000PES00010000001 00000000060690900000000000000000000000000                              000000000000000
202312210010000900000000000000122898                8000000000033682571239Triber S.A.                   000000003343287000000000000000000000000000000000000000000000000000000000000000000000000000000000000000000000000000000000PES00010000001 00000000058024000000000000000000000000000                              000000000000000
202312210010000200000000000000122897                8000000000033682571239Triber S.A.                   000000003379218000000000000000000000000000000000000000000000000000000000000000000000000000000000000000000000000000000000PES00010000001 00000000058647600000000000000000000000000                              000000000000000
202312210010000900000000000000122896                8000000000033682571239Triber S.A.                   000000003247679000000000000000000000000000000000000000000000000000000000000000000000000000000000000000000000000000000000PES00010000001 00000000056364700000000000000000000000000                              000000000000000
202312210010000900000000000000122895                8000000000033682571239Triber S.A.                   000000003277319000000000000000000000000000000000000000000000000000000000000000000000000000000000000000000000000000000000PES00010000001 00000000056879100000000000000000000000000                              000000000000000
202312210010000900000000000000122894                8000000000033682571239Triber S.A.                   000000003273316000000000000000000000000000000000000000000000000000000000000000000000000000000000000000000000000000000000PES00010000001 00000000056809600000000000000000000000000                              000000000000000
202312210010000900000000000000122893                8000000000033682571239Triber S.A.                   000000003247035000000000000000000000000000000000000000000000000000000000000000000000000000000000000000000000000000000000PES00010000001 00000000056353500000000000000000000000000                              000000000000000
202312210010000900000000000000122892                8000000000033682571239Triber S.A.                   000000003390778000000000000000000000000000000000000000000000000000000000000000000000000000000000000000000000000000000000PES00010000001 00000000058848200000000000000000000000000                              000000000000000
202312210010000900000000000000122891                8000000000033682571239Triber S.A.                   000000003314655000000000000000000000000000000000000000000000000000000000000000000000000000000000000000000000000000000000PES00010000001 00000000057527100000000000000000000000000                              000000000000000
202312210010000900000000000000122890                8000000000033682571239Triber S.A.                   000000003380229000000000000000000000000000000000000000000000000000000000000000000000000000000000000000000000000000000000PES00010000001 00000000058665100000000000000000000000000                              000000000000000
202312210010000900000000000000122889                8000000000033682571239Triber S.A.                   000000002963244000000000000000000000000000000000000000000000000000000000000000000000000000000000000000000000000000000000PES00010000001 00000000051428200000000000000000000000000                              000000000000000
202312210010000900000000000000122888                8000000000033682571239Triber S.A.                   000000003245329000000000000000000000000000000000000000000000000000000000000000000000000000000000000000000000000000000000PES00010000001 00000000056323900000000000000000000000000                              000000000000000
202312210010000900000000000000122887                8000000000033682571239Triber S.A.                   000000003345202000000000000000000000000000000000000000000000000000000000000000000000000000000000000000000000000000000000PES00010000001 00000000058057200000000000000000000000000                              000000000000000
202312210010000900000000000000122886                8000000000033682571239Triber S.A.                   000000003393118000000000000000000000000000000000000000000000000000000000000000000000000000000000000000000000000000000000PES00010000001 00000000058888800000000000000000000000000                              000000000000000
202312210010000900000000000000122885                8000000000033682571239Triber S.A.                   000000003400001000000000000000000000000000000000000000000000000000000000000000000000000000000000000000000000000000000000PES00010000001 00000000059008300000000000000000000000000                              000000000000000
202312210010000900000000000000122884                8000000000033682571239Triber S.A.                   000000003376971000000000000000000000000000000000000000000000000000000000000000000000000000000000000000000000000000000000PES00010000001 00000000058608600000000000000000000000000                              000000000000000
202312210010000900000000000000122883                8000000000033682571239Triber S.A.                   000000003506246000000000000000000000000000000000000000000000000000000000000000000000000000000000000000000000000000000000PES00010000001 00000000060852200000000000000000000000000                              000000000000000
202312210010000900000000000000122882                8000000000033682571239Triber S.A.                   000000003330033000000000000000000000000000000000000000000000000000000000000000000000000000000000000000000000000000000000PES00010000001 00000000057794000000000000000000000000000                              000000000000000
202312220010000400000000000000137645                8000000000030618141434Girgenti S.R.L.               000000003481577000000000000000000000000000000000000000000000000000000000000000000000000000000000000000000000000000000000PES00010000001 00000000060424100000000000000000000000000                              000000000000000
202312220010000400000000000000137644                8000000000030618141434Girgenti S.R.L.               000000003486070000000000000000000000000000000000000000000000000000000000000000000000000000000000000000000000000000000000PES00010000001 00000000060502000000000000000000000000000                              000000000000000
202312220010000400000000000000137643                8000000000030618141434Girgenti S.R.L.               000000003495896000000000000000000000000000000000000000000000000000000000000000000000000000000000000000000000000000000000PES00010000001 00000000060672600000000000000000000000000                              000000000000000
202312220010000400000000000000137642                8000000000030618141434Girgenti S.R.L.               000000003490267000000000000000000000000000000000000000000000000000000000000000000000000000000000000000000000000000000000PES00010000001 00000000060574900000000000000000000000000                              000000000000000
202312220010000400000000000000137641                8000000000030618141434Girgenti S.R.L.               000000002471083000000000000000000000000000000000000000000000000000000000000000000000000000000000000000000000000000000000PES00010000001 00000000042886600000000000000000000000000                              000000000000000
202312260010000100000000000000006393                8000000000030717454738Estrecom S.A.                 000000002105009000000000000000000000000000000000000000000000000000000000000000000000000000000000000000000000000000000000PES00010000001 00000000036533200000000000000000000000000                              000000000000000
202312240010001000000000000000000832                8000000000030717454738Estrecom S.A.                 000000003759971000000000000000000000000000000000000000000000000000000000000000000000000000000000000000000000000000000000PES00010000001 00000000065255700000000000000000000000000                              000000000000000
202312280010000300000000000000011178                8000000000030715064177Crisger Seguridad S.A.        000000015152547000000000000000000000000000000000000000000000000000000000000000000000000000000000000000000000000000000000PES00010000001 00000000262978100000000000000000000000000                              000000000000000
202312280010000400000000000000022544                8000000000030586753912Ing Oscar A Bonelli SA        000000000216614000000000000000000000000000000000000000000000000000000000000000000000000000000000000000000000000000000000PES00010000001 00000000003759400000000000000000000000000                              000000000000000
202312180010000400000000000000022425                8000000000030586753912Ing Oscar A Bonelli SA        000000000377793000000000000000000000000000000000000000000000000000000000000000000000000000000000000000000000000000000000PES00010000001 00000000006556700000000000000000000000000                              000000000000000
202312070010000700000000000000002486                8000000000030562297290OXIFER S.R.L.                 000000003271356000000000000000000000000000000000000000000000000000000000000000000000000000000000000000000000000000000000PES00010000001 00000000056775600000000000000000000000000                              000000000000000
202312130010000100000000000000006301                8000000000030717454738Estrecom S.A.                 000000003761619000000000000000000000000000000000000000000000000000000000000000000000000000000000000000000000000000000000PES00010000001 00000000065284300000000000000000000000000                              000000000000000
202312130010000100000000000000006297                8000000000030717454738Estrecom S.A.                 000000002384749000000000000000000000000000000000000000000000000000000000000000000000000000000000000000000000000000000000PES00010000001 00000000041388200000000000000000000000000                              000000000000000
202312040110000100000000000000000146                8000000000027335084549Garcia Daiana Lujan           000000001550000000000000000000000000000000000000000000000000000000000000000000000000000000000000000000000000000000000000PES00010000000 00000000000000000000000000000000000000000                              000000000000000
202312010010000100000000000000000097                8000000000030717604500Batta Pont S.R.L.             000000076950000000000000000000000000000000000000000000000000000000000000000000000000000000000000000000000000000000000000PES00010000001 00000000731199100000000000000000000000000                              000000000000000
202312010010000600000000000000013371                8000000000030710837860F.A. Rodamientos S.A.         000000003843323000000000000000000000000000000000000000000000000000000000000000000000000000000000000000000000000000000000PES00010000001 00000000066702300000000000000000000000000                              000000000000000
202312010010000300000000000000011815                8000000000030709408352Abaser SA                     000000000570001000000000000000000000000000000000000000000000000000000000000000000000000000000000000000000000000000000000PES00010000001 00000000009892600000000000000000000000000                              000000000000000
202312050010011100000000000000012789                8000000000030711234426Stern Motors                  000000051570651000000000000000000000000000000000000000000000000000000000000000000000000000000000000000000000000000000000PES00010000001 00000000895027800000000000000000000000000                              000000000000000
202312090010000800000000000000006478                8000000000020108563207Juan Carlos Gili Lubricantes  000000005129999000000000000000000000000000000000000000000000000000000000000000000000000000000000000000000000000000000000PES00010000001 00000000089033000000000000000000000000000                              000000000000000
202312050010000600000000000000001781                8000000000030711952132La Martina                    000000013799999000000000000000000000000000000000000000000000000000000000000000000000000000000000000000000000000000000000PES00010000001 00000000239504100000000000000000000000000                              000000000000000
202312310010000900000000000000002339                8000000000030562033161Julio S Gatti y Cia SRL       000000010707318000000000337071000000000000000000000000000000000000000000000000000000000000000000000000000000000000000000PES00010000001 00000000179979500000000000000000000000000                              000000000000000
202312230010014200000000000000014758                8000000000030665074354Barbero Hermanos sa           000000001327272000000000054562000000000000000000000000000000000000000000000000000000027100000000000000000000000000000000PES00010000001 00000000021618000000000000000000000000000                              000000000000000
202312150010001200000000000000004504                8000000000020120281357Ferreri Antonio H.            000000010099999000000000000000000000000000000000000000000000000000000000000000000000000000000000000000000000000000000000PES00010000001 00000000175289200000000000000000000000000                              000000000000000
202312190010000200000000000000000218                8000000000020171300860Claudio Gross.reutz           000000065340000000000000000000000000000000000000000000000000000000000000000000000000000000000000000000000000000000000000PES00010000001 00000001134000000000000000000000000000000                              000000000000000
202312110010246600000000000000594951                8000000000030678814357Telefonica Moviles Argentina S000000003408947000000000130235000000000000000000000000074235000000000000000000000000061862000000000000000000000000000000PES00010000001 00000000066811500000000000000000000000000                              000000000000000
202312110010246600000000000000594846                8000000000030678814357Telefonica Moviles Argentina S000000001661354000000000055815000000000000000000000000036567000000000000000000000000030473000000000000000000000000000000PES00010000002 00000000031959900000000000000000000000000                              000000000000000
202312220110000200000000000000000062                8000000000020218901949Zapata Nestor Javier          000000050000000000000000000000000000000000000000000000000000000000000000000000000000000000000000000000000000000000000000PES00010000000 00000000000000000000000000000000000000000                              000000000000000
202312110010000100000000000000123160                8000000000027138430702Bernardi Susana Ines          000000003497413000000000000000000000000000000000000000000000000000000000000000000000000000000000000000000000000000000000PES00010000001 00000000060698900000000000000000000000000                              000000000000000
202312110010000100000000000000123159                8000000000027138430702Bernardi Susana Ines          000000003500016000000000000000000000000000000000000000000000000000000000000000000000000000000000000000000000000000000000PES00010000001 00000000060744100000000000000000000000000                              000000000000000
202312110010000100000000000000123158                8000000000027138430702Bernardi Susana Ines          000000003414482000000000000000000000000000000000000000000000000000000000000000000000000000000000000000000000000000000000PES00010000001 00000000059259600000000000000000000000000                              000000000000000
202312110010000100000000000000123157                8000000000027138430702Bernardi Susana Ines          000000003393760000000000000000000000000000000000000000000000000000000000000000000000000000000000000000000000000000000000PES00010000001 00000000058900000000000000000000000000000                              000000000000000
202312110010000100000000000000123156                8000000000027138430702Bernardi Susana Ines          000000003490800000000000000000000000000000000000000000000000000000000000000000000000000000000000000000000000000000000000PES00010000001 00000000060584100000000000000000000000000                              000000000000000
202312110010000100000000000000123155                8000000000027138430702Bernardi Susana Ines          000000003482283000000000000000000000000000000000000000000000000000000000000000000000000000000000000000000000000000000000PES00010000001 00000000060436300000000000000000000000000                              000000000000000
202312110010000100000000000000123154                8000000000027138430702Bernardi Susana Ines          000000003473547000000000000000000000000000000000000000000000000000000000000000000000000000000000000000000000000000000000PES00010000001 00000000060284700000000000000000000000000                              000000000000000
202312110010000100000000000000123153                8000000000027138430702Bernardi Susana Ines          000000003201958000000000000000000000000000000000000000000000000000000000000000000000000000000000000000000000000000000000PES00010000001 00000000055571200000000000000000000000000                              000000000000000
202312110010000100000000000000123152                8000000000027138430702Bernardi Susana Ines          000000003486760000000000000000000000000000000000000000000000000000000000000000000000000000000000000000000000000000000000PES00010000001 00000000060514000000000000000000000000000                              000000000000000
202312110010000100000000000000123151                8000000000027138430702Bernardi Susana Ines          000000003403265000000000000000000000000000000000000000000000000000000000000000000000000000000000000000000000000000000000PES00010000001 00000000059064900000000000000000000000000                              000000000000000
202312110010000100000000000000123150                8000000000027138430702Bernardi Susana Ines          000000003476853000000000000000000000000000000000000000000000000000000000000000000000000000000000000000000000000000000000PES00010000001 00000000060342100000000000000000000000000                              000000000000000
202312110010000100000000000000123149                8000000000027138430702Bernardi Susana Ines          000000003328641000000000000000000000000000000000000000000000000000000000000000000000000000000000000000000000000000000000PES00010000001 00000000057769800000000000000000000000000                              000000000000000
202312110010000100000000000000123148                8000000000027138430702Bernardi Susana Ines          000000003458594000000000000000000000000000000000000000000000000000000000000000000000000000000000000000000000000000000000PES00010000001 00000000060025200000000000000000000000000                              000000000000000
202312110010000100000000000000123147                8000000000027138430702Bernardi Susana Ines          000000002853198000000000000000000000000000000000000000000000000000000000000000000000000000000000000000000000000000000000PES00010000001 00000000049518300000000000000000000000000                              000000000000000
202312110010000100000000000000123146                8000000000027138430702Bernardi Susana Ines          000000003504937000000000000000000000000000000000000000000000000000000000000000000000000000000000000000000000000000000000PES00010000001 00000000060829500000000000000000000000000                              000000000000000
202312110010000100000000000000123145                8000000000027138430702Bernardi Susana Ines          000000003505745000000000000000000000000000000000000000000000000000000000000000000000000000000000000000000000000000000000PES00010000001 00000000060843500000000000000000000000000                              000000000000000
202312110010000100000000000000123144                8000000000027138430702Bernardi Susana Ines          000000003494129000000000000000000000000000000000000000000000000000000000000000000000000000000000000000000000000000000000PES00010000001 00000000060641900000000000000000000000000                              000000000000000
202312110010000100000000000000123143                8000000000027138430702Bernardi Susana Ines          000000003479924000000000000000000000000000000000000000000000000000000000000000000000000000000000000000000000000000000000PES00010000001 00000000060395400000000000000000000000000                              000000000000000
202312110010000100000000000000123142                8000000000027138430702Bernardi Susana Ines          000000003212992000000000000000000000000000000000000000000000000000000000000000000000000000000000000000000000000000000000PES00010000001 00000000055762700000000000000000000000000                              000000000000000
202312110010000100000000000000123141                8000000000027138430702Bernardi Susana Ines          000000003505092000000000000000000000000000000000000000000000000000000000000000000000000000000000000000000000000000000000PES00010000001 00000000060832200000000000000000000000000                              000000000000000
202312110010000100000000000000123140                8000000000027138430702Bernardi Susana Ines          000000003420322000000000000000000000000000000000000000000000000000000000000000000000000000000000000000000000000000000000PES00010000001 00000000059361000000000000000000000000000                              000000000000000
202312110010000100000000000000123139                8000000000027138430702Bernardi Susana Ines          000000003415449000000000000000000000000000000000000000000000000000000000000000000000000000000000000000000000000000000000PES00010000001 00000000059276400000000000000000000000000                              000000000000000
202312220010000400000000000000137640                8000000000030618141434Girgenti S.R.L.               000000003491673000000000000000000000000000000000000000000000000000000000000000000000000000000000000000000000000000000000PES00010000001 00000000060599300000000000000000000000000                              000000000000000
202312220010000400000000000000137639                8000000000030618141434Girgenti S.R.L.               000000003472932000000000000000000000000000000000000000000000000000000000000000000000000000000000000000000000000000000000PES00010000001 00000000060274000000000000000000000000000                              000000000000000
202312220010000400000000000000137638                8000000000030618141434Girgenti S.R.L.               000000003485504000000000000000000000000000000000000000000000000000000000000000000000000000000000000000000000000000000000PES00010000001 00000000060492200000000000000000000000000                              000000000000000
202312220010000400000000000000137637                8000000000030618141434Girgenti S.R.L.               000000003438452000000000000000000000000000000000000000000000000000000000000000000000000000000000000000000000000000000000PES00010000001 00000000059675600000000000000000000000000                              000000000000000
202312220010000400000000000000137636                8000000000030618141434Girgenti S.R.L.               000000003424414000000000000000000000000000000000000000000000000000000000000000000000000000000000000000000000000000000000PES00010000001 00000000059432000000000000000000000000000                              000000000000000
202312220010000400000000000000137635                8000000000030618141434Girgenti S.R.L.               000000003500641000000000000000000000000000000000000000000000000000000000000000000000000000000000000000000000000000000000PES00010000001 00000000060754900000000000000000000000000                              000000000000000
202312220010000400000000000000137634                8000000000030618141434Girgenti S.R.L.               000000003488109000000000000000000000000000000000000000000000000000000000000000000000000000000000000000000000000000000000PES00010000001 00000000060537400000000000000000000000000                              000000000000000
202312220010000400000000000000137633                8000000000030618141434Girgenti S.R.L.               000000003443817000000000000000000000000000000000000000000000000000000000000000000000000000000000000000000000000000000000PES00010000001 00000000059768700000000000000000000000000                              000000000000000
202312220010000400000000000000137632                8000000000030618141434Girgenti S.R.L.               000000003495400000000000000000000000000000000000000000000000000000000000000000000000000000000000000000000000000000000000PES00010000001 00000000060664000000000000000000000000000                              000000000000000
202312220010000400000000000000137631                8000000000030618141434Girgenti S.R.L.               000000003301800000000000000000000000000000000000000000000000000000000000000000000000000000000000000000000000000000000000PES00010000001 00000000057304000000000000000000000000000                              000000000000000
202312220010000400000000000000137630                8000000000030618141434Girgenti S.R.L.               000000003503202000000000000000000000000000000000000000000000000000000000000000000000000000000000000000000000000000000000PES00010000001 00000000060799400000000000000000000000000                              000000000000000
202312220010000400000000000000137629                8000000000030618141434Girgenti S.R.L.               000000003340730000000000000000000000000000000000000000000000000000000000000000000000000000000000000000000000000000000000PES00010000001 00000000057979600000000000000000000000000                              000000000000000
202312220010000400000000000000137628                8000000000030618141434Girgenti S.R.L.               000000003418248000000000000000000000000000000000000000000000000000000000000000000000000000000000000000000000000000000000PES00010000001 00000000059325000000000000000000000000000                              000000000000000
202312220010000400000000000000137627                8000000000030618141434Girgenti S.R.L.               000000003398020000000000000000000000000000000000000000000000000000000000000000000000000000000000000000000000000000000000PES00010000001 00000000058973900000000000000000000000000                              000000000000000
202312220010000400000000000000137626                8000000000030618141434Girgenti S.R.L.               000000003477304000000000000000000000000000000000000000000000000000000000000000000000000000000000000000000000000000000000PES00010000001 00000000060349900000000000000000000000000                              000000000000000
202312220010000400000000000000137625                8000000000030618141434Girgenti S.R.L.               000000003443786000000000000000000000000000000000000000000000000000000000000000000000000000000000000000000000000000000000PES00010000001 00000000059768200000000000000000000000000                              000000000000000
202312220010000400000000000000137624                8000000000030618141434Girgenti S.R.L.               000000003494751000000000000000000000000000000000000000000000000000000000000000000000000000000000000000000000000000000000PES00010000001 00000000060652700000000000000000000000000                              000000000000000
202312220010000400000000000000137623                8000000000030618141434Girgenti S.R.L.               000000003468167000000000000000000000000000000000000000000000000000000000000000000000000000000000000000000000000000000000PES00010000001 00000000060191300000000000000000000000000                              000000000000000
202312220010000400000000000000137622                8000000000030618141434Girgenti S.R.L.               000000003444380000000000000000000000000000000000000000000000000000000000000000000000000000000000000000000000000000000000PES00010000001 00000000059778500000000000000000000000000                              000000000000000
202312220010000400000000000000137621                8000000000030618141434Girgenti S.R.L.               000000003451743000000000000000000000000000000000000000000000000000000000000000000000000000000000000000000000000000000000PES00010000001 00000000059906300000000000000000000000000                              000000000000000
202312220010000400000000000000137620                8000000000030618141434Girgenti S.R.L.               000000003461471000000000000000000000000000000000000000000000000000000000000000000000000000000000000000000000000000000000PES00010000001 00000000060075100000000000000000000000000                              000000000000000
202312220010000400000000000000137619                8000000000030618141434Girgenti S.R.L.               000000003484147000000000000000000000000000000000000000000000000000000000000000000000000000000000000000000000000000000000PES00010000001 00000000060468700000000000000000000000000                              000000000000000
202312110010000100000000000000123138                8000000000027138430702Bernardi Susana Ines          000000003472206000000000000000000000000000000000000000000000000000000000000000000000000000000000000000000000000000000000PES00010000001 00000000060261400000000000000000000000000                              000000000000000
202312110010000100000000000000123137                8000000000027138430702Bernardi Susana Ines          000000002908148000000000000000000000000000000000000000000000000000000000000000000000000000000000000000000000000000000000PES00010000001 00000000050472000000000000000000000000000                              000000000000000
202312110010000100000000000000123136                8000000000027138430702Bernardi Susana Ines          000000003494630000000000000000000000000000000000000000000000000000000000000000000000000000000000000000000000000000000000PES00010000001 00000000060650600000000000000000000000000                              000000000000000
202312110010000100000000000000123135                8000000000027138430702Bernardi Susana Ines          000000003154593000000000000000000000000000000000000000000000000000000000000000000000000000000000000000000000000000000000PES00010000001 00000000054749100000000000000000000000000                              000000000000000
202312110010000100000000000000123134                8000000000027138430702Bernardi Susana Ines          000000003471999000000000000000000000000000000000000000000000000000000000000000000000000000000000000000000000000000000000PES00010000001 00000000060257800000000000000000000000000                              000000000000000
202312110010000100000000000000123133                8000000000027138430702Bernardi Susana Ines          000000003437991000000000000000000000000000000000000000000000000000000000000000000000000000000000000000000000000000000000PES00010000001 00000000059667600000000000000000000000000                              000000000000000
202312110010000100000000000000123132                8000000000027138430702Bernardi Susana Ines          000000003498812000000000000000000000000000000000000000000000000000000000000000000000000000000000000000000000000000000000PES00010000001 00000000060723200000000000000000000000000                              000000000000000
202312110010000100000000000000123131                8000000000027138430702Bernardi Susana Ines          000000003501396000000000000000000000000000000000000000000000000000000000000000000000000000000000000000000000000000000000PES00010000001 00000000060768000000000000000000000000000                              000000000000000
202312110010000100000000000000123130                8000000000027138430702Bernardi Susana Ines          000000003492597000000000000000000000000000000000000000000000000000000000000000000000000000000000000000000000000000000000PES00010000001 00000000060615300000000000000000000000000                              000000000000000
202312110010000100000000000000123129                8000000000027138430702Bernardi Susana Ines          000000003494601000000000000000000000000000000000000000000000000000000000000000000000000000000000000000000000000000000000PES00010000001 00000000060650100000000000000000000000000                              000000000000000
202312110010000100000000000000123128                8000000000027138430702Bernardi Susana Ines          000000003496358000000000000000000000000000000000000000000000000000000000000000000000000000000000000000000000000000000000PES00010000001 00000000060680600000000000000000000000000                              000000000000000
202312110010000100000000000000123127                8000000000027138430702Bernardi Susana Ines          000000003458214000000000000000000000000000000000000000000000000000000000000000000000000000000000000000000000000000000000PES00010000001 00000000060018600000000000000000000000000                              000000000000000
202312110010000100000000000000123126                8000000000027138430702Bernardi Susana Ines          000000003461873000000000000000000000000000000000000000000000000000000000000000000000000000000000000000000000000000000000PES00010000001 00000000060082100000000000000000000000000                              000000000000000
202312110010000100000000000000123125                8000000000027138430702Bernardi Susana Ines          000000003508002000000000000000000000000000000000000000000000000000000000000000000000000000000000000000000000000000000000PES00010000001 00000000060882700000000000000000000000000                              000000000000000
202312110010000100000000000000123124                8000000000027138430702Bernardi Susana Ines          000000003468518000000000000000000000000000000000000000000000000000000000000000000000000000000000000000000000000000000000PES00010000001 00000000060197400000000000000000000000000                              000000000000000
202312110010000300000000000000188656                8000000000030614476660Acima R S.A.                  000000003427591000000000000000000000000000000000000000000000000000000000000000000000000000000000000000000000000000000000PES00010000001 00000000059487100000000000000000000000000                              000000000000000
202312110010000300000000000000188655                8000000000030614476660Acima R S.A.                  000000003416556000000000000000000000000000000000000000000000000000000000000000000000000000000000000000000000000000000000PES00010000001 00000000059295600000000000000000000000000                              000000000000000
202312110010000300000000000000188654                8000000000030614476660Acima R S.A.                  000000003542081000000000000000000000000000000000000000000000000000000000000000000000000000000000000000000000000000000000PES00010000001 00000000061474100000000000000000000000000                              000000000000000
202312110010000300000000000000188653                8000000000030614476660Acima R S.A.                  000000003595286000000000000000000000000000000000000000000000000000000000000000000000000000000000000000000000000000000000PES00010000001 00000000062397500000000000000000000000000                              000000000000000
202312110010000300000000000000188652                8000000000030614476660Acima R S.A.                  000000003607276000000000000000000000000000000000000000000000000000000000000000000000000000000000000000000000000000000000PES00010000001 00000000062605600000000000000000000000000                              000000000000000
202312110010000300000000000000188651                8000000000030614476660Acima R S.A.                  000000003446068000000000000000000000000000000000000000000000000000000000000000000000000000000000000000000000000000000000PES00010000001 00000000059807800000000000000000000000000                              000000000000000
202312110010000300000000000000188650                8000000000030614476660Acima R S.A.                  000000003517906000000000000000000000000000000000000000000000000000000000000000000000000000000000000000000000000000000000PES00010000001 00000000061054600000000000000000000000000                              000000000000000
202312220010000400000000000000137618                8000000000030618141434Girgenti S.R.L.               000000003492459000000000000000000000000000000000000000000000000000000000000000000000000000000000000000000000000000000000PES00010000001 00000000060612900000000000000000000000000                              000000000000000
202312220010000400000000000000137617                8000000000030618141434Girgenti S.R.L.               000000003450891000000000000000000000000000000000000000000000000000000000000000000000000000000000000000000000000000000000PES00010000001 00000000059891500000000000000000000000000                              000000000000000
202312220010000400000000000000137616                8000000000030618141434Girgenti S.R.L.               000000003463067000000000000000000000000000000000000000000000000000000000000000000000000000000000000000000000000000000000PES00010000001 00000000060102800000000000000000000000000                              000000000000000
202312210010000100000000000000131826                8000000000033709095949Hierro Total S.R.L.           000000003365102000000000000000000000000000000000000000000000000000000000000000000000000000000000000000000000000000000000PES00010000001 00000000058402600000000000000000000000000                              000000000000000
202312210010000100000000000000131825                8000000000033709095949Hierro Total S.R.L.           000000003494250000000000000000000000000000000000000000000000000000000000000000000000000000000000000000000000000000000000PES00010000001 00000000060644000000000000000000000000000                              000000000000000
202312210010000100000000000000131824                8000000000033709095949Hierro Total S.R.L.           000000003494250000000000000000000000000000000000000000000000000000000000000000000000000000000000000000000000000000000000PES00010000001 00000000060644000000000000000000000000000                              000000000000000
202312210010000100000000000000131823                8000000000033709095949Hierro Total S.R.L.           000000003405866000000000000000000000000000000000000000000000000000000000000000000000000000000000000000000000000000000000PES00010000001 00000000059110100000000000000000000000000                              000000000000000
202312210010000100000000000000131822                8000000000033709095949Hierro Total S.R.L.           000000003458047000000000000000000000000000000000000000000000000000000000000000000000000000000000000000000000000000000000PES00010000001 00000000060015700000000000000000000000000                              000000000000000
202312210010000100000000000000131821                8000000000033709095949Hierro Total S.R.L.           000000003549036000000000000000000000000000000000000000000000000000000000000000000000000000000000000000000000000000000000PES00010000001 00000000061594800000000000000000000000000                              000000000000000
202312210010000100000000000000131820                8000000000033709095949Hierro Total S.R.L.           000000003462541000000000000000000000000000000000000000000000000000000000000000000000000000000000000000000000000000000000PES00010000001 00000000060093700000000000000000000000000                              000000000000000
202312210010000100000000000000131819                8000000000033709095949Hierro Total S.R.L.           000000003384438000000000000000000000000000000000000000000000000000000000000000000000000000000000000000000000000000000000PES00010000001 00000000058738200000000000000000000000000                              000000000000000
202312210010000100000000000000131818                8000000000033709095949Hierro Total S.R.L.           000000003504358000000000000000000000000000000000000000000000000000000000000000000000000000000000000000000000000000000000PES00010000001 00000000060819400000000000000000000000000                              000000000000000
202312210010000100000000000000131817                8000000000033709095949Hierro Total S.R.L.           000000003374551000000000000000000000000000000000000000000000000000000000000000000000000000000000000000000000000000000000PES00010000001 00000000058566600000000000000000000000000                              000000000000000
202312210010000100000000000000131816                8000000000033709095949Hierro Total S.R.L.           000000003459895000000000000000000000000000000000000000000000000000000000000000000000000000000000000000000000000000000000PES00010000001 00000000060047800000000000000000000000000                              000000000000000
202312210010000100000000000000131815                8000000000033709095949Hierro Total S.R.L.           000000003459895000000000000000000000000000000000000000000000000000000000000000000000000000000000000000000000000000000000PES00010000001 00000000060047800000000000000000000000000                              000000000000000
202312210010000100000000000000131814                8000000000033709095949Hierro Total S.R.L.           000000003495332000000000000000000000000000000000000000000000000000000000000000000000000000000000000000000000000000000000PES00010000001 00000000060662800000000000000000000000000                              000000000000000
202312210010000100000000000000131813                8000000000033709095949Hierro Total S.R.L.           000000003438226000000000000000000000000000000000000000000000000000000000000000000000000000000000000000000000000000000000PES00010000001 00000000059671700000000000000000000000000                              000000000000000
202312210010000100000000000000131812                8000000000033709095949Hierro Total S.R.L.           000000003326958000000000000000000000000000000000000000000000000000000000000000000000000000000000000000000000000000000000PES00010000001 00000000057740600000000000000000000000000                              000000000000000
202312210010000100000000000000131811                8000000000033709095949Hierro Total S.R.L.           000000003356703000000000000000000000000000000000000000000000000000000000000000000000000000000000000000000000000000000000PES00010000001 00000000058256800000000000000000000000000                              000000000000000
202312210010000100000000000000131810                8000000000033709095949Hierro Total S.R.L.           000000003356703000000000000000000000000000000000000000000000000000000000000000000000000000000000000000000000000000000000PES00010000001 00000000058256800000000000000000000000000                              000000000000000
202312210010000100000000000000131809                8000000000033709095949Hierro Total S.R.L.           000000003451564000000000000000000000000000000000000000000000000000000000000000000000000000000000000000000000000000000000PES00010000001 00000000059903200000000000000000000000000                              000000000000000
202312210010000100000000000000131808                8000000000033709095949Hierro Total S.R.L.           000000003506602000000000000000000000000000000000000000000000000000000000000000000000000000000000000000000000000000000000PES00010000001 00000000060858400000000000000000000000000                              000000000000000
202312110010000300000000000000188649                8000000000030614476660Acima R S.A.                  000000003406321000000000000000000000000000000000000000000000000000000000000000000000000000000000000000000000000000000000PES00010000001 00000000059118000000000000000000000000000                              000000000000000
202312110010000300000000000000188648                8000000000030614476660Acima R S.A.                  000000003555875000000000000000000000000000000000000000000000000000000000000000000000000000000000000000000000000000000000PES00010000001 00000000061713500000000000000000000000000                              000000000000000
202312110010000300000000000000188647                8000000000030614476660Acima R S.A.                  000000003437925000000000000000000000000000000000000000000000000000000000000000000000000000000000000000000000000000000000PES00010000001 00000000059666500000000000000000000000000                              000000000000000
202312110010000300000000000000188646                8000000000030614476660Acima R S.A.                  000000003554341000000000000000000000000000000000000000000000000000000000000000000000000000000000000000000000000000000000PES00010000001 00000000061686900000000000000000000000000                              000000000000000
202312110010000300000000000000188645                8000000000030614476660Acima R S.A.                  000000003495230000000000000000000000000000000000000000000000000000000000000000000000000000000000000000000000000000000000PES00010000001 00000000060661000000000000000000000000000                              000000000000000
202312110010000300000000000000188644                8000000000030614476660Acima R S.A.                  000000003484147000000000000000000000000000000000000000000000000000000000000000000000000000000000000000000000000000000000PES00010000001 00000000060468700000000000000000000000000                              000000000000000
202312110010000300000000000000188643                8000000000030614476660Acima R S.A.                  000000003022914000000000000000000000000000000000000000000000000000000000000000000000000000000000000000000000000000000000PES00010000001 00000000052463800000000000000000000000000                              000000000000000
202312110010000300000000000000188642                8000000000030614476660Acima R S.A.                  000000003454937000000000000000000000000000000000000000000000000000000000000000000000000000000000000000000000000000000000PES00010000001 00000000059961700000000000000000000000000                              000000000000000
202312110010000300000000000000188641                8000000000030614476660Acima R S.A.                  000000003399214000000000000000000000000000000000000000000000000000000000000000000000000000000000000000000000000000000000PES00010000001 00000000058994600000000000000000000000000                              000000000000000
202312110010000300000000000000188640                8000000000030614476660Acima R S.A.                  000000003451869000000000000000000000000000000000000000000000000000000000000000000000000000000000000000000000000000000000PES00010000001 00000000059908500000000000000000000000000                              000000000000000
202312110010000300000000000000188639                8000000000030614476660Acima R S.A.                  000000003399214000000000000000000000000000000000000000000000000000000000000000000000000000000000000000000000000000000000PES00010000001 00000000058994600000000000000000000000000                              000000000000000
202312110010000300000000000000188638                8000000000030614476660Acima R S.A.                  000000003491261000000000000000000000000000000000000000000000000000000000000000000000000000000000000000000000000000000000PES00010000001 00000000060592100000000000000000000000000                              000000000000000
202312110010000300000000000000188637                8000000000030614476660Acima R S.A.                  000000003484038000000000000000000000000000000000000000000000000000000000000000000000000000000000000000000000000000000000PES00010000001 00000000060466800000000000000000000000000                              000000000000000
202312110010000300000000000000188636                8000000000030614476660Acima R S.A.                  000000003430524000000000000000000000000000000000000000000000000000000000000000000000000000000000000000000000000000000000PES00010000001 00000000059538000000000000000000000000000                              000000000000000
202312110010000300000000000000188635                8000000000030614476660Acima R S.A.                  000000003412224000000000000000000000000000000000000000000000000000000000000000000000000000000000000000000000000000000000PES00010000001 00000000059220400000000000000000000000000                              000000000000000
202312110010000300000000000000188634                8000000000030614476660Acima R S.A.                  000000003552318000000000000000000000000000000000000000000000000000000000000000000000000000000000000000000000000000000000PES00010000001 00000000061651800000000000000000000000000                              000000000000000
202312110010000300000000000000188633                8000000000030614476660Acima R S.A.                  000000003437925000000000000000000000000000000000000000000000000000000000000000000000000000000000000000000000000000000000PES00010000001 00000000059666500000000000000000000000000                              000000000000000
202312110010000300000000000000188632                8000000000030614476660Acima R S.A.                  000000003403101000000000000000000000000000000000000000000000000000000000000000000000000000000000000000000000000000000000PES00010000001 00000000059062100000000000000000000000000                              000000000000000
202312110010000300000000000000188631                8000000000030614476660Acima R S.A.                  000000003489640000000000000000000000000000000000000000000000000000000000000000000000000000000000000000000000000000000000PES00010000001 00000000060564000000000000000000000000000                              000000000000000
202312110010000300000000000000188630                8000000000030614476660Acima R S.A.                  000000003404468000000000000000000000000000000000000000000000000000000000000000000000000000000000000000000000000000000000PES00010000001 00000000059085800000000000000000000000000                              000000000000000
202312110010000300000000000000188629                8000000000030614476660Acima R S.A.                  000000003389996000000000000000000000000000000000000000000000000000000000000000000000000000000000000000000000000000000000PES00010000001 00000000058834600000000000000000000000000                              000000000000000
202312110010000300000000000000188628                8000000000030614476660Acima R S.A.                  000000003459051000000000000000000000000000000000000000000000000000000000000000000000000000000000000000000000000000000000PES00010000001 00000000060033100000000000000000000000000                              000000000000000
202312210010000100000000000000131807                8000000000033709095949Hierro Total S.R.L.           000000003391010000000000000000000000000000000000000000000000000000000000000000000000000000000000000000000000000000000000PES00010000001 00000000058852200000000000000000000000000                              000000000000000
202312210010000100000000000000131806                8000000000033709095949Hierro Total S.R.L.           000000003396712000000000000000000000000000000000000000000000000000000000000000000000000000000000000000000000000000000000PES00010000001 00000000058951200000000000000000000000000                              000000000000000
202312210010000100000000000000131805                8000000000033709095949Hierro Total S.R.L.           000000003399580000000000000000000000000000000000000000000000000000000000000000000000000000000000000000000000000000000000PES00010000001 00000000059001000000000000000000000000000                              000000000000000
202312210010000100000000000000131804                8000000000033709095949Hierro Total S.R.L.           000000003404262000000000000000000000000000000000000000000000000000000000000000000000000000000000000000000000000000000000PES00010000001 00000000059082200000000000000000000000000                              000000000000000
202312210010000100000000000000131803                8000000000033709095949Hierro Total S.R.L.           000000003366871000000000000000000000000000000000000000000000000000000000000000000000000000000000000000000000000000000000PES00010000001 00000000058433300000000000000000000000000                              000000000000000
202312210010000100000000000000131802                8000000000033709095949Hierro Total S.R.L.           000000003352177000000000000000000000000000000000000000000000000000000000000000000000000000000000000000000000000000000000PES00010000001 00000000058178300000000000000000000000000                              000000000000000
202312210010000100000000000000131801                8000000000033709095949Hierro Total S.R.L.           000000003580632000000000000000000000000000000000000000000000000000000000000000000000000000000000000000000000000000000000PES00010000001 00000000062143200000000000000000000000000                              000000000000000
202312210010000100000000000000131800                8000000000033709095949Hierro Total S.R.L.           000000003459749000000000000000000000000000000000000000000000000000000000000000000000000000000000000000000000000000000000PES00010000001 00000000060045200000000000000000000000000                              000000000000000
202312210010000100000000000000131799                8000000000033709095949Hierro Total S.R.L.           000000003159403000000000000000000000000000000000000000000000000000000000000000000000000000000000000000000000000000000000PES00010000001 00000000054832600000000000000000000000000                              000000000000000
202312210010000100000000000000131798                8000000000033709095949Hierro Total S.R.L.           000000003413783000000000000000000000000000000000000000000000000000000000000000000000000000000000000000000000000000000000PES00010000001 00000000059247500000000000000000000000000                              000000000000000
202312210010000100000000000000131797                8000000000033709095949Hierro Total S.R.L.           000000003402179000000000000000000000000000000000000000000000000000000000000000000000000000000000000000000000000000000000PES00010000001 00000000059046100000000000000000000000000                              000000000000000
202312210010000100000000000000131796                8000000000033709095949Hierro Total S.R.L.           000000003510137000000000000000000000000000000000000000000000000000000000000000000000000000000000000000000000000000000000PES00010000001 00000000060919700000000000000000000000000                              000000000000000
202312210010000100000000000000131795                8000000000033709095949Hierro Total S.R.L.           000000003452516000000000000000000000000000000000000000000000000000000000000000000000000000000000000000000000000000000000PES00010000001 00000000059919700000000000000000000000000                              000000000000000
202312210010000100000000000000131794                8000000000033709095949Hierro Total S.R.L.           000000003450754000000000000000000000000000000000000000000000000000000000000000000000000000000000000000000000000000000000PES00010000001 00000000059889100000000000000000000000000                              000000000000000
202312210010000100000000000000131793                8000000000033709095949Hierro Total S.R.L.           000000003447917000000000000000000000000000000000000000000000000000000000000000000000000000000000000000000000000000000000PES00010000001 00000000059839900000000000000000000000000                              000000000000000
202312210010000100000000000000131792                8000000000033709095949Hierro Total S.R.L.           000000003443665000000000000000000000000000000000000000000000000000000000000000000000000000000000000000000000000000000000PES00010000001 00000000059766100000000000000000000000000                              000000000000000
202312210010000100000000000000131791                8000000000033709095949Hierro Total S.R.L.           000000003460554000000000000000000000000000000000000000000000000000000000000000000000000000000000000000000000000000000000PES00010000001 00000000060059200000000000000000000000000                              000000000000000
202312210010000100000000000000131790                8000000000033709095949Hierro Total S.R.L.           000000003420309000000000000000000000000000000000000000000000000000000000000000000000000000000000000000000000000000000000PES00010000001 00000000059360700000000000000000000000000                              000000000000000
202312210010000100000000000000131789                8000000000033709095949Hierro Total S.R.L.           000000003444891000000000000000000000000000000000000000000000000000000000000000000000000000000000000000000000000000000000PES00010000001 00000000059787400000000000000000000000000                              000000000000000
202312210010000100000000000000131788                8000000000033709095949Hierro Total S.R.L.           000000003438583000000000000000000000000000000000000000000000000000000000000000000000000000000000000000000000000000000000PES00010000001 00000000059677900000000000000000000000000                              000000000000000
202312210010000100000000000000155826                8000000000030663116874Celentano Jorge y Delatorre P.000000003334847000000000000000000000000000000000000000000000000000000000000000000000000000000000000000000000000000000000PES00010000001 00000000057877500000000000000000000000000                              000000000000000
202312210010000100000000000000155825                8000000000030663116874Celentano Jorge y Delatorre P.000000003346747000000000000000000000000000000000000000000000000000000000000000000000000000000000000000000000000000000000PES00010000001 00000000058084000000000000000000000000000                              000000000000000
202312120010001000000000000000000816                8000000000030717454738Estrecom S.A.                 000000000808384000000000000000000000000000000000000000000000000000000000000000000000000000000000000000000000000000000000PES00010000001 00000000014029800000000000000000000000000                              000000000000000
202312110010000300000000000000188627                8000000000030614476660Acima R S.A.                  000000003437925000000000000000000000000000000000000000000000000000000000000000000000000000000000000000000000000000000000PES00010000001 00000000059666500000000000000000000000000                              000000000000000
202312110010000300000000000000188626                8000000000030614476660Acima R S.A.                  000000003489700000000000000000000000000000000000000000000000000000000000000000000000000000000000000000000000000000000000PES00010000001 00000000060565000000000000000000000000000                              000000000000000
202312110010000300000000000000188625                8000000000030614476660Acima R S.A.                  000000003489911000000000000000000000000000000000000000000000000000000000000000000000000000000000000000000000000000000000PES00010000001 00000000060568700000000000000000000000000                              000000000000000
202312110010000300000000000000188624                8000000000030614476660Acima R S.A.                  000000003435316000000000000000000000000000000000000000000000000000000000000000000000000000000000000000000000000000000000PES00010000001 00000000059621200000000000000000000000000                              000000000000000
202312110010000300000000000000188623                8000000000030614476660Acima R S.A.                  000000003412224000000000000000000000000000000000000000000000000000000000000000000000000000000000000000000000000000000000PES00010000001 00000000059220400000000000000000000000000                              000000000000000
202312110010000300000000000000188622                8000000000030614476660Acima R S.A.                  000000003399041000000000000000000000000000000000000000000000000000000000000000000000000000000000000000000000000000000000PES00010000001 00000000058991600000000000000000000000000                              000000000000000
202312110010000300000000000000188621                8000000000030614476660Acima R S.A.                  000000003466483000000000000000000000000000000000000000000000000000000000000000000000000000000000000000000000000000000000PES00010000001 00000000060162100000000000000000000000000                              000000000000000
202312110010000300000000000000188620                8000000000030614476660Acima R S.A.                  000000003478542000000000000000000000000000000000000000000000000000000000000000000000000000000000000000000000000000000000PES00010000001 00000000060371400000000000000000000000000                              000000000000000
202312110010000300000000000000188619                8000000000030614476660Acima R S.A.                  000000003521560000000000000000000000000000000000000000000000000000000000000000000000000000000000000000000000000000000000PES00010000001 00000000061118000000000000000000000000000                              000000000000000
202312110010000300000000000000188618                8000000000030614476660Acima R S.A.                  000000003478542000000000000000000000000000000000000000000000000000000000000000000000000000000000000000000000000000000000PES00010000001 00000000060371400000000000000000000000000                              000000000000000
202312110010000300000000000000188617                8000000000030614476660Acima R S.A.                  000000003402714000000000000000000000000000000000000000000000000000000000000000000000000000000000000000000000000000000000PES00010000001 00000000059055400000000000000000000000000                              000000000000000
202312110010000300000000000000188616                8000000000030614476660Acima R S.A.                  000000003419029000000000000000000000000000000000000000000000000000000000000000000000000000000000000000000000000000000000PES00010000001 00000000059338500000000000000000000000000                              000000000000000
202312110010000300000000000000188615                8000000000030614476660Acima R S.A.                  000000003402714000000000000000000000000000000000000000000000000000000000000000000000000000000000000000000000000000000000PES00010000001 00000000059055400000000000000000000000000                              000000000000000
202312110010000300000000000000188614                8000000000030614476660Acima R S.A.                  000000003419712000000000000000000000000000000000000000000000000000000000000000000000000000000000000000000000000000000000PES00010000001 00000000059350400000000000000000000000000                              000000000000000
202312110010000300000000000000188613                8000000000030614476660Acima R S.A.                  000000003448423000000000000000000000000000000000000000000000000000000000000000000000000000000000000000000000000000000000PES00010000001 00000000059848700000000000000000000000000                              000000000000000
202312110010000300000000000000188612                8000000000030614476660Acima R S.A.                  000000003389088000000000000000000000000000000000000000000000000000000000000000000000000000000000000000000000000000000000PES00010000001 00000000058818900000000000000000000000000                              000000000000000
202312110010000300000000000000188611                8000000000030614476660Acima R S.A.                  000000003499780000000000000000000000000000000000000000000000000000000000000000000000000000000000000000000000000000000000PES00010000001 00000000060740000000000000000000000000000                              000000000000000
202312210010000100000000000000155824                8000000000030663116874Celentano Jorge y Delatorre P.000000003474191000000000000000000000000000000000000000000000000000000000000000000000000000000000000000000000000000000000PES00010000001 00000000060295900000000000000000000000000                              000000000000000
202312210010000100000000000000155823                8000000000030663116874Celentano Jorge y Delatorre P.000000003341005000000000000000000000000000000000000000000000000000000000000000000000000000000000000000000000000000000000PES00010000001 00000000057984400000000000000000000000000                              000000000000000
202312210010000100000000000000155822                8000000000030663116874Celentano Jorge y Delatorre P.000000003152575000000000000000000000000000000000000000000000000000000000000000000000000000000000000000000000000000000000PES00010000001 00000000054714100000000000000000000000000                              000000000000000
202312210010000100000000000000155821                8000000000030663116874Celentano Jorge y Delatorre P.000000003377582000000000000000000000000000000000000000000000000000000000000000000000000000000000000000000000000000000000PES00010000001 00000000058619200000000000000000000000000                              000000000000000
202312210010000100000000000000155820                8000000000030663116874Celentano Jorge y Delatorre P.000000003424421000000000000000000000000000000000000000000000000000000000000000000000000000000000000000000000000000000000PES00010000001 00000000059432100000000000000000000000000                              000000000000000
202312210010000100000000000000155819                8000000000030663116874Celentano Jorge y Delatorre P.000000003280968000000000000000000000000000000000000000000000000000000000000000000000000000000000000000000000000000000000PES00010000001 00000000056942400000000000000000000000000                              000000000000000
202312210010000100000000000000155818                8000000000030663116874Celentano Jorge y Delatorre P.000000003469243000000000000000000000000000000000000000000000000000000000000000000000000000000000000000000000000000000000PES00010000001 00000000060210000000000000000000000000000                              000000000000000
202312210010000100000000000000155817                8000000000030663116874Celentano Jorge y Delatorre P.000000003306949000000000000000000000000000000000000000000000000000000000000000000000000000000000000000000000000000000000PES00010000001 00000000057393300000000000000000000000000                              000000000000000
202312210010000100000000000000155816                8000000000030663116874Celentano Jorge y Delatorre P.000000003320630000000000000000000000000000000000000000000000000000000000000000000000000000000000000000000000000000000000PES00010000001 00000000057630800000000000000000000000000                              000000000000000
202312210010000100000000000000155815                8000000000030663116874Celentano Jorge y Delatorre P.000000003347691000000000000000000000000000000000000000000000000000000000000000000000000000000000000000000000000000000000PES00010000001 00000000058100400000000000000000000000000                              000000000000000
202312210010000100000000000000155814                8000000000030663116874Celentano Jorge y Delatorre P.000000003452665000000000000000000000000000000000000000000000000000000000000000000000000000000000000000000000000000000000PES00010000001 00000000059922300000000000000000000000000                              000000000000000
