202303160010003700000000000000000391                80000000000307102387623M supermercados SRL          000000000447600000000000002633000000000000000000000000000000000000000000000000000000000000000000000000000000000000000000PES00010000002 00000000007610000000000000000000000000000                              000000000000000
202312220110000100000000000000000060                8000000000020245059729Zapata Fernando Paul          000000050000000000000000000000000000000000000000000000000000000000000000000000000000000000000000000000000000000000000000PES00010000000 00000000000000000000000000000000000000000                              000000000000000
202312160010002500000000000000004064                8000000000030520231346GIORGI AUTOMOTORES SA         000000000816600000000000000000000000000000000000000000000000000000000000000000000000016500000000000000000000000000000000PES00010000001 00000000013880000000000000000000000000000                              000000000000000
202312100010000900000000000000002244                8000000000030562033161Julio S Gatti y Cia SRL       000000003840600000000000195666000000000000000000000000000000000000000000000000000000000000000000000000000000000000000000PES00010000001 00000000063260000000000000000000000000000                              000000000000000
202312160010000500000000000000003894                8000000000020287701285Herrnan Piva                  000000003430000000000000000000000000000000000000000000000000000000000000000000000000000000000000000000000000000000000000PES00010000001 00000000059520000000000000000000000000000                              000000000000000
202312280010000400000000000000000164                8000000000030717974375P 476 Soluciones S.A.         000000001636300000000000000000000000000000000000000000000000000000000000000000000000000000000000000000000000000000000000PES00010000001 00000000028400000000000000000000000000000                              000000000000000
202312070010000400000000000000001556                8000000000020286452842Vicini Carlos                 000000010077800000000000000000000000000000000000000000000000000000000000000000000000000000000000000000000000000000000000PES00010000001 00000000174900000000000000000000000000000                              000000000000000
202312170010200000000000000000001324                8000000000020275503704Vertical Wor.s C.rdoba        000000007780000000000000000000000000000000000000000000000000000000000000000000000000000000000000000000000000000000000000PES00010000001 00000000135020000000000000000000000000000                              000000000000000
202312260010323200000000000000205443                8000000000030663005843Maxiconsumo S                 000000016580800000000000000000000000000000000000000000400800000000000000000000000000000000000000000000000000000000000000PES00010000002 00000000280600000000000000000000000000000                              000000000000000
202312290010000300000000000000001211                8000000000030716887126Gadol.atanSRL                 000000001139900000000000000000000000000000000000000000000000000000000000000000000000000000000000000000000000000000000000PES00010000001 00000000019780000000000000000000000000000                              000000000000000
202312010010000500000000000000000173                8000000000023046767969Zarlenga Mario Alberto        000000001369900000000000000000000000000000000000000000000000000000000000000000000000000000000000000000000000000000000000PES00010000001 00000000023770000000000000000000000000000                              000000000000000
202312010010000200000000000000000665                8000000000030717783189DC Equipamientos Deportivos   000000013794000000000000000000000000000000000000000000000000000000000000000000000000000000000000000000000000000000000000PES00010000001 00000000239400000000000000000000000000000                              000000000000000
202312050010000400000000000000000308                8000000000027328225943Distribuidora Portopelo       000000002612300000000000000000000000000000000000000000000000000000000000000000000000000000000000000000000000000000000000PES00010000001 00000000045330000000000000000000000000000                              000000000000000
202312060010636000000000000000000016                8000000000033707675069Buspac.                       000000001489000000000000000000000000000000000000000000000000000000000000000000000000000000000000000000000000000000000000PES00010000001 00000000025840000000000000000000000000000                              000000000000000
202312080010000500000000000000000374                8000000000023046882229D Girolamo Carlos Alberto     000000004800000000000000000000000000000000000000000000000000000000000000000000000000000000000000000000000000000000000000PES00010000001 00000000083300000000000000000000000000000                              000000000000000
202312080010006400000000000000000836                8000000000030715209833Gifel SRL                     000000003647800000000000000000000000000000000000000000000000000000000000000000000000073800000000000000000000000000000000PES00010000001 00000000062020000000000000000000000000000                              000000000000000
202312190010003700000000000000000637                80000000000307102387623M supermercados SRL          000000001566600000000000000000000000000000000000000000000000000000000000000000000000031700000000000000000000000000000000PES00010000002 00000000017040000000000000000000000000000                              000000000000000
202312140010004600000000000000000745                80000000000307102387623M supermercados SRL          000000002566600000000000000000000000000000000000000000000000000000000000000000000000051900000000000000000000000000000000PES00010000002 00000000040190000000000000000000000000000                              000000000000000
202312140010004600000000000000000744                80000000000307102387623M supermercados SRL          000000002755400000000000000000000000000000000000000000000000000000000000000000000000055700000000000000000000000000000000PES00010000002 00000000038880000000000000000000000000000                              000000000000000
202312290010003800000000000000000811                80000000000307102387623M supermercados SRL          000000002304400000000000000000000000000000000000000000000000000000000000000000000000046600000000000000000000000000000000PES00010000002 00000000024230000000000000000000000000000                              000000000000000
202312290010003800000000000000000810                80000000000307102387623M supermercados SRL          000000002960300000000000000000000000000000000000000000000000000000000000000000000000059900000000000000000000000000000000PES00010000002 00000000048730000000000000000000000000000                              000000000000000
202312290010003800000000000000000809                80000000000307102387623M supermercados SRL          000000002755900000000000000000000000000000000000000000000000000000000000000000000000055700000000000000000000000000000000PES00010000002 00000000039860000000000000000000000000000                              000000000000000
202312310010003800000000000000000816                80000000000307102387623M supermercados SRL          000000000809100000000000000000000000000000000000000000000000000000000000000000000000016300000000000000000000000000000000PES00010000002 00000000011710000000000000000000000000000                              000000000000000
202312070010003700000000000000000628                80000000000307102387623M supermercados SRL          000000002373500000000000000000000000000000000000000000000000000000000000000000000000048000000000000000000000000000000000PES00010000002 00000000035030000000000000000000000000000                              000000000000000
202312190010003800000000000000000797                80000000000307102387623M supermercados SRL          000000001255200000000000000000000000000000000000000000000000000000000000000000000000025400000000000000000000000000000000PES00010000002 00000000020300000000000000000000000000000                              000000000000000
202312140010003800000000000000000793                80000000000307102387623M supermercados SRL          000000002515700000000000012520000000000000000000000000000000000000000000000000000000050900000000000000000000000000000000PES00010000002 00000000037870000000000000000000000000000                              000000000000000
202312040010004600000000000000000735                80000000000307102387623M supermercados SRL          000000000876100000000000000000000000000000000000000000000000000000000000000000000000017700000000000000000000000000000000PES00010000001 00000000008150000000000000000000000000000                              000000000000000
202312040010004600000000000000000734                80000000000307102387623M supermercados SRL          000000003540800000000000000000000000000000000000000000000000000000000000000000000000071600000000000000000000000000000000PES00010000001 00000000032960000000000000000000000000000                              000000000000000
202312040010004600000000000000000733                80000000000307102387623M supermercados SRL          000000003161800000000000000000000000000000000000000000000000000000000000000000000000064000000000000000000000000000000000PES00010000002 00000000043650000000000000000000000000000                              000000000000000
202312260010004600000000000000000757                80000000000307102387623M supermercados SRL          000000006234000000000000000000000000000000000000000000000000000000000000000000000000126100000000000000000000000000000000PES00010000002 00000000095130000000000000000000000000000                              000000000000000
202312180010004500000000000000001195                80000000000307102387623M supermercados SRL          000000002829500000000000000000000000000000000000000000000000000000000000000000000000057200000000000000000000000000000000PES00010000002 00000000037490000000000000000000000000000                              000000000000000
202312180010004500000000000000001193                80000000000307102387623M supermercados SRL          000000002987200000000000004943000000000000000000000000000000000000000000000000000000060500000000000000000000000000000000PES00010000001 00000000050700000000000000000000000000000                              000000000000000
202312180010004500000000000000001194                80000000000307102387623M supermercados SRL          000000003012500000000000000000000000000000000000000000000000000000000000000000000000060900000000000000000000000000000000PES00010000002 00000000048230000000000000000000000000000                              000000000000000
202312180010004500000000000000001196                80000000000307102387623M supermercados SRL          000000002847400000000000000000000000000000000000000000000000000000000000000000000000057600000000000000000000000000000000PES00010000001 00000000026500000000000000000000000000000                              000000000000000
202312110010000200000000000000129870                8000000000030502309893Licari S.A.                   000000003442500000000000000000000000000000000000000000000000000000000000000000000000000000000000000000000000000000000000PES00010000001 00000000059740000000000000000000000000000                              000000000000000
202312110010000200000000000000129369                8000000000030502309893Licari S.A.                   000000003442500000000000000000000000000000000000000000000000000000000000000000000000000000000000000000000000000000000000PES00010000001 00000000059740000000000000000000000000000                              000000000000000
202312110010000200000000000000129368                8000000000030502309893Licari S.A.                   000000003442500000000000000000000000000000000000000000000000000000000000000000000000000000000000000000000000000000000000PES00010000001 00000000059740000000000000000000000000000                              000000000000000
202312110010000200000000000000129367                8000000000030502309893Licari S.A.                   000000003442500000000000000000000000000000000000000000000000000000000000000000000000000000000000000000000000000000000000PES00010000001 00000000059740000000000000000000000000000                              000000000000000
202312110010000200000000000000129366                8000000000030502309893Licari S.A.                   000000003442500000000000000000000000000000000000000000000000000000000000000000000000000000000000000000000000000000000000PES00010000001 00000000059740000000000000000000000000000                              000000000000000
202312110010000200000000000000129365                8000000000030502309893Licari S.A.                   000000003442500000000000000000000000000000000000000000000000000000000000000000000000000000000000000000000000000000000000PES00010000001 00000000059740000000000000000000000000000                              000000000000000
202312110010000200000000000000129364                8000000000030502309893Licari S.A.                   000000003442500000000000000000000000000000000000000000000000000000000000000000000000000000000000000000000000000000000000PES00010000001 00000000059740000000000000000000000000000                              000000000000000
202312110010000200000000000000129363                8000000000030502309893Licari S.A.                   000000003442500000000000000000000000000000000000000000000000000000000000000000000000000000000000000000000000000000000000PES00010000001 00000000059740000000000000000000000000000                              000000000000000
202312110010000200000000000000129362                8000000000030502309893Licari S.A.                   000000003442500000000000000000000000000000000000000000000000000000000000000000000000000000000000000000000000000000000000PES00010000001 00000000059740000000000000000000000000000                              000000000000000
202312210010000900000000000000122918                8000000000033682571239Triber S.A.                   000000003332300000000000000000000000000000000000000000000000000000000000000000000000000000000000000000000000000000000000PES00010000001 00000000057830000000000000000000000000000                              000000000000000
202312210010000900000000000000122917                8000000000033682571239Triber S.A.                   000000003273200000000000000000000000000000000000000000000000000000000000000000000000000000000000000000000000000000000000PES00010000001 00000000056800000000000000000000000000000                              000000000000000
202312210010000900000000000000122916                8000000000033682571239Triber S.A.                   000000003307700000000000000000000000000000000000000000000000000000000000000000000000000000000000000000000000000000000000PES00010000001 00000000057400000000000000000000000000000                              000000000000000
202312210010000900000000000000122915                8000000000033682571239Triber S.A.                   000000003320400000000000000000000000000000000000000000000000000000000000000000000000000000000000000000000000000000000000PES00010000001 00000000057620000000000000000000000000000                              000000000000000
202312210010000900000000000000122914                8000000000033682571239Triber S.A.                   000000003361200000000000000000000000000000000000000000000000000000000000000000000000000000000000000000000000000000000000PES00010000001 00000000058330000000000000000000000000000                              000000000000000
202312210010000900000000000000122913                8000000000033682571239Triber S.A.                   000000003306800000000000000000000000000000000000000000000000000000000000000000000000000000000000000000000000000000000000PES00010000001 00000000057390000000000000000000000000000                              000000000000000
202312210010000900000000000000122912                8000000000033682571239Triber S.A.                   000000003253600000000000000000000000000000000000000000000000000000000000000000000000000000000000000000000000000000000000PES00010000001 00000000056460000000000000000000000000000                              000000000000000
202312210010000900000000000000122911                8000000000033682571239Triber S.A.                   000000003255800000000000000000000000000000000000000000000000000000000000000000000000000000000000000000000000000000000000PES00010000001 00000000056500000000000000000000000000000                              000000000000000
202312210010000900000000000000122910                8000000000033682571239Triber S.A.                   000000003338100000000000000000000000000000000000000000000000000000000000000000000000000000000000000000000000000000000000PES00010000001 00000000057930000000000000000000000000000                              000000000000000
202312210010000900000000000000122909                8000000000033682571239Triber S.A.                   000000003310700000000000000000000000000000000000000000000000000000000000000000000000000000000000000000000000000000000000PES00010000001 00000000057450000000000000000000000000000                              000000000000000
202312210010000900000000000000122908                8000000000033682571239Triber S.A.                   000000003337600000000000000000000000000000000000000000000000000000000000000000000000000000000000000000000000000000000000PES00010000001 00000000057920000000000000000000000000000                              000000000000000
202312210010000900000000000000122907                8000000000033682571239Triber S.A.                   000000003328900000000000000000000000000000000000000000000000000000000000000000000000000000000000000000000000000000000000PES00010000001 00000000057770000000000000000000000000000                              000000000000000
202312210010000900000000000000122906                8000000000033682571239Triber S.A.                   000000003338500000000000000000000000000000000000000000000000000000000000000000000000000000000000000000000000000000000000PES00010000001 00000000057940000000000000000000000000000                              000000000000000
202312210010000900000000000000122905                8000000000033682571239Triber S.A.                   000000003362800000000000000000000000000000000000000000000000000000000000000000000000000000000000000000000000000000000000PES00010000001 00000000058360000000000000000000000000000                              000000000000000
202312210010000900000000000000122904                8000000000033682571239Triber S.A.                   000000003351300000000000000000000000000000000000000000000000000000000000000000000000000000000000000000000000000000000000PES00010000001 00000000058160000000000000000000000000000                              000000000000000
202312210010000900000000000000122903                8000000000033682571239Triber S.A.                   000000003428800000000000000000000000000000000000000000000000000000000000000000000000000000000000000000000000000000000000PES00010000001 00000000059500000000000000000000000000000                              000000000000000
202312210010000900000000000000122902                8000000000033682571239Triber S.A.                   000000003391600000000000000000000000000000000000000000000000000000000000000000000000000000000000000000000000000000000000PES00010000001 00000000058860000000000000000000000000000                              000000000000000
202312210010000900000000000000122901                8000000000033682571239Triber S.A.                   000000003356700000000000000000000000000000000000000000000000000000000000000000000000000000000000000000000000000000000000PES00010000001 00000000058250000000000000000000000000000                              000000000000000
202312210010000900000000000000122900                8000000000033682571239Triber S.A.                   000000003332300000000000000000000000000000000000000000000000000000000000000000000000000000000000000000000000000000000000PES00010000001 00000000057830000000000000000000000000000                              000000000000000
202312210010000900000000000000122899                8000000000033682571239Triber S.A.                   000000003257100000000000000000000000000000000000000000000000000000000000000000000000000000000000000000000000000000000000PES00010000001 00000000056520000000000000000000000000000                              000000000000000
202312210010001800000000000000090621                8000000000020245057424Mauro Sebastian Lagostena     000000016706300000000000000000000000000000000000000000396100000000000000000000000000330100000000000000000000000000000000PES00010000001 00000000277330000000000000000000000000000                              000000000000000
202312070010000200000000000000023576                8000000000033711351839La Glacial Aguas S.A.         000000000701800000000000000000000000000000000000000000000000000000000000000000000000000000000000000000000000000000000000PES00010000001 00000000012180000000000000000000000000000                              000000000000000
202312020010000300000000000000003547                8000000000030714448311Cesar Ullua e Hijos S.R.L.    000000004436800000000000000000000000000000000000000000000000000000000000000000000000000000000000000000000000000000000000PES00010000001 00000000077000000000000000000000000000000                              000000000000000
202312010010000200000000000000001453                8000000000020392852159Heredia Marcos                000000005537400000000000000000000000000000000000000000000000000000000000000000000000000000000000000000000000000000000000PES00010000001 00000000096100000000000000000000000000000                              000000000000000
202312040010000400000000000000000455                8000000000020257153402Ruiz Martin Ariel             000000002066900000000000000000000000000000000000000000000000000000000000000000000000000000000000000000000000000000000000PES00010000001 00000000035870000000000000000000000000000                              000000000000000
202312050010000300000000000000067764                8000000000030586753912Ing Oscar A Bonelli SA        000000000462800000000000000000000000000000000000000000000000000000000000000000000000009300000000000000000000000000000000PES00010000001 00000000007870000000000000000000000000000                              000000000000000
202312260110000300000000000000000932                8000000000020282760267Claudio Martin Cardinali      000000019200000000000000000000000000000000000000000000000000000000000000000000000000000000000000000000000000000000000000PES00010000000 00000000000000000000000000000000000000000                              000000000000000
202312050010000400000000000000042496                8000000000030708710454Distribuidora Mayorista de Ala000000008019300000000000000000000000000000000000000000000000000000000000000000000000000000000000000000000000000000000000PES00010000001 00000000139170000000000000000000000000000                              000000000000000
202312280010000100000000000000011742                8000000000020101771750Ruybal Hugo Reinaldo          000000000906000000000000000000000000000000000000000000000000000000000000000000000000000000000000000000000000000000000000PES00010000001 00000000015720000000000000000000000000000                              000000000000000
202312150010001600000000000000010787                8000000000033667064819HipolitoSRL                   000000025629600000000001006699000000000000000000000000000000000000000000000000000000523000000000000000000000000000000000PES00010000001 00000000418260000000000000000000000000000                              000000000000000
202312310010001600000000000000010844                8000000000033667064819HipolitoSRL                   000000030209300000000000749132000000000000000000000000000000000000000000000000000000614700000000000000000000000000000000PES00010000001 00000000500620000000000000000000000000000                              000000000000000
202312140010000300000000000000067831                8000000000030586753912Ing Oscar A Bonelli SA        000000001600400000000000000000000000000000000000000000000000000000000000000000000000032300000000000000000000000000000000PES00010000001 00000000027210000000000000000000000000000                              000000000000000
202312200010000700000000000000002525                8000000000030562297290OXIFER S.R.L.                 000000007413800000000000000000000000000000000000000000000000000000000000000000000000000000000000000000000000000000000000PES00010000001 00000000128670000000000000000000000000000                              000000000000000
202312190010000100000000000000008488                8000000000033716025999Cooperativa de Trabajo San Nic000000005548400000000000000000000000000000000000000000000000000000000000000000000000000000000000000000000000000000000000PES00010000001 00000000096290000000000000000000000000000                              000000000000000
202312210010000700000000000000002612                8000000000030562297290OXIFER S.R.L.                 000000004820300000000000000000000000000000000000000000000000000000000000000000000000000000000000000000000000000000000000PES00010000001 00000000083650000000000000000000000000000                              000000000000000
202312200010000200000000000000000800                8000000000030717767019Maquinarias y Herramientas Min000000161459900000000000000000000000000000000000000000000000000000000000000000000000000000000000000000000000000000000000PES00010000002 00000001545700000000000000000000000000000                              000000000000000
202312110010000200000000000000129361                8000000000030502309893Licari S.A.                   000000003442500000000000000000000000000000000000000000000000000000000000000000000000000000000000000000000000000000000000PES00010000001 00000000059740000000000000000000000000000                              000000000000000
202312110010000200000000000000129360                8000000000030502309893Licari S.A.                   000000003442500000000000000000000000000000000000000000000000000000000000000000000000000000000000000000000000000000000000PES00010000001 00000000059740000000000000000000000000000                              000000000000000
202312110010000200000000000000129359                8000000000030502309893Licari S.A.                   000000003442500000000000000000000000000000000000000000000000000000000000000000000000000000000000000000000000000000000000PES00010000001 00000000059740000000000000000000000000000                              000000000000000
202312110010000200000000000000129358                8000000000030502309893Licari S.A.                   000000003442500000000000000000000000000000000000000000000000000000000000000000000000000000000000000000000000000000000000PES00010000001 00000000059740000000000000000000000000000                              000000000000000
202312110010000200000000000000129357                8000000000030502309893Licari S.A.                   000000003442500000000000000000000000000000000000000000000000000000000000000000000000000000000000000000000000000000000000PES00010000001 00000000059740000000000000000000000000000                              000000000000000
202312110010000200000000000000129356                8000000000030502309893Licari S.A.                   000000003442500000000000000000000000000000000000000000000000000000000000000000000000000000000000000000000000000000000000PES00010000001 00000000059740000000000000000000000000000                              000000000000000
202312110010000200000000000000129355                8000000000030502309893Licari S.A.                   000000003442500000000000000000000000000000000000000000000000000000000000000000000000000000000000000000000000000000000000PES00010000001 00000000059740000000000000000000000000000                              000000000000000
202312110010000200000000000000129354                8000000000030502309893Licari S.A.                   000000003442500000000000000000000000000000000000000000000000000000000000000000000000000000000000000000000000000000000000PES00010000001 00000000059740000000000000000000000000000                              000000000000000
202312110010000200000000000000129353                8000000000030502309893Licari S.A.                   000000003442500000000000000000000000000000000000000000000000000000000000000000000000000000000000000000000000000000000000PES00010000001 00000000059740000000000000000000000000000                              000000000000000
202312110010000200000000000000129352                8000000000030502309893Licari S.A.                   000000003442500000000000000000000000000000000000000000000000000000000000000000000000000000000000000000000000000000000000PES00010000001 00000000059740000000000000000000000000000                              000000000000000
202312110010000200000000000000129351                8000000000030502309893Licari S.A.                   000000003442500000000000000000000000000000000000000000000000000000000000000000000000000000000000000000000000000000000000PES00010000001 00000000059740000000000000000000000000000                              000000000000000
202312110010000200000000000000129350                8000000000030502309893Licari S.A.                   000000003442500000000000000000000000000000000000000000000000000000000000000000000000000000000000000000000000000000000000PES00010000001 00000000059740000000000000000000000000000                              000000000000000
202312110010000200000000000000129349                8000000000030502309893Licari S.A.                   000000003442500000000000000000000000000000000000000000000000000000000000000000000000000000000000000000000000000000000000PES00010000001 00000000059740000000000000000000000000000                              000000000000000
202312110010000200000000000000129348                8000000000030502309893Licari S.A.                   000000003442500000000000000000000000000000000000000000000000000000000000000000000000000000000000000000000000000000000000PES00010000001 00000000059740000000000000000000000000000                              000000000000000
202312110010000200000000000000129347                8000000000030502309893Licari S.A.                   000000003442500000000000000000000000000000000000000000000000000000000000000000000000000000000000000000000000000000000000PES00010000001 00000000059740000000000000000000000000000                              000000000000000
202312110010000100000000000000123167                8000000000027138430702Bernardi Susana Ines          000000003443400000000000000000000000000000000000000000000000000000000000000000000000000000000000000000000000000000000000PES00010000001 00000000059760000000000000000000000000000                              000000000000000
202312110010000100000000000000123166                8000000000027138430702Bernardi Susana Ines          000000003473900000000000000000000000000000000000000000000000000000000000000000000000000000000000000000000000000000000000PES00010000001 00000000060290000000000000000000000000000                              000000000000000
202312110010000100000000000000123165                8000000000027138430702Bernardi Susana Ines          000000003297900000000000000000000000000000000000000000000000000000000000000000000000000000000000000000000000000000000000PES00010000001 00000000057230000000000000000000000000000                              000000000000000
202312110010000100000000000000123164                8000000000027138430702Bernardi Susana Ines          000000003487200000000000000000000000000000000000000000000000000000000000000000000000000000000000000000000000000000000000PES00010000001 00000000060520000000000000000000000000000                              000000000000000
202312110010000100000000000000123163                8000000000027138430702Bernardi Susana Ines          000000003106900000000000000000000000000000000000000000000000000000000000000000000000000000000000000000000000000000000000PES00010000001 00000000053920000000000000000000000000000                              000000000000000
202312110010000100000000000000123162                8000000000027138430702Bernardi Susana Ines          000000003493400000000000000000000000000000000000000000000000000000000000000000000000000000000000000000000000000000000000PES00010000001 00000000060630000000000000000000000000000                              000000000000000
202312110010000100000000000000123161                8000000000027138430702Bernardi Susana Ines          000000003496900000000000000000000000000000000000000000000000000000000000000000000000000000000000000000000000000000000000PES00010000001 00000000060690000000000000000000000000000                              000000000000000
202312210010000900000000000000122898                8000000000033682571239Triber S.A.                   000000003343200000000000000000000000000000000000000000000000000000000000000000000000000000000000000000000000000000000000PES00010000001 00000000058020000000000000000000000000000                              000000000000000
202312210010000200000000000000122897                8000000000033682571239Triber S.A.                   000000003379200000000000000000000000000000000000000000000000000000000000000000000000000000000000000000000000000000000000PES00010000001 00000000058640000000000000000000000000000                              000000000000000
202312210010000900000000000000122896                8000000000033682571239Triber S.A.                   000000003247600000000000000000000000000000000000000000000000000000000000000000000000000000000000000000000000000000000000PES00010000001 00000000056360000000000000000000000000000                              000000000000000
202312210010000900000000000000122895                8000000000033682571239Triber S.A.                   000000003277300000000000000000000000000000000000000000000000000000000000000000000000000000000000000000000000000000000000PES00010000001 00000000056870000000000000000000000000000                              000000000000000
202312210010000900000000000000122894                8000000000033682571239Triber S.A.                   000000003273300000000000000000000000000000000000000000000000000000000000000000000000000000000000000000000000000000000000PES00010000001 00000000056800000000000000000000000000000                              000000000000000
202312210010000900000000000000122893                8000000000033682571239Triber S.A.                   000000003247000000000000000000000000000000000000000000000000000000000000000000000000000000000000000000000000000000000000PES00010000001 00000000056350000000000000000000000000000                              000000000000000
202312210010000900000000000000122892                8000000000033682571239Triber S.A.                   000000003390700000000000000000000000000000000000000000000000000000000000000000000000000000000000000000000000000000000000PES00010000001 00000000058840000000000000000000000000000                              000000000000000
202312210010000900000000000000122891                8000000000033682571239Triber S.A.                   000000003314600000000000000000000000000000000000000000000000000000000000000000000000000000000000000000000000000000000000PES00010000001 00000000057520000000000000000000000000000                              000000000000000
202312210010000900000000000000122890                8000000000033682571239Triber S.A.                   000000003380200000000000000000000000000000000000000000000000000000000000000000000000000000000000000000000000000000000000PES00010000001 00000000058660000000000000000000000000000                              000000000000000
202312210010000900000000000000122889                8000000000033682571239Triber S.A.                   000000002963200000000000000000000000000000000000000000000000000000000000000000000000000000000000000000000000000000000000PES00010000001 00000000051420000000000000000000000000000                              000000000000000
202312210010000900000000000000122888                8000000000033682571239Triber S.A.                   000000003245300000000000000000000000000000000000000000000000000000000000000000000000000000000000000000000000000000000000PES00010000001 00000000056320000000000000000000000000000                              000000000000000
202312210010000900000000000000122887                8000000000033682571239Triber S.A.                   000000003345200000000000000000000000000000000000000000000000000000000000000000000000000000000000000000000000000000000000PES00010000001 00000000058050000000000000000000000000000                              000000000000000
202312210010000900000000000000122886                8000000000033682571239Triber S.A.                   000000003393100000000000000000000000000000000000000000000000000000000000000000000000000000000000000000000000000000000000PES00010000001 00000000058880000000000000000000000000000                              000000000000000
202312210010000900000000000000122885                8000000000033682571239Triber S.A.                   000000003400000000000000000000000000000000000000000000000000000000000000000000000000000000000000000000000000000000000000PES00010000001 00000000059000000000000000000000000000000                              000000000000000
202312210010000900000000000000122884                8000000000033682571239Triber S.A.                   000000003376900000000000000000000000000000000000000000000000000000000000000000000000000000000000000000000000000000000000PES00010000001 00000000058600000000000000000000000000000                              000000000000000
202312210010000900000000000000122883                8000000000033682571239Triber S.A.                   000000003506200000000000000000000000000000000000000000000000000000000000000000000000000000000000000000000000000000000000PES00010000001 00000000060850000000000000000000000000000                              000000000000000
202312210010000900000000000000122882                8000000000033682571239Triber S.A.                   000000003330000000000000000000000000000000000000000000000000000000000000000000000000000000000000000000000000000000000000PES00010000001 00000000057790000000000000000000000000000                              000000000000000
202312220010000400000000000000137645                8000000000030618141434Girgenti S.R.L.               000000003481500000000000000000000000000000000000000000000000000000000000000000000000000000000000000000000000000000000000PES00010000001 00000000060420000000000000000000000000000                              000000000000000
202312220010000400000000000000137644                8000000000030618141434Girgenti S.R.L.               000000003486000000000000000000000000000000000000000000000000000000000000000000000000000000000000000000000000000000000000PES00010000001 00000000060500000000000000000000000000000                              000000000000000
202312220010000400000000000000137643                8000000000030618141434Girgenti S.R.L.               000000003495800000000000000000000000000000000000000000000000000000000000000000000000000000000000000000000000000000000000PES00010000001 00000000060670000000000000000000000000000                              000000000000000
202312220010000400000000000000137642                8000000000030618141434Girgenti S.R.L.               000000003490200000000000000000000000000000000000000000000000000000000000000000000000000000000000000000000000000000000000PES00010000001 00000000060570000000000000000000000000000                              000000000000000
202312220010000400000000000000137641                8000000000030618141434Girgenti S.R.L.               000000002471000000000000000000000000000000000000000000000000000000000000000000000000000000000000000000000000000000000000PES00010000001 00000000042880000000000000000000000000000                              000000000000000
202312260010000100000000000000006393                8000000000030717454738Estrecom S.A.                 000000002105000000000000000000000000000000000000000000000000000000000000000000000000000000000000000000000000000000000000PES00010000001 00000000036530000000000000000000000000000                              000000000000000
202312240010001000000000000000000832                8000000000030717454738Estrecom S.A.                 000000003759900000000000000000000000000000000000000000000000000000000000000000000000000000000000000000000000000000000000PES00010000001 00000000065250000000000000000000000000000                              000000000000000
202312280010000300000000000000011178                8000000000030715064177Crisger Seguridad S.A.        000000015152500000000000000000000000000000000000000000000000000000000000000000000000000000000000000000000000000000000000PES00010000001 00000000262970000000000000000000000000000                              000000000000000
202312280010000400000000000000022544                8000000000030586753912Ing Oscar A Bonelli SA        000000000216600000000000000000000000000000000000000000000000000000000000000000000000000000000000000000000000000000000000PES00010000001 00000000003750000000000000000000000000000                              000000000000000
202312180010000400000000000000022425                8000000000030586753912Ing Oscar A Bonelli SA        000000000377700000000000000000000000000000000000000000000000000000000000000000000000000000000000000000000000000000000000PES00010000001 00000000006550000000000000000000000000000                              000000000000000
202312070010000700000000000000002486                8000000000030562297290OXIFER S.R.L.                 000000003271300000000000000000000000000000000000000000000000000000000000000000000000000000000000000000000000000000000000PES00010000001 00000000056770000000000000000000000000000                              000000000000000
202312130010000100000000000000006301                8000000000030717454738Estrecom S.A.                 000000003761600000000000000000000000000000000000000000000000000000000000000000000000000000000000000000000000000000000000PES00010000001 00000000065280000000000000000000000000000                              000000000000000
202312130010000100000000000000006297                8000000000030717454738Estrecom S.A.                 000000002384700000000000000000000000000000000000000000000000000000000000000000000000000000000000000000000000000000000000PES00010000001 00000000041380000000000000000000000000000                              000000000000000
202312040110000100000000000000000146                8000000000027335084549Garcia Daiana Lujan           000000001550000000000000000000000000000000000000000000000000000000000000000000000000000000000000000000000000000000000000PES00010000000 00000000000000000000000000000000000000000                              000000000000000
202312010010000100000000000000000097                8000000000030717604500Batta Pont S.R.L.             000000076950000000000000000000000000000000000000000000000000000000000000000000000000000000000000000000000000000000000000PES00010000001 00000000731190000000000000000000000000000                              000000000000000
202312010010000600000000000000013371                8000000000030710837860F.A. Rodamientos S.A.         000000003843300000000000000000000000000000000000000000000000000000000000000000000000000000000000000000000000000000000000PES00010000001 00000000066700000000000000000000000000000                              000000000000000
202312010010000300000000000000011815                8000000000030709408352Abaser SA                     000000000570000000000000000000000000000000000000000000000000000000000000000000000000000000000000000000000000000000000000PES00010000001 00000000009890000000000000000000000000000                              000000000000000
202312050010011100000000000000012789                8000000000030711234426Stern Motors                  000000051570600000000000000000000000000000000000000000000000000000000000000000000000000000000000000000000000000000000000PES00010000001 00000000895020000000000000000000000000000                              000000000000000
202312090010000800000000000000006478                8000000000020108563207Juan Carlos Gili Lubricantes  000000005129900000000000000000000000000000000000000000000000000000000000000000000000000000000000000000000000000000000000PES00010000001 00000000089030000000000000000000000000000                              000000000000000
202312050010000600000000000000001781                8000000000030711952132La Martina                    000000013799900000000000000000000000000000000000000000000000000000000000000000000000000000000000000000000000000000000000PES00010000001 00000000239500000000000000000000000000000                              000000000000000
202312310010000900000000000000002339                8000000000030562033161Julio S Gatti y Cia SRL       000000010707300000000000337071000000000000000000000000000000000000000000000000000000000000000000000000000000000000000000PES00010000001 00000000179970000000000000000000000000000                              000000000000000
202312230010014200000000000000014758                8000000000030665074354Barbero Hermanos sa           000000001327200000000000054562000000000000000000000000000000000000000000000000000000027100000000000000000000000000000000PES00010000001 00000000021610000000000000000000000000000                              000000000000000
202312150010001200000000000000004504                8000000000020120281357Ferreri Antonio H.            000000010099900000000000000000000000000000000000000000000000000000000000000000000000000000000000000000000000000000000000PES00010000001 00000000175280000000000000000000000000000                              000000000000000
202312190010000200000000000000000218                8000000000020171300860Claudio Gross.reutz           000000065340000000000000000000000000000000000000000000000000000000000000000000000000000000000000000000000000000000000000PES00010000001 00000001134000000000000000000000000000000                              000000000000000
202312110010246600000000000000594951                8000000000030678814357Telefonica Moviles Argentina S000000003408900000000000130235000000000000000000000000074200000000000000000000000000061800000000000000000000000000000000PES00010000001 00000000066810000000000000000000000000000                              000000000000000
202312110010246600000000000000594846                8000000000030678814357Telefonica Moviles Argentina S000000001661300000000000055815000000000000000000000000036500000000000000000000000000030400000000000000000000000000000000PES00010000002 00000000031950000000000000000000000000000                              000000000000000
202312220110000200000000000000000062                8000000000020218901949Zapata Nestor Javier          000000050000000000000000000000000000000000000000000000000000000000000000000000000000000000000000000000000000000000000000PES00010000000 00000000000000000000000000000000000000000                              000000000000000
202312110010000100000000000000123160                8000000000027138430702Bernardi Susana Ines          000000003497400000000000000000000000000000000000000000000000000000000000000000000000000000000000000000000000000000000000PES00010000001 00000000060690000000000000000000000000000                              000000000000000
202312110010000100000000000000123159                8000000000027138430702Bernardi Susana Ines          000000003500000000000000000000000000000000000000000000000000000000000000000000000000000000000000000000000000000000000000PES00010000001 00000000060740000000000000000000000000000                              000000000000000
202312110010000100000000000000123158                8000000000027138430702Bernardi Susana Ines          000000003414400000000000000000000000000000000000000000000000000000000000000000000000000000000000000000000000000000000000PES00010000001 00000000059250000000000000000000000000000                              000000000000000
202312110010000100000000000000123157                8000000000027138430702Bernardi Susana Ines          000000003393700000000000000000000000000000000000000000000000000000000000000000000000000000000000000000000000000000000000PES00010000001 00000000058900000000000000000000000000000                              000000000000000
202312110010000100000000000000123156                8000000000027138430702Bernardi Susana Ines          000000003490800000000000000000000000000000000000000000000000000000000000000000000000000000000000000000000000000000000000PES00010000001 00000000060580000000000000000000000000000                              000000000000000
202312110010000100000000000000123155                8000000000027138430702Bernardi Susana Ines          000000003482200000000000000000000000000000000000000000000000000000000000000000000000000000000000000000000000000000000000PES00010000001 00000000060430000000000000000000000000000                              000000000000000
202312110010000100000000000000123154                8000000000027138430702Bernardi Susana Ines          000000003473500000000000000000000000000000000000000000000000000000000000000000000000000000000000000000000000000000000000PES00010000001 00000000060280000000000000000000000000000                              000000000000000
202312110010000100000000000000123153                8000000000027138430702Bernardi Susana Ines          000000003201900000000000000000000000000000000000000000000000000000000000000000000000000000000000000000000000000000000000PES00010000001 00000000055570000000000000000000000000000                              000000000000000
202312110010000100000000000000123152                8000000000027138430702Bernardi Susana Ines          000000003486700000000000000000000000000000000000000000000000000000000000000000000000000000000000000000000000000000000000PES00010000001 00000000060510000000000000000000000000000                              000000000000000
202312110010000100000000000000123151                8000000000027138430702Bernardi Susana Ines          000000003403200000000000000000000000000000000000000000000000000000000000000000000000000000000000000000000000000000000000PES00010000001 00000000059060000000000000000000000000000                              000000000000000
202312110010000100000000000000123150                8000000000027138430702Bernardi Susana Ines          000000003476800000000000000000000000000000000000000000000000000000000000000000000000000000000000000000000000000000000000PES00010000001 00000000060340000000000000000000000000000                              000000000000000
202312110010000100000000000000123149                8000000000027138430702Bernardi Susana Ines          000000003328600000000000000000000000000000000000000000000000000000000000000000000000000000000000000000000000000000000000PES00010000001 00000000057760000000000000000000000000000                              000000000000000
202312110010000100000000000000123148                8000000000027138430702Bernardi Susana Ines          000000003458500000000000000000000000000000000000000000000000000000000000000000000000000000000000000000000000000000000000PES00010000001 00000000060020000000000000000000000000000                              000000000000000
202312110010000100000000000000123147                8000000000027138430702Bernardi Susana Ines          000000002853100000000000000000000000000000000000000000000000000000000000000000000000000000000000000000000000000000000000PES00010000001 00000000049510000000000000000000000000000                              000000000000000
202312110010000100000000000000123146                8000000000027138430702Bernardi Susana Ines          000000003504900000000000000000000000000000000000000000000000000000000000000000000000000000000000000000000000000000000000PES00010000001 00000000060820000000000000000000000000000                              000000000000000
202312110010000100000000000000123145                8000000000027138430702Bernardi Susana Ines          000000003505700000000000000000000000000000000000000000000000000000000000000000000000000000000000000000000000000000000000PES00010000001 00000000060840000000000000000000000000000                              000000000000000
202312110010000100000000000000123144                8000000000027138430702Bernardi Susana Ines          000000003494100000000000000000000000000000000000000000000000000000000000000000000000000000000000000000000000000000000000PES00010000001 00000000060640000000000000000000000000000                              000000000000000
202312110010000100000000000000123143                8000000000027138430702Bernardi Susana Ines          000000003479900000000000000000000000000000000000000000000000000000000000000000000000000000000000000000000000000000000000PES00010000001 00000000060390000000000000000000000000000                              000000000000000
202312110010000100000000000000123142                8000000000027138430702Bernardi Susana Ines          000000003212900000000000000000000000000000000000000000000000000000000000000000000000000000000000000000000000000000000000PES00010000001 00000000055760000000000000000000000000000                              000000000000000
202312110010000100000000000000123141                8000000000027138430702Bernardi Susana Ines          000000003505000000000000000000000000000000000000000000000000000000000000000000000000000000000000000000000000000000000000PES00010000001 00000000060830000000000000000000000000000                              000000000000000
202312110010000100000000000000123140                8000000000027138430702Bernardi Susana Ines          000000003420300000000000000000000000000000000000000000000000000000000000000000000000000000000000000000000000000000000000PES00010000001 00000000059360000000000000000000000000000                              000000000000000
202312110010000100000000000000123139                8000000000027138430702Bernardi Susana Ines          000000003415400000000000000000000000000000000000000000000000000000000000000000000000000000000000000000000000000000000000PES00010000001 00000000059270000000000000000000000000000                              000000000000000
202312220010000400000000000000137640                8000000000030618141434Girgenti S.R.L.               000000003491600000000000000000000000000000000000000000000000000000000000000000000000000000000000000000000000000000000000PES00010000001 00000000060590000000000000000000000000000                              000000000000000
202312220010000400000000000000137639                8000000000030618141434Girgenti S.R.L.               000000003472900000000000000000000000000000000000000000000000000000000000000000000000000000000000000000000000000000000000PES00010000001 00000000060270000000000000000000000000000                              000000000000000
202312220010000400000000000000137638                8000000000030618141434Girgenti S.R.L.               000000003485500000000000000000000000000000000000000000000000000000000000000000000000000000000000000000000000000000000000PES00010000001 00000000060490000000000000000000000000000                              000000000000000
202312220010000400000000000000137637                8000000000030618141434Girgenti S.R.L.               000000003438400000000000000000000000000000000000000000000000000000000000000000000000000000000000000000000000000000000000PES00010000001 00000000059670000000000000000000000000000                              000000000000000
202312220010000400000000000000137636                8000000000030618141434Girgenti S.R.L.               000000003424400000000000000000000000000000000000000000000000000000000000000000000000000000000000000000000000000000000000PES00010000001 00000000059430000000000000000000000000000                              000000000000000
202312220010000400000000000000137635                8000000000030618141434Girgenti S.R.L.               000000003500600000000000000000000000000000000000000000000000000000000000000000000000000000000000000000000000000000000000PES00010000001 00000000060750000000000000000000000000000                              000000000000000
202312220010000400000000000000137634                8000000000030618141434Girgenti S.R.L.               000000003488100000000000000000000000000000000000000000000000000000000000000000000000000000000000000000000000000000000000PES00010000001 00000000060530000000000000000000000000000                              000000000000000
202312220010000400000000000000137633                8000000000030618141434Girgenti S.R.L.               000000003443800000000000000000000000000000000000000000000000000000000000000000000000000000000000000000000000000000000000PES00010000001 00000000059760000000000000000000000000000                              000000000000000
202312220010000400000000000000137632                8000000000030618141434Girgenti S.R.L.               000000003495400000000000000000000000000000000000000000000000000000000000000000000000000000000000000000000000000000000000PES00010000001 00000000060660000000000000000000000000000                              000000000000000
202312220010000400000000000000137631                8000000000030618141434Girgenti S.R.L.               000000003301800000000000000000000000000000000000000000000000000000000000000000000000000000000000000000000000000000000000PES00010000001 00000000057300000000000000000000000000000                              000000000000000
202312220010000400000000000000137630                8000000000030618141434Girgenti S.R.L.               000000003503200000000000000000000000000000000000000000000000000000000000000000000000000000000000000000000000000000000000PES00010000001 00000000060790000000000000000000000000000                              000000000000000
202312220010000400000000000000137629                8000000000030618141434Girgenti S.R.L.               000000003340700000000000000000000000000000000000000000000000000000000000000000000000000000000000000000000000000000000000PES00010000001 00000000057970000000000000000000000000000                              000000000000000
202312220010000400000000000000137628                8000000000030618141434Girgenti S.R.L.               000000003418200000000000000000000000000000000000000000000000000000000000000000000000000000000000000000000000000000000000PES00010000001 00000000059320000000000000000000000000000                              000000000000000
202312220010000400000000000000137627                8000000000030618141434Girgenti S.R.L.               000000003398000000000000000000000000000000000000000000000000000000000000000000000000000000000000000000000000000000000000PES00010000001 00000000058970000000000000000000000000000                              000000000000000
202312220010000400000000000000137626                8000000000030618141434Girgenti S.R.L.               000000003477300000000000000000000000000000000000000000000000000000000000000000000000000000000000000000000000000000000000PES00010000001 00000000060340000000000000000000000000000                              000000000000000
202312220010000400000000000000137625                8000000000030618141434Girgenti S.R.L.               000000003443700000000000000000000000000000000000000000000000000000000000000000000000000000000000000000000000000000000000PES00010000001 00000000059760000000000000000000000000000                              000000000000000
202312220010000400000000000000137624                8000000000030618141434Girgenti S.R.L.               000000003494700000000000000000000000000000000000000000000000000000000000000000000000000000000000000000000000000000000000PES00010000001 00000000060650000000000000000000000000000                              000000000000000
202312220010000400000000000000137623                8000000000030618141434Girgenti S.R.L.               000000003468100000000000000000000000000000000000000000000000000000000000000000000000000000000000000000000000000000000000PES00010000001 00000000060190000000000000000000000000000                              000000000000000
202312220010000400000000000000137622                8000000000030618141434Girgenti S.R.L.               000000003444300000000000000000000000000000000000000000000000000000000000000000000000000000000000000000000000000000000000PES00010000001 00000000059770000000000000000000000000000                              000000000000000
202312220010000400000000000000137621                8000000000030618141434Girgenti S.R.L.               000000003451700000000000000000000000000000000000000000000000000000000000000000000000000000000000000000000000000000000000PES00010000001 00000000059900000000000000000000000000000                              000000000000000
202312220010000400000000000000137620                8000000000030618141434Girgenti S.R.L.               000000003461400000000000000000000000000000000000000000000000000000000000000000000000000000000000000000000000000000000000PES00010000001 00000000060070000000000000000000000000000                              000000000000000
202312220010000400000000000000137619                8000000000030618141434Girgenti S.R.L.               000000003484100000000000000000000000000000000000000000000000000000000000000000000000000000000000000000000000000000000000PES00010000001 00000000060460000000000000000000000000000                              000000000000000
202312110010000100000000000000123138                8000000000027138430702Bernardi Susana Ines          000000003472200000000000000000000000000000000000000000000000000000000000000000000000000000000000000000000000000000000000PES00010000001 00000000060260000000000000000000000000000                              000000000000000
202312110010000100000000000000123137                8000000000027138430702Bernardi Susana Ines          000000002908100000000000000000000000000000000000000000000000000000000000000000000000000000000000000000000000000000000000PES00010000001 00000000050470000000000000000000000000000                              000000000000000
202312110010000100000000000000123136                8000000000027138430702Bernardi Susana Ines          000000003494600000000000000000000000000000000000000000000000000000000000000000000000000000000000000000000000000000000000PES00010000001 00000000060650000000000000000000000000000                              000000000000000
202312110010000100000000000000123135                8000000000027138430702Bernardi Susana Ines          000000003154500000000000000000000000000000000000000000000000000000000000000000000000000000000000000000000000000000000000PES00010000001 00000000054740000000000000000000000000000                              000000000000000
202312110010000100000000000000123134                8000000000027138430702Bernardi Susana Ines          000000003471900000000000000000000000000000000000000000000000000000000000000000000000000000000000000000000000000000000000PES00010000001 00000000060250000000000000000000000000000                              000000000000000
202312110010000100000000000000123133                8000000000027138430702Bernardi Susana Ines          000000003437900000000000000000000000000000000000000000000000000000000000000000000000000000000000000000000000000000000000PES00010000001 00000000059660000000000000000000000000000                              000000000000000
202312110010000100000000000000123132                8000000000027138430702Bernardi Susana Ines          000000003498800000000000000000000000000000000000000000000000000000000000000000000000000000000000000000000000000000000000PES00010000001 00000000060720000000000000000000000000000                              000000000000000
202312110010000100000000000000123131                8000000000027138430702Bernardi Susana Ines          000000003501300000000000000000000000000000000000000000000000000000000000000000000000000000000000000000000000000000000000PES00010000001 00000000060760000000000000000000000000000                              000000000000000
202312110010000100000000000000123130                8000000000027138430702Bernardi Susana Ines          000000003492500000000000000000000000000000000000000000000000000000000000000000000000000000000000000000000000000000000000PES00010000001 00000000060610000000000000000000000000000                              000000000000000
202312110010000100000000000000123129                8000000000027138430702Bernardi Susana Ines          000000003494600000000000000000000000000000000000000000000000000000000000000000000000000000000000000000000000000000000000PES00010000001 00000000060650000000000000000000000000000                              000000000000000
202312110010000100000000000000123128                8000000000027138430702Bernardi Susana Ines          000000003496300000000000000000000000000000000000000000000000000000000000000000000000000000000000000000000000000000000000PES00010000001 00000000060680000000000000000000000000000                              000000000000000
202312110010000100000000000000123127                8000000000027138430702Bernardi Susana Ines          000000003458200000000000000000000000000000000000000000000000000000000000000000000000000000000000000000000000000000000000PES00010000001 00000000060010000000000000000000000000000                              000000000000000
202312110010000100000000000000123126                8000000000027138430702Bernardi Susana Ines          000000003461800000000000000000000000000000000000000000000000000000000000000000000000000000000000000000000000000000000000PES00010000001 00000000060080000000000000000000000000000                              000000000000000
202312110010000100000000000000123125                8000000000027138430702Bernardi Susana Ines          000000003508000000000000000000000000000000000000000000000000000000000000000000000000000000000000000000000000000000000000PES00010000001 00000000060880000000000000000000000000000                              000000000000000
202312110010000100000000000000123124                8000000000027138430702Bernardi Susana Ines          000000003468500000000000000000000000000000000000000000000000000000000000000000000000000000000000000000000000000000000000PES00010000001 00000000060190000000000000000000000000000                              000000000000000
202312110010000300000000000000188656                8000000000030614476660Acima R S.A.                  000000003427500000000000000000000000000000000000000000000000000000000000000000000000000000000000000000000000000000000000PES00010000001 00000000059480000000000000000000000000000                              000000000000000
202312110010000300000000000000188655                8000000000030614476660Acima R S.A.                  000000003416500000000000000000000000000000000000000000000000000000000000000000000000000000000000000000000000000000000000PES00010000001 00000000059290000000000000000000000000000                              000000000000000
202312110010000300000000000000188654                8000000000030614476660Acima R S.A.                  000000003542000000000000000000000000000000000000000000000000000000000000000000000000000000000000000000000000000000000000PES00010000001 00000000061470000000000000000000000000000                              000000000000000
202312110010000300000000000000188653                8000000000030614476660Acima R S.A.                  000000003595200000000000000000000000000000000000000000000000000000000000000000000000000000000000000000000000000000000000PES00010000001 00000000062390000000000000000000000000000                              000000000000000
202312110010000300000000000000188652                8000000000030614476660Acima R S.A.                  000000003607200000000000000000000000000000000000000000000000000000000000000000000000000000000000000000000000000000000000PES00010000001 00000000062600000000000000000000000000000                              000000000000000
202312110010000300000000000000188651                8000000000030614476660Acima R S.A.                  000000003446000000000000000000000000000000000000000000000000000000000000000000000000000000000000000000000000000000000000PES00010000001 00000000059800000000000000000000000000000                              000000000000000
202312110010000300000000000000188650                8000000000030614476660Acima R S.A.                  000000003517900000000000000000000000000000000000000000000000000000000000000000000000000000000000000000000000000000000000PES00010000001 00000000061050000000000000000000000000000                              000000000000000
202312220010000400000000000000137618                8000000000030618141434Girgenti S.R.L.               000000003492400000000000000000000000000000000000000000000000000000000000000000000000000000000000000000000000000000000000PES00010000001 00000000060610000000000000000000000000000                              000000000000000
202312220010000400000000000000137617                8000000000030618141434Girgenti S.R.L.               000000003450800000000000000000000000000000000000000000000000000000000000000000000000000000000000000000000000000000000000PES00010000001 00000000059890000000000000000000000000000                              000000000000000
202312220010000400000000000000137616                8000000000030618141434Girgenti S.R.L.               000000003463000000000000000000000000000000000000000000000000000000000000000000000000000000000000000000000000000000000000PES00010000001 00000000060100000000000000000000000000000                              000000000000000
202312210010000100000000000000131826                8000000000033709095949Hierro Total S.R.L.           000000003365100000000000000000000000000000000000000000000000000000000000000000000000000000000000000000000000000000000000PES00010000001 00000000058400000000000000000000000000000                              000000000000000
202312210010000100000000000000131825                8000000000033709095949Hierro Total S.R.L.           000000003494200000000000000000000000000000000000000000000000000000000000000000000000000000000000000000000000000000000000PES00010000001 00000000060640000000000000000000000000000                              000000000000000
202312210010000100000000000000131824                8000000000033709095949Hierro Total S.R.L.           000000003494200000000000000000000000000000000000000000000000000000000000000000000000000000000000000000000000000000000000PES00010000001 00000000060640000000000000000000000000000                              000000000000000
202312210010000100000000000000131823                8000000000033709095949Hierro Total S.R.L.           000000003405800000000000000000000000000000000000000000000000000000000000000000000000000000000000000000000000000000000000PES00010000001 00000000059110000000000000000000000000000                              000000000000000
202312210010000100000000000000131822                8000000000033709095949Hierro Total S.R.L.           000000003458000000000000000000000000000000000000000000000000000000000000000000000000000000000000000000000000000000000000PES00010000001 00000000060010000000000000000000000000000                              000000000000000
202312210010000100000000000000131821                8000000000033709095949Hierro Total S.R.L.           000000003549000000000000000000000000000000000000000000000000000000000000000000000000000000000000000000000000000000000000PES00010000001 00000000061590000000000000000000000000000                              000000000000000
202312210010000100000000000000131820                8000000000033709095949Hierro Total S.R.L.           000000003462500000000000000000000000000000000000000000000000000000000000000000000000000000000000000000000000000000000000PES00010000001 00000000060090000000000000000000000000000                              000000000000000
202312210010000100000000000000131819                8000000000033709095949Hierro Total S.R.L.           000000003384400000000000000000000000000000000000000000000000000000000000000000000000000000000000000000000000000000000000PES00010000001 00000000058730000000000000000000000000000                              000000000000000
202312210010000100000000000000131818                8000000000033709095949Hierro Total S.R.L.           000000003504300000000000000000000000000000000000000000000000000000000000000000000000000000000000000000000000000000000000PES00010000001 00000000060810000000000000000000000000000                              000000000000000
202312210010000100000000000000131817                8000000000033709095949Hierro Total S.R.L.           000000003374500000000000000000000000000000000000000000000000000000000000000000000000000000000000000000000000000000000000PES00010000001 00000000058560000000000000000000000000000                              000000000000000
202312210010000100000000000000131816                8000000000033709095949Hierro Total S.R.L.           000000003459800000000000000000000000000000000000000000000000000000000000000000000000000000000000000000000000000000000000PES00010000001 00000000060040000000000000000000000000000                              000000000000000
202312210010000100000000000000131815                8000000000033709095949Hierro Total S.R.L.           000000003459800000000000000000000000000000000000000000000000000000000000000000000000000000000000000000000000000000000000PES00010000001 00000000060040000000000000000000000000000                              000000000000000
202312210010000100000000000000131814                8000000000033709095949Hierro Total S.R.L.           000000003495300000000000000000000000000000000000000000000000000000000000000000000000000000000000000000000000000000000000PES00010000001 00000000060660000000000000000000000000000                              000000000000000
202312210010000100000000000000131813                8000000000033709095949Hierro Total S.R.L.           000000003438200000000000000000000000000000000000000000000000000000000000000000000000000000000000000000000000000000000000PES00010000001 00000000059670000000000000000000000000000                              000000000000000
202312210010000100000000000000131812                8000000000033709095949Hierro Total S.R.L.           000000003326900000000000000000000000000000000000000000000000000000000000000000000000000000000000000000000000000000000000PES00010000001 00000000057740000000000000000000000000000                              000000000000000
202312210010000100000000000000131811                8000000000033709095949Hierro Total S.R.L.           000000003356700000000000000000000000000000000000000000000000000000000000000000000000000000000000000000000000000000000000PES00010000001 00000000058250000000000000000000000000000                              000000000000000
202312210010000100000000000000131810                8000000000033709095949Hierro Total S.R.L.           000000003356700000000000000000000000000000000000000000000000000000000000000000000000000000000000000000000000000000000000PES00010000001 00000000058250000000000000000000000000000                              000000000000000
202312210010000100000000000000131809                8000000000033709095949Hierro Total S.R.L.           000000003451500000000000000000000000000000000000000000000000000000000000000000000000000000000000000000000000000000000000PES00010000001 00000000059900000000000000000000000000000                              000000000000000
202312210010000100000000000000131808                8000000000033709095949Hierro Total S.R.L.           000000003506600000000000000000000000000000000000000000000000000000000000000000000000000000000000000000000000000000000000PES00010000001 00000000060850000000000000000000000000000                              000000000000000
202312110010000300000000000000188649                8000000000030614476660Acima R S.A.                  000000003406300000000000000000000000000000000000000000000000000000000000000000000000000000000000000000000000000000000000PES00010000001 00000000059110000000000000000000000000000                              000000000000000
202312110010000300000000000000188648                8000000000030614476660Acima R S.A.                  000000003555800000000000000000000000000000000000000000000000000000000000000000000000000000000000000000000000000000000000PES00010000001 00000000061710000000000000000000000000000                              000000000000000
202312110010000300000000000000188647                8000000000030614476660Acima R S.A.                  000000003437900000000000000000000000000000000000000000000000000000000000000000000000000000000000000000000000000000000000PES00010000001 00000000059660000000000000000000000000000                              000000000000000
202312110010000300000000000000188646                8000000000030614476660Acima R S.A.                  000000003554300000000000000000000000000000000000000000000000000000000000000000000000000000000000000000000000000000000000PES00010000001 00000000061680000000000000000000000000000                              000000000000000
202312110010000300000000000000188645                8000000000030614476660Acima R S.A.                  000000003495200000000000000000000000000000000000000000000000000000000000000000000000000000000000000000000000000000000000PES00010000001 00000000060660000000000000000000000000000                              000000000000000
202312110010000300000000000000188644                8000000000030614476660Acima R S.A.                  000000003484100000000000000000000000000000000000000000000000000000000000000000000000000000000000000000000000000000000000PES00010000001 00000000060460000000000000000000000000000                              000000000000000
202312110010000300000000000000188643                8000000000030614476660Acima R S.A.                  000000003022900000000000000000000000000000000000000000000000000000000000000000000000000000000000000000000000000000000000PES00010000001 00000000052460000000000000000000000000000                              000000000000000
202312110010000300000000000000188642                8000000000030614476660Acima R S.A.                  000000003454900000000000000000000000000000000000000000000000000000000000000000000000000000000000000000000000000000000000PES00010000001 00000000059960000000000000000000000000000                              000000000000000
202312110010000300000000000000188641                8000000000030614476660Acima R S.A.                  000000003399200000000000000000000000000000000000000000000000000000000000000000000000000000000000000000000000000000000000PES00010000001 00000000058990000000000000000000000000000                              000000000000000
202312110010000300000000000000188640                8000000000030614476660Acima R S.A.                  000000003451800000000000000000000000000000000000000000000000000000000000000000000000000000000000000000000000000000000000PES00010000001 00000000059900000000000000000000000000000                              000000000000000
202312110010000300000000000000188639                8000000000030614476660Acima R S.A.                  000000003399200000000000000000000000000000000000000000000000000000000000000000000000000000000000000000000000000000000000PES00010000001 00000000058990000000000000000000000000000                              000000000000000
202312110010000300000000000000188638                8000000000030614476660Acima R S.A.                  000000003491200000000000000000000000000000000000000000000000000000000000000000000000000000000000000000000000000000000000PES00010000001 00000000060590000000000000000000000000000                              000000000000000
202312110010000300000000000000188637                8000000000030614476660Acima R S.A.                  000000003484000000000000000000000000000000000000000000000000000000000000000000000000000000000000000000000000000000000000PES00010000001 00000000060460000000000000000000000000000                              000000000000000
202312110010000300000000000000188636                8000000000030614476660Acima R S.A.                  000000003430500000000000000000000000000000000000000000000000000000000000000000000000000000000000000000000000000000000000PES00010000001 00000000059530000000000000000000000000000                              000000000000000
202312110010000300000000000000188635                8000000000030614476660Acima R S.A.                  000000003412200000000000000000000000000000000000000000000000000000000000000000000000000000000000000000000000000000000000PES00010000001 00000000059220000000000000000000000000000                              000000000000000
202312110010000300000000000000188634                8000000000030614476660Acima R S.A.                  000000003552300000000000000000000000000000000000000000000000000000000000000000000000000000000000000000000000000000000000PES00010000001 00000000061650000000000000000000000000000                              000000000000000
202312110010000300000000000000188633                8000000000030614476660Acima R S.A.                  000000003437900000000000000000000000000000000000000000000000000000000000000000000000000000000000000000000000000000000000PES00010000001 00000000059660000000000000000000000000000                              000000000000000
202312110010000300000000000000188632                8000000000030614476660Acima R S.A.                  000000003403100000000000000000000000000000000000000000000000000000000000000000000000000000000000000000000000000000000000PES00010000001 00000000059060000000000000000000000000000                              000000000000000
202312110010000300000000000000188631                8000000000030614476660Acima R S.A.                  000000003489600000000000000000000000000000000000000000000000000000000000000000000000000000000000000000000000000000000000PES00010000001 00000000060560000000000000000000000000000                              000000000000000
202312110010000300000000000000188630                8000000000030614476660Acima R S.A.                  000000003404400000000000000000000000000000000000000000000000000000000000000000000000000000000000000000000000000000000000PES00010000001 00000000059080000000000000000000000000000                              000000000000000
202312110010000300000000000000188629                8000000000030614476660Acima R S.A.                  000000003389900000000000000000000000000000000000000000000000000000000000000000000000000000000000000000000000000000000000PES00010000001 00000000058830000000000000000000000000000                              000000000000000
202312110010000300000000000000188628                8000000000030614476660Acima R S.A.                  000000003459000000000000000000000000000000000000000000000000000000000000000000000000000000000000000000000000000000000000PES00010000001 00000000060030000000000000000000000000000                              000000000000000
202312210010000100000000000000131807                8000000000033709095949Hierro Total S.R.L.           000000003391000000000000000000000000000000000000000000000000000000000000000000000000000000000000000000000000000000000000PES00010000001 00000000058850000000000000000000000000000                              000000000000000
202312210010000100000000000000131806                8000000000033709095949Hierro Total S.R.L.           000000003396700000000000000000000000000000000000000000000000000000000000000000000000000000000000000000000000000000000000PES00010000001 00000000058950000000000000000000000000000                              000000000000000
202312210010000100000000000000131805                8000000000033709095949Hierro Total S.R.L.           000000003399500000000000000000000000000000000000000000000000000000000000000000000000000000000000000000000000000000000000PES00010000001 00000000059000000000000000000000000000000                              000000000000000
202312210010000100000000000000131804                8000000000033709095949Hierro Total S.R.L.           000000003404200000000000000000000000000000000000000000000000000000000000000000000000000000000000000000000000000000000000PES00010000001 00000000059080000000000000000000000000000                              000000000000000
202312210010000100000000000000131803                8000000000033709095949Hierro Total S.R.L.           000000003366800000000000000000000000000000000000000000000000000000000000000000000000000000000000000000000000000000000000PES00010000001 00000000058430000000000000000000000000000                              000000000000000
202312210010000100000000000000131802                8000000000033709095949Hierro Total S.R.L.           000000003352100000000000000000000000000000000000000000000000000000000000000000000000000000000000000000000000000000000000PES00010000001 00000000058170000000000000000000000000000                              000000000000000
202312210010000100000000000000131801                8000000000033709095949Hierro Total S.R.L.           000000003580600000000000000000000000000000000000000000000000000000000000000000000000000000000000000000000000000000000000PES00010000001 00000000062140000000000000000000000000000                              000000000000000
202312210010000100000000000000131800                8000000000033709095949Hierro Total S.R.L.           000000003459700000000000000000000000000000000000000000000000000000000000000000000000000000000000000000000000000000000000PES00010000001 00000000060040000000000000000000000000000                              000000000000000
202312210010000100000000000000131799                8000000000033709095949Hierro Total S.R.L.           000000003159400000000000000000000000000000000000000000000000000000000000000000000000000000000000000000000000000000000000PES00010000001 00000000054830000000000000000000000000000                              000000000000000
202312210010000100000000000000131798                8000000000033709095949Hierro Total S.R.L.           000000003413700000000000000000000000000000000000000000000000000000000000000000000000000000000000000000000000000000000000PES00010000001 00000000059240000000000000000000000000000                              000000000000000
202312210010000100000000000000131797                8000000000033709095949Hierro Total S.R.L.           000000003402100000000000000000000000000000000000000000000000000000000000000000000000000000000000000000000000000000000000PES00010000001 00000000059040000000000000000000000000000                              000000000000000
202312210010000100000000000000131796                8000000000033709095949Hierro Total S.R.L.           000000003510100000000000000000000000000000000000000000000000000000000000000000000000000000000000000000000000000000000000PES00010000001 00000000060910000000000000000000000000000                              000000000000000
202312210010000100000000000000131795                8000000000033709095949Hierro Total S.R.L.           000000003452500000000000000000000000000000000000000000000000000000000000000000000000000000000000000000000000000000000000PES00010000001 00000000059910000000000000000000000000000                              000000000000000
202312210010000100000000000000131794                8000000000033709095949Hierro Total S.R.L.           000000003450700000000000000000000000000000000000000000000000000000000000000000000000000000000000000000000000000000000000PES00010000001 00000000059880000000000000000000000000000                              000000000000000
202312210010000100000000000000131793                8000000000033709095949Hierro Total S.R.L.           000000003447900000000000000000000000000000000000000000000000000000000000000000000000000000000000000000000000000000000000PES00010000001 00000000059830000000000000000000000000000                              000000000000000
202312210010000100000000000000131792                8000000000033709095949Hierro Total S.R.L.           000000003443600000000000000000000000000000000000000000000000000000000000000000000000000000000000000000000000000000000000PES00010000001 00000000059760000000000000000000000000000                              000000000000000
202312210010000100000000000000131791                8000000000033709095949Hierro Total S.R.L.           000000003460500000000000000000000000000000000000000000000000000000000000000000000000000000000000000000000000000000000000PES00010000001 00000000060050000000000000000000000000000                              000000000000000
202312210010000100000000000000131790                8000000000033709095949Hierro Total S.R.L.           000000003420300000000000000000000000000000000000000000000000000000000000000000000000000000000000000000000000000000000000PES00010000001 00000000059360000000000000000000000000000                              000000000000000
202312210010000100000000000000131789                8000000000033709095949Hierro Total S.R.L.           000000003444800000000000000000000000000000000000000000000000000000000000000000000000000000000000000000000000000000000000PES00010000001 00000000059780000000000000000000000000000                              000000000000000
202312210010000100000000000000131788                8000000000033709095949Hierro Total S.R.L.           000000003438500000000000000000000000000000000000000000000000000000000000000000000000000000000000000000000000000000000000PES00010000001 00000000059670000000000000000000000000000                              000000000000000
202312210010000100000000000000155826                8000000000030663116874Celentano Jorge y Delatorre P.000000003334800000000000000000000000000000000000000000000000000000000000000000000000000000000000000000000000000000000000PES00010000001 00000000057870000000000000000000000000000                              000000000000000
202312210010000100000000000000155825                8000000000030663116874Celentano Jorge y Delatorre P.000000003346700000000000000000000000000000000000000000000000000000000000000000000000000000000000000000000000000000000000PES00010000001 00000000058080000000000000000000000000000                              000000000000000
202312120010001000000000000000000816                8000000000030717454738Estrecom S.A.                 000000000808300000000000000000000000000000000000000000000000000000000000000000000000000000000000000000000000000000000000PES00010000001 00000000014020000000000000000000000000000                              000000000000000
202312110010000300000000000000188627                8000000000030614476660Acima R S.A.                  000000003437900000000000000000000000000000000000000000000000000000000000000000000000000000000000000000000000000000000000PES00010000001 00000000059660000000000000000000000000000                              000000000000000
202312110010000300000000000000188626                8000000000030614476660Acima R S.A.                  000000003489700000000000000000000000000000000000000000000000000000000000000000000000000000000000000000000000000000000000PES00010000001 00000000060560000000000000000000000000000                              000000000000000
202312110010000300000000000000188625                8000000000030614476660Acima R S.A.                  000000003489900000000000000000000000000000000000000000000000000000000000000000000000000000000000000000000000000000000000PES00010000001 00000000060560000000000000000000000000000                              000000000000000
202312110010000300000000000000188624                8000000000030614476660Acima R S.A.                  000000003435300000000000000000000000000000000000000000000000000000000000000000000000000000000000000000000000000000000000PES00010000001 00000000059620000000000000000000000000000                              000000000000000
202312110010000300000000000000188623                8000000000030614476660Acima R S.A.                  000000003412200000000000000000000000000000000000000000000000000000000000000000000000000000000000000000000000000000000000PES00010000001 00000000059220000000000000000000000000000                              000000000000000
202312110010000300000000000000188622                8000000000030614476660Acima R S.A.                  000000003399000000000000000000000000000000000000000000000000000000000000000000000000000000000000000000000000000000000000PES00010000001 00000000058990000000000000000000000000000                              000000000000000
202312110010000300000000000000188621                8000000000030614476660Acima R S.A.                  000000003466400000000000000000000000000000000000000000000000000000000000000000000000000000000000000000000000000000000000PES00010000001 00000000060160000000000000000000000000000                              000000000000000
202312110010000300000000000000188620                8000000000030614476660Acima R S.A.                  000000003478500000000000000000000000000000000000000000000000000000000000000000000000000000000000000000000000000000000000PES00010000001 00000000060370000000000000000000000000000                              000000000000000
202312110010000300000000000000188619                8000000000030614476660Acima R S.A.                  000000003521500000000000000000000000000000000000000000000000000000000000000000000000000000000000000000000000000000000000PES00010000001 00000000061110000000000000000000000000000                              000000000000000
202312110010000300000000000000188618                8000000000030614476660Acima R S.A.                  000000003478500000000000000000000000000000000000000000000000000000000000000000000000000000000000000000000000000000000000PES00010000001 00000000060370000000000000000000000000000                              000000000000000
202312110010000300000000000000188617                8000000000030614476660Acima R S.A.                  000000003402700000000000000000000000000000000000000000000000000000000000000000000000000000000000000000000000000000000000PES00010000001 00000000059050000000000000000000000000000                              000000000000000
202312110010000300000000000000188616                8000000000030614476660Acima R S.A.                  000000003419000000000000000000000000000000000000000000000000000000000000000000000000000000000000000000000000000000000000PES00010000001 00000000059330000000000000000000000000000                              000000000000000
202312110010000300000000000000188615                8000000000030614476660Acima R S.A.                  000000003402700000000000000000000000000000000000000000000000000000000000000000000000000000000000000000000000000000000000PES00010000001 00000000059050000000000000000000000000000                              000000000000000
202312110010000300000000000000188614                8000000000030614476660Acima R S.A.                  000000003419700000000000000000000000000000000000000000000000000000000000000000000000000000000000000000000000000000000000PES00010000001 00000000059350000000000000000000000000000                              000000000000000
202312110010000300000000000000188613                8000000000030614476660Acima R S.A.                  000000003448400000000000000000000000000000000000000000000000000000000000000000000000000000000000000000000000000000000000PES00010000001 00000000059840000000000000000000000000000                              000000000000000
202312110010000300000000000000188612                8000000000030614476660Acima R S.A.                  000000003389000000000000000000000000000000000000000000000000000000000000000000000000000000000000000000000000000000000000PES00010000001 00000000058810000000000000000000000000000                              000000000000000
202312110010000300000000000000188611                8000000000030614476660Acima R S.A.                  000000003499700000000000000000000000000000000000000000000000000000000000000000000000000000000000000000000000000000000000PES00010000001 00000000060740000000000000000000000000000                              000000000000000
202312210010000100000000000000155824                8000000000030663116874Celentano Jorge y Delatorre P.000000003474100000000000000000000000000000000000000000000000000000000000000000000000000000000000000000000000000000000000PES00010000001 00000000060290000000000000000000000000000                              000000000000000
202312210010000100000000000000155823                8000000000030663116874Celentano Jorge y Delatorre P.000000003341000000000000000000000000000000000000000000000000000000000000000000000000000000000000000000000000000000000000PES00010000001 00000000057980000000000000000000000000000                              000000000000000
202312210010000100000000000000155822                8000000000030663116874Celentano Jorge y Delatorre P.000000003152500000000000000000000000000000000000000000000000000000000000000000000000000000000000000000000000000000000000PES00010000001 00000000054710000000000000000000000000000                              000000000000000
202312210010000100000000000000155821                8000000000030663116874Celentano Jorge y Delatorre P.000000003377500000000000000000000000000000000000000000000000000000000000000000000000000000000000000000000000000000000000PES00010000001 00000000058610000000000000000000000000000                              000000000000000
202312210010000100000000000000155820                8000000000030663116874Celentano Jorge y Delatorre P.000000003424400000000000000000000000000000000000000000000000000000000000000000000000000000000000000000000000000000000000PES00010000001 00000000059430000000000000000000000000000                              000000000000000
202312210010000100000000000000155819                8000000000030663116874Celentano Jorge y Delatorre P.000000003280900000000000000000000000000000000000000000000000000000000000000000000000000000000000000000000000000000000000PES00010000001 00000000056940000000000000000000000000000                              000000000000000
202312210010000100000000000000155818                8000000000030663116874Celentano Jorge y Delatorre P.000000003469200000000000000000000000000000000000000000000000000000000000000000000000000000000000000000000000000000000000PES00010000001 00000000060210000000000000000000000000000                              000000000000000
202312210010000100000000000000155817                8000000000030663116874Celentano Jorge y Delatorre P.000000003306900000000000000000000000000000000000000000000000000000000000000000000000000000000000000000000000000000000000PES00010000001 00000000057390000000000000000000000000000                              000000000000000
202312210010000100000000000000155816                8000000000030663116874Celentano Jorge y Delatorre P.000000003320600000000000000000000000000000000000000000000000000000000000000000000000000000000000000000000000000000000000PES00010000001 00000000057630000000000000000000000000000                              000000000000000
202312210010000100000000000000155815                8000000000030663116874Celentano Jorge y Delatorre P.000000003347600000000000000000000000000000000000000000000000000000000000000000000000000000000000000000000000000000000000PES00010000001 00000000058100000000000000000000000000000                              000000000000000
202312210010000100000000000000155814                8000000000030663116874Celentano Jorge y Delatorre P.000000003452600000000000000000000000000000000000000000000000000000000000000000000000000000000000000000000000000000000000PES00010000001 00000000059920000000000000000000000000000                              000000000000000
